:100000000C942B010C945C010C945C010C945C012D
:100010000C945C010C945C010C945C010C945C01EC
:100020000C945C010C945C010C945C010C945C01DC
:100030000C945C010C945C010C945C010C945C01CC
:100040000C945C010C945C010C945C010C945C01BC
:100050000C945C010C945C010C945C010C948D0478
:100060000C945C010C9401050C94D7040C945C0175
:100070000C945C010C945C010C945C010C945C018C
:100080000C945C010C945C010C945C010C945C017C
:100090000C945C010C945C010C945C010C945C016C
:1000A0000C945C010C945C010C945C010C945C015C
:1000B0000C945C010C945C010C945C010C945C014C
:1000C0000C945C010C945C010C945C010C945C013C
:1000D0000C945C010C945C010C945C010C945C012C
:1000E0000C945C010C9411030C94B9050C941B0343
:1000F0000C9404030C94E1020C94B9010C942503B4
:100100000C9437030C9400030C9429030C941703EC
:100110000C94AA010C941F030C94DB010C94CD01E8
:100120000C94E6020C942D030C94FC020C9407032F
:100130000C94060A0C9460020C940D030C941302A8
:100140000C9433030C947D010C94F80200000A0B0C
:1001500002090C0D0E080703040100000000000056
:10016000000000000000000000000000000000008F
:10017000000000000000000012111000000000004C
:10018000000000000000000000000000000000006F
:10019000000000002200250028002B002E00310066
:1001A000340002010000050108010B0100002100DC
:1001B000240027002A002D00300033000101000038
:1001C000040107010A0105050505070508080808D7
:1001D000020202020A0A08080404040401010101DF
:1001E00001010101030303030303030304070707DA
:1001F0000C0C0C0C0C0C0C0C02020202060606067F
:10020000060606060B0B0B0B0B0B0B0B010210204B
:10021000200808102040102040800201020108043C
:1002200002010102040810204080804020100804D0
:100230000201800402018040201008040201080429
:10024000020101020408102040800102040810206D
:100250004080B905060A11241FBECFEFD1E2DEBFF0
:10026000CDBF00E00CBF22E1A4E3B1E101C01D92CB
:10027000A539B207E1F711E1A0E0B2E0E2ECF8E164
:1002800000E00BBF02C007900D92A433B107D9F76D
:1002900011E0CAE2D1E000E006C021970109802FF9
:1002A000FE010E94310AC932D10780E00807A9F790
:1002B0000E9441060C944F0C0C94000090E0FC014D
:1002C000E45FFD4F24918A539E4FFC018491882363
:1002D00099F090E0880F991FFC01E455FE4FA5911D
:1002E000B491FC01EE56FE4F859194918FB7F8942E
:1002F000EC91E22BEC938FBF0895AF92BF92CF9217
:10030000DF92EF92FF920F931F93CF93DF936C01D5
:100310007B018B01040F151FEB015E01AE18BF08B6
:10032000C017D10759F06991D601ED91FC91019068
:10033000F081E02DC6011995892B79F7C501DF9170
:10034000CF911F910F91FF90EF90DF90CF90BF90D2
:10035000AF900895FC01538D448D252F30E0842FFC
:1003600090E0821B930B541710F0CF9608950197DD
:100370000895FC01918D828D981761F0A28DAE0FCA
:10038000BF2FB11D5D968C91928D9F5F9F73928F51
:1003900090E008958FEF9FEF0895FC01918D828D7D
:1003A000981731F0828DE80FF11D858D90E008954A
:1003B0008FEF9FEF0895FC01918D228D892F90E0A2
:1003C000805C9F4F821B91098F73992708958EE35C
:1003D00091E10E94DB0121E0892B09F420E0822FCA
:1003E0000895FC01A48DA80FB92FB11DA35ABF4FCA
:1003F0002C91848D90E001968F739927848FA68924
:10040000B7892C93A089B1898C91837080648C9377
:10041000938D848D981306C00288F389E02D808126
:100420008F7D80830895EF92FF920F931F93CF9358
:10043000DF93EC0181E0888F9B8D8C8D98131AC01F
:10044000E889F989808185FF15C09FB7F894EE8906
:10045000FF896083E889F989808183708064808363
:100460009FBF81E090E0DF91CF911F910F91FF90AE
:10047000EF900895F62E0B8D10E00F5F1F4F0F7356
:100480001127E02E8C8D8E110CC00FB607FCFACF11
:10049000E889F989808185FFF5CFCE010E94F101BD
:1004A000F1CFEB8DEC0FFD2FF11DE35AFF4FF082E2
:1004B0009FB7F8940B8FEA89FB8980818062CFCF48
:1004C000CF93DF93EC01888D8823B9F0AA89BB898B
:1004D000E889F9898C9185FD03C0808186FD0DC076
:1004E0000FB607FCF7CF8C9185FFF2CF808185FF97
:1004F000EDCFCE010E94F101E9CFDF91CF910895B8
:1005000080E090E0892B29F00E94E70181110E9490
:10051000000080E090E0892B49F080E090E0892B9A
:1005200029F00E94000081110E94000080E090E00C
:10053000892B49F080E090E0892B29F00E9400008F
:1005400081110E94000080E090E0892B49F080E05A
:1005500090E0892B29F00E94000081110C9400008A
:100560000895282F30E0F901E45BFE4F9491F901E2
:10057000E45FFD4F44912A533E4FF9012491222319
:1005800009F435C0992311F191509231F8F4E92F13
:10059000F0E08827E153FD4F8F4F0C94310A0003A0
:1005A0000403E102F802FC02E60207030D03110353
:1005B00017031B031F0325032903E6022D0333033F
:1005C0003703809180008F7780938000E22FF0E0E6
:1005D000EE0FFF1FEE56FE4FA591B4918FB7F89422
:1005E000EC91611148C040954E234C938FBF089504
:1005F000809180008F7DE8CF80918000877FE4CF5D
:1006000084B58F7784BDE2CF84B58F7DFBCF809199
:10061000B0008F778093B000D9CF8091B0008F7DEC
:10062000F9CF809190008F7780939000CFCF809109
:1006300090008F7DF9CF80919000877FF5CF8091DA
:10064000A0008F778093A000C1CF8091A0008F7D04
:10065000F9CF8091A000877FF5CF809120018F771F
:1006600080932001B3CF809120018F7DF9CF8091BD
:100670002001877FF5CF4E2BB8CF4F925F926F92BC
:100680007F928F929F92AF92BF92CF92DF92EF9222
:10069000FF920F931F93CF93DF931F921F92CDB7BB
:1006A000DEB78C0149832A83660F771FF801EA5A67
:1006B000FF4FE080F180EE0CFF1CF801CF01801BA2
:1006C000910B8E159F0514F41192F8CF8981F801D2
:1006D000E60FF71F81838A818083680184E5C80E55
:1006E000D11C60E0F60180810E94B1025801F2E560
:1006F000AF0EB11C480180E5880E911C1E141F042A
:100700000CF5E1E0EE1AF108F801EE0DFF1D608036
:10071000F5015080F401408088E0782E662D661F38
:100720006627661F842D0E94B102660C61E0852D4C
:100730000E94B10260E0852D0E94B1027A9471108E
:10074000EDCFDCCF61E0F60180810F900F90DF915B
:10075000CF911F910F91FF90EF90DF90CF90BF90BE
:10076000AF909F908F907F906F905F904F900C9480
:10077000B1023F924F925F926F927F928F929F92BF
:10078000AF92BF92CF92DF92EF92FF920F931F939F
:10079000CF93DF93EC018B015A013B0183E0660CA0
:1007A000771C8A95E1F780E890E002C095958795DF
:1007B0004A95E2F7482E582E509448E050E04E01FA
:1007C00036E5830E911CE22EF12C99E0392EF401CE
:1007D000808191819A012150310969010817190717
:1007E000DCF4B7FC19C0F301E41BF50BEC0FFD1FA3
:1007F000808D97010C2C02C0359527950A94E2F75D
:1008000020FF1FC08429808F332D341B432F208D60
:10081000B801CE010E943D03A601CD28C1F6DF91AB
:10082000CF911F910F91FF90EF90DF90CF90BF90ED
:10083000AF909F908F907F906F905F904F903F9080
:1008400008958521E0CFDF92EF92FF920F931F93DF
:10085000CF93DF93FC01EA5AFF4F20813181621769
:100860007307C4F47B018C01EB0183E0CC0FDD1F27
:100870008A95E1F76096C00FD11FDD24D3941992B9
:1008800020E04D2DB701C8010E943D03D39489E0BB
:10089000D812F5CFDF91CF911F910F91FF90EF907C
:1008A000DF900895FC0101900020E9F73197AF0136
:1008B000481B590BBC018EE391E10C947D01CF9351
:1008C000DF93EC018091DB119091DC11009759F0DE
:1008D0002091DD113091DE112C173D0720F081E0D1
:1008E000DF91CF910895BE016F5F7F4F0E945E0B35
:1008F000009789F09093DC118093DB11D093DE1187
:10090000C093DD112091DF113091E011232B39F7D5
:10091000FC011082E4CF80E0E3CF1F920F920FB66C
:100920000F9211242F933F938F939F93AF93BF9375
:1009300080913A1190913B11A0913C11B0913D11E1
:100940003091391123E0230F2D3758F50196A11D61
:10095000B11D2093391180933A1190933B11A093CC
:100960003C11B0933D118091351190913611A091B9
:100970003711B09138110196A11DB11D8093351129
:1009800090933611A0933711B0933811BF91AF9166
:100990009F918F913F912F910F900FBE0F901F90BD
:1009A000189526E8230F0296A11DB11DD2CF1F92E4
:1009B0000F920FB60F9211240BB60F922F933F9305
:1009C0004F935F936F937F938F939F93AF93BF9357
:1009D000EF93FF938EE391E10E94F101FF91EF917C
:1009E000BF91AF919F918F917F916F915F914F9147
:1009F0003F912F910F900BBE0F900FBE0F901F9045
:100A000018951F920F920FB60F9211240BB60F92EA
:100A10002F938F939F93EF93FF93E0914E11F0915B
:100A20004F118081E0915411F091551182FD1DC04C
:100A30009081809157118F5F8F7320915811821789
:100A400041F0E0915711F0E0E25CFE4E958F80930B
:100A50005711FF91EF919F918F912F910F900BBEA6
:100A60000F900FBE0F901F9018958081F2CF8F923C
:100A70009F92AF92BF92CF92DF92EF92FF920F932D
:100A80001F93CF93DF938C01D62EC72EEC01C05B52
:100A9000DF4F688379834C0182E5880E911CF40155
:100AA000518340835801F4E5AF0EB11CF501318349
:100AB00020837801F6E5EF0EF11C83E090E0F7016A
:100AC00091838083862F0E945E01F40180810E94C1
:100AD0005E01F50180810E945E0161E0F501808187
:100AE0000E94B102D882C982F80170961192EC1767
:100AF000FD07E1F7D0E0C0E0F70180819181C817E0
:100B0000D90754F520E04FE0BE01C8010E943D0323
:100B1000F70180819181C817D90734F427E04BE0B1
:100B2000BE01C8010E943D0320E049E0BE01C801AA
:100B30000E943D03BE01C8010E942304F701808189
:100B40009181C817D90734F420E04CE0BE01C801F8
:100B50000E943D032196D0CFDF91CF911F910F913D
:100B6000FF90EF90DF90CF90BF90AF909F908F90CD
:100B70000895109241111092401188EE93E0A0E088
:100B8000B0E08093421190934311A0934411B0932D
:100B9000451182E191E190933F1180933E1185ECE4
:100BA00090E090934B1180934A1184EC90E09093E5
:100BB0004D1180934C1180EC90E090934F118093F5
:100BC0004E1181EC90E0909351118093501182EC82
:100BD00090E0909353118093521186EC90E09093A3
:100BE0005511809354111092571110925811109270
:100BF000591110925A1127E130E046E150E068E1C6
:100C000070E089E392E10E9437052AE130E049E192
:100C100050E06BE170E081EE91E10E9437051092A7
:100C2000DC111092DB111092DE111092DD11109286
:100C3000E0111092DF1190E080E00E945F042091AB
:100C4000DB113091DC11811113C02115310519F030
:100C5000C9010E94D50A1092DC111092DB1110928A
:100C6000E0111092DF111092DE111092DD11089543
:100C70001092E0111092DF1162E371E1C9010C944E
:100C8000480CCF93DF93CDB7DEB7E5970FB6F89456
:100C9000DEBF0FBECDBF789484B5826084BD84B5BD
:100CA000816084BD85B5826085BD85B5816085BD67
:100CB00080916E00816080936E001092810080911F
:100CC00081008260809381008091810081608093A7
:100CD0008100809180008160809380008091B100CC
:100CE00084608093B1008091B00081608093B000F7
:100CF0008091910082608093910080919100816049
:100D00008093910080919000816080939000809109
:100D1000A10082608093A1008091A10081608093F6
:100D2000A1008091A00081608093A00080912101AA
:100D30008260809321018091210181608093210153
:100D40008091200181608093200180917A008460ED
:100D500080937A0080917A00826080937A008091FB
:100D60007A00816080937A0080917A008068809315
:100D70007A001092C100E0914E11F0914F1182E083
:100D80008083E0914A11F0914B111082E0914C1157
:100D9000F0914D118FEC808310925611E091521119
:100DA000F091531186E08083E0915011F091511140
:100DB000808180618083E0915011F0915111808198
:100DC00088608083E0915011F0915111808180689A
:100DD0008083E0915011F091511180818F7D80834B
:100DE00080E291E10E94520480E391E10E9452046A
:100DF00010E000E080918F1290919012081719076F
:100E00003CF421E04CE0B80189E392E10E943D030B
:100E100080918F1290919012081719073CF428E0E6
:100E20004AE0B80189E392E10E943D03B80189E3F9
:100E300092E10E9423048091371290913812081792
:100E400019073CF421E04CE0B80181EE91E10E94E9
:100E50003D038091371290913812081719073CF41E
:100E600028E04AE0B80181EE91E10E943D03B8011B
:100E700081EE91E10E9423040F5F1F4F03301105A3
:100E800009F0B8CF412C512C320143942DB73EB715
:100E90003BAB2AAB8EE391E10E94DB0118161906E9
:100EA0000CF09EC090E080E00E945F042091DB1176
:100EB0003091DC11811172C02115310519F0C90181
:100EC0000E94D50A1092DC111092DB111092E011F1
:100ED0001092DF111092DE111092DD118EE391E17C
:100EE0000E94DB01181619060CF07AC08EE391E11E
:100EF0000E94B901C82E89831A820091DF111091D6
:100F0000E0110F5F1F4FC8010E945F04882399F012
:100F10002091DB113091DC118091DF119091E01173
:100F2000BE016F5F7F4F820F931F0E94480C10938A
:100F3000E0110093DF110C2C000CDD08EE08FF0817
:100F4000F7FE36C06DE28EE391E10E941302222784
:100F50003327A9012C193D094E095F0919A28E01F9
:100F60000F5D1F4FCA01B9012AE030E040E050E0B8
:100F70000E940F0A605DD8016E938D012115310525
:100F80004105510579F70115110519F0C8010E94B5
:100F9000520480E391E10E945204A0CF1092E0112C
:100FA0001092DF1162E371E1C9010E94480C96CFF3
:100FB000A701960119A28E010F5D1F4FCA01B90149
:100FC0002AE030E040E050E00E940F0A605DF80146
:100FD00062938F01211531054105510579F7D3CF72
:100FE0008090DF119090E011C4010196880F991F45
:100FF0002DB73EB7281B390B0FB6F8943EBF0FBE76
:101000002DBF4DB75EB74F5F5F4F59AB48AB4091B7
:10101000DB115091DC11E8A9F9A990E080E0881576
:10102000990591F0DA01A80FB91F4115510521F476
:1010300010923411A4E3B1E12C91022E000C330B79
:10104000219331930196EBCF48E1A42EB12CC4013A
:1010500053E0880F991F5A95E1F7AA27BB27A81BD1
:10106000B90BBDABACABFE01BA96FBA7EAA72CA9A6
:101070003DA9A216B3060CF4BFC1150148A959A990
:101080005FA74EA71DA61CA68CA59DA58816990630
:1010900009F494C1AEA5BFA52D913D91BFA7AEA700
:1010A00088E0E6E0F2E0DE01929601900D928A95EA
:1010B000E1F788E0E6E0F2E0DE01119601900D92A2
:1010C0008A95E1F7A901405251094036510508F0CF
:1010D000A7C08E010E5D1F4FFE01319633E0440F15
:1010E000551F3A95E1F790E080E09A01280F391FEB
:1010F000B901625F754FDB016C91D8016D938D0171
:10110000225F3C4FD9012C912193019688309105A3
:1011100061F7FE01B296D12CE12CF12C00E010E039
:10112000B0E0A0E030E090E080E02191B301A201C6
:10113000082E04C0440F551F661F771F0A94D2F76C
:1011400020FFB8C0342B21FFB9C0A42B22FFBAC0A6
:10115000B42B23FFBBC0142B24FFBCC0042B25FFE2
:10116000BDC0F42A26FFBEC0E42A27FFBFC0D42A90
:10117000019688309105C9F6DAA2EBA2FCA20DA374
:101180001EA3BFA3A8A739A7FE013196D12CE12C3D
:10119000F12C00E010E0B0E0A0E030E090E080E072
:1011A0002191B301A201082E04C0440F551F661FF0
:1011B000771F0A94D2F720FF9CC0342B21FF9DC0DB
:1011C000A42B22FF9EC0B42B23FF9FC0142B24FF0F
:1011D000A0C0042B25FFA1C0F42A26FFA2C0E42A48
:1011E00027FFA3C0D42A019688309105C9F6D98279
:1011F000EA82FB820C831D83BE83AF833887F12C88
:10120000E12C8701020D131DD12CC12C08301105D2
:101210000CF48EC05FEFC51AD50A08501109F6CF3D
:10122000EEE0F2E090E080E0419151912417350723
:1012300021F58E010E5D1F4FFE01319623E0880FD0
:10124000991F2A95E1F750E040E09C01240F351FDB
:1012500028503D4FB901625F754FDB016C91D80199
:101260006D938D01225F3C4FD9012C9121934F5FEB
:101270005F4F4830510549F74CCF019680389105B2
:1012800099F626E03BE0FE01B29686E094E0BE01CE
:101290006F5F7F4FD9014D919D014193DC014D91CD
:1012A000CD01DB014D93BD014AA55BA54E175F073C
:1012B00089F72FCFC42EC0943C2145CFC42EC094B3
:1012C000AC2144CFC42EC094BC2143CFC42EC094C3
:1012D0001C2142CFC42EC0940C2141CFC42EC094F7
:1012E000FC2040CFC42EC094EC203FCF4095D422A8
:1012F0003FCFC42EC0943C2161CFC42EC094AC21FA
:1013000060CFC42EC094BC215FCFC42EC0941C21DA
:101310005ECFC42EC0940C215DCFC42EC094FC209F
:101320005CCFC42EC094EC205BCF4095D4225BCF21
:1013300080918F1290919012C816D9067CF50830D2
:10134000110568F4E2E2F0E0EC0FFD1FEE0DFF1D69
:101350002081A801B60189E392E10E94B90380913E
:10136000371290913812C816D90684F40830110546
:1013700068F4E1E0F0E0EC0FFD1FEE0DFF1D2081B1
:10138000A801B60181EE91E10E94B9038FEFE81A3E
:10139000F80A98E0E916F10409F033CF8EE391E101
:1013A0000E94DB01A8E02A0E311C1816190634F041
:1013B000ECA5FDA53196FDA7ECA766CEF8E1AF162A
:1013C000B104B1F410E000E080918F12909190127E
:1013D000081719076CF4B80189E392E10E9423040D
:1013E000B80181EE91E10E9423040F5F1F4FECCF03
:1013F00021E0A21AB1083BCE4AA95BA90FB6F89426
:101400005EBF0FBE4DBF0E94800240CD8091DB11B8
:101410009091DC11009711F00C94D50A0895A1E287
:101420001A2EAA1BBB1BFD010DC0AA1FBB1FEE1F5E
:10143000FF1FA217B307E407F50720F0A21BB30BA9
:10144000E40BF50B661F771F881F991F1A9469F725
:1014500060957095809590959B01AC01BD01CF0181
:101460000895EE0FFF1F881F8BBF0790F691E02DA8
:1014700019940F931F93CF93DF938230910510F44B
:1014800082E090E0E0919312F091941230E020E03D
:10149000B0E0A0E0309799F42115310509F44AC075
:1014A000281B390B24303105D8F58A819B816115C1
:1014B000710589F1FB0193838283FE0111C0408194
:1014C00051810281138148175907E0F048175907E5
:1014D00099F4109761F012960C93129713961C933F
:1014E0003296CF01DF91CF911F910F910895009314
:1014F000931210939412F4CF2115310551F0421735
:10150000530738F0A901DB019A01BD01DF01F801A1
:10151000C1CFEF01F9CF9093941280939312CDCF66
:10152000FE01E20FF31F8193919322503109398319
:101530002883D7CF2091911230919212232B41F41E
:101540002091020230910302309392122093911263
:1015500020910002309101022115310541F42DB78F
:101560003EB74091040250910502241B350BE091D7
:101570009112F0919212E217F307A0F42E1B3F0B89
:101580002817390778F0AC014E5F5F4F24173507F5
:1015900048F04E0F5F1F5093921240939112819327
:1015A00091939FCFF0E0E0E09CCFCF93DF93009743
:1015B000E9F0FC01329713821282A0919312B0914C
:1015C0009412ED0130E020E01097A1F420813181E8
:1015D000820F931F20919112309192122817390790
:1015E00009F061C0F0939212E0939112DF91CF91D4
:1015F0000895EA01CE17DF07E8F54A815B819E0175
:1016000041155105B1F7E901FB83EA8349915991ED
:10161000C40FD51FEC17FD0761F4808191810296FC
:10162000840F951FE90199838883828193819B832D
:101630008A83F0E0E0E012968D919C9113970097D9
:10164000B9F52D913C911197CD010296820F931F10
:1016500020919112309192122817390739F630975C
:1016600051F51092941210929312B0939212A0938B
:101670009112BCCFD383C28340815181840F951FC7
:10168000C817D90761F44E5F5F4F88819981480F71
:10169000591F518340838A819B81938382832115C3
:1016A000310509F0B0CFF0939412E09393129ECFDE
:1016B000FD01DC01C0CF13821282D7CF4F925F921F
:1016C0006F927F928F929F92AF92BF92CF92DF9252
:1016D000EF92FF920F931F93CF93DF938C010097AC
:1016E00099F4CB01DF91CF911F910F91FF90EF9073
:1016F000DF90CF90BF90AF909F908F907F906F9032
:101700005F904F900C94390AFC01E60FF71F9C0183
:1017100022503109E217F30708F4AEC0D901CD9188
:10172000DC911197C617D70720F1C530D10578F0A5
:10173000CE0104978617970750F0C61BD70B229748
:10174000C193D1936D937C93CF010E94D50AC801B8
:10175000DF91CF911F910F91FF90EF90DF90CF908D
:10176000BF90AF909F908F907F906F905F904F90C1
:1017700008955B01AC1ABD0A4C018C0E9D1EA09110
:101780009312B0919412512C412CF12CE12C109712
:1017900031F580919112909192128815990509F076
:1017A0005CC04616570608F058C080910002909120
:1017B0000102009741F48DB79EB740910402509109
:1017C0000502841B950BE817F90708F055C0F09344
:1017D0009212E0939112F90171836083B8CF8D91D9
:1017E0009C91119712966C90129713967C90139778
:1017F000A815B90559F56C0142E0C40ED11CCA14F4
:10180000DB0420F1AC014A195B09DA011296159745
:1018100080F06282738251834083D9016D937C93FF
:10182000E114F10471F0D7011396FC93EE93129733
:101830008ECF22968C0F9D1FF90191838083F30137
:10184000EFCFF0939412E093931281CF481659068C
:1018500008F42C017D01D3019ACFCB010E94390AF3
:101860007C01009749F0AE01B8010E943F0CC8010D
:101870000E94D50A87016BCF10E000E068CFFB0122
:10188000DC0102C001900D9241505040D8F70895FC
:10189000FB01DC0101900D920020E1F7089511E0B9
:1018A000CAE2D1E000E006C0802FFE010E94310AAA
:1018B0002196011DCB32D10780E00807A9F7F894E3
:0218C000FFCF58
:1018C20000009512800000082A1C771C2A080200DA
:1018D200C7FFFCFFE9FFE2FFE4FFE0FFE5FFE7FFF0
:1018E200EAFFEBFFE8FFEFFFEEFFECFFC4FFC5FFEF
:1018F200C9FFE6FFC6FFF4FFF6FFF2FFFBFFF9FFA9
:10190200FFFFD6FFDCFFF8FFA3FFD8FFD7FF92FF50
:10191200E1FFEDFFF3FFFAFFF1FFD1FFAAFFBAFFEC
:10192200BFFFAEFFACFFBDFFBCFFA1FFABFFBBFF24
:1019320091FF92FF93FF02002400C1FFC2FFC0FF8C
:10194200A9FF6300510057005D00A2FFA5FF100030
:10195200140034002C001C0000003C00E3FFC3FF15
:101962005A00540069006600600050006C00A4FF39
:10197200F0FFD0FFCAFFCBFF38003100CDFFCEFF12
:10198200CFFF18000C0088FF84FFA6FF80FFD3FF63
:10199200DFFFD4FFD2FFF5FFD5FFB5FFFEFFDEFF6D
:1019A200DAFFDBFFD9FFFDFFDDFFAFFFB5FFADFFC4
:1019B200B1FF1700BEFFB6FFA7FFF7FFB8FFB0FFEA
:1019C200A8FFB7FFB9FFB3FFB2FFA0FFA0FF00005F
:1019D2000000000000001818000018181818000075
:1019E2000000000000006666FEFE66666666383825
:1019F2000C0C8C8C787830306060C6C6C6C638381D
:101A020058588C8C767600000000000000003030C0
:101A1200303018180C0C0C0C0C0C1818606038388C
:101A2200FEFE383844447E7E181818180000000064
:101A32000000181818187E7E000000000000000048
:101A4200000018181818181830306060C0C04444DC
:101A52004444444438381818181818183C3C1818CC
:101A6200303040407C7C18180404444438384C4CD4
:101A72007E7E0C0C0C0C0404040444443838787840
:101A820044444444383808081818181818183838C4
:101A92004444444438383C3C04044444383800004C
:101AA2000000181818180000000018181818303014
:101AB20018180C0C040400007E7E000000000C0CC0
:101AC20018186060404018181818000018185C5C5C
:101AD2005C5C40403C3C44447C7C444444447878D4
:101AE2004444444478784040404044443838444474
:101AF2004444444478787878404040407C7C78780C
:101B02004040404040405C5C4444444438387C7C23
:101B120044444444444418181818181838380C0C13
:101B22004C4C4C4C3838606050504848444440401B
:101B3200404040407C7C44444444444444444C4CF3
:101B42004444444444444444444444443838787803
:101B5200404040404040444454544C4C38387878DB
:101B620050504848444438380404444438382828FB
:101B720028282828282844444444444438384444E3
:101B8200444428281010444454546C6C44441010AB
:101B920028284444444438381010101010101010F3
:101BA200202040407C7C202020202020383808083B
:101BB2000404020201010808080808083838000075
:101BC2000000000000000000000000007C7C00001B
:101BD2000000000000003C3C444444443C3C44447B
:101BE2004444444478784040404044443838444473
:101BF200444444443C3C7C7C4040444438387878FB
:101C02002020202020203C3C040444443838444412
:101C1200444444444444101010101010383808084A
:101C22000808484830305050606050504848101002
:101C320010101010383854545454545454544444CA
:101C42004444444444444444444444443838787802
:101C52004040404040403C3C0404040404044040F2
:101C62004040404040403838040444443838202042
:101C72002020242418184444444444443C3C444412
:101C8200444428281010444454546C6C444428287A
:101C92001010282844443C3C0404444438381010B2
:101CA200202040407C7C404020202020181810102A
:101CB20010101010101008081010101060607777C4
:101CC200DCDC000000004141414141417F7F424252
:101CD2003C3C101030304444444438380000222246
:101CE2003C3C21213E3E3E3E22223E3E02024242F8
:101CF20042423E3E0202424242423E3E02023E3EDA
:101D020022223E3E020220201C1C080830307E7E29
:101D1200404040403C3C7E7E404040403C3C7E7ED9
:101D2200404040403C3C1818181818181818181849
:101D32001818181818181818181818181818FFFF53
:101D4200C3C3C3C3C3C3FFFFC3C3C3C3C3C33C3CF7
:101D5200202020203C3C3F3F484848483F3FFFFF6F
:101D6200888888888F8F4242424242423C3C4242AB
:101D7200424242423C3C4242424242423C3C424259
:101D820046463A3A0202424246463A3A02020808B5
:101D92000808080838384242424242423C3C424229
:101DA200424242423C3C525262627C7C8080202011
:101DB20040405858E6E6525262627E7E8080282871
:101DC200444400000000202020202020C0C01E1E0D
:101DD20022223A3A010110101010101038384242F3
:101DE200424242423C3C414143433D3D0101C2C269
:101DF200828282828282A2A292928A8A86861C1C15
:101E020002020000000024241818000000004040D4
:101E1200444444443838000000000000000002023C
:101E22000202020200002A2A44448E8E00002C2C58
:101E32005E5E8484000010101010101010104444D4
:101E42008888444422222424121224244848A8A820
:101E52005454A8A854543F3F7E7E3F3F7E7E7E7EF0
:101E6200FCFC7E7EFCFC2020202020202020E0E0C4
:101E72002020202020202020E0E020202020E8E850
:101E82002828282828282828282828282828080810
:101E92003838080808080404747414141414141448
:101EA20014141414141468682828282828282828A8
:101EB2006868080878782828282828287878080860
:101EC20078780808787808080808080808081E1EA4
:101ED2000000000000007E7E0000000000007E7E08
:101EE2001010101010103E3E2020202020207E7E58
:101EF20000000000000078782020202020203E3EB4
:101F02002020202020207E7E5050505050504040B3
:101F12007E7E000000005E5E505050505050FEFE2B
:101F2200000000000000EEEE282828282828EEEE07
:101F3200282828282828FEFE000000000000EEEED7
:101F4200282828282828FEFE0000000000000000A3
:101F5200FEFE00000000FEFE202020202020FEFECB
:101F62002828282828283F3F0000000000002020C1
:101F72003E3E000000002020202020200000505083
:101F820050505050505028282828282828282020EF
:101F92007E7E2020202000000000000000001C1C8B
:101FA200101010101010383838383838383838389F
:101FB20038383838383830303030303030300C0C37
:101FC2000C0C0C0C0C0C38380000000000004444CF
:101FD20024241A1A0000424242427C7C8080404003
:101FE20040404040E0E024242424242442421010B3
:101FF20020204141FFFF424242423E3E000046460F
:102002007C7C404040401212141408080000999948
:102012007E7E18183C3C818142422424181881811A
:102022003C3CE7E7000088884444787800009999AE
:10203200A5A54242000099997E7E18181818808042
:10204200818182827C7C4242818181818181FFFF08
:1020520000000000FFFFFFFF10101010FFFF020240
:102062000C0C3030FFFF404030300C0CFFFF404082
:102072004040404040400202020274747878FFFF00
:1020820000003838383871718E8E00000000242428
:10209200181800000000383800000000000000009E
:1020A2003838383800004444A8A810101010000036
:1020B20000000000FFFF20207C7C000000007E7EEC
:1020C200000000000000000000000000000000000E
:1020D200000000000000000018181818181800006E
:1020E200666666666666000066666666FEFE0000F6
:1020F20018183C3C44440000C6C6CCCC181800005A
:1021020038384444444400001818181818180000BD
:102112000C0C181830300000606018180C0C00000D
:1021220000000000444400000000181818180000C5
:10213200000000000000000000000000000000009D
:102142000000000000000000020206060C0C000065
:10215200383844444444000018183838181800002D
:10216200383844440404000038384444040400006D
:102172000C0C1C1C2C2C00007C7C4040787800004D
:1021820038384444404000007C7C4444040400004D
:10219200383844444444000038384444444400003D
:1021A200000018181818000000001818181800006D
:1021B20004040C0C18180000000000007E7E0000D1
:1021C200404060601818000038384444040400009D
:1021D200383844445C5C000018183C3C444400001D
:1021E2007878444444440000383844444040000075
:1021F20078784444444400007C7C404040400000E5
:102202007C7C40404040000038384444404000005C
:102212004444444444440000383818181818000054
:102222001C1C0C0C0C0C000044444848505000008C
:10223200404040404040000044446C6C5454000014
:102242004444646454540000383844444444000014
:1022520078784444444400003838444444440000FC
:1022620078784444444400003838444440400000F4
:102272007C7C28282828000044444444444400002C
:10228200444444444444000044444444444400001C
:102292004444444428280000444444444444000044
:1022A2007C7C04040808000038382020202000002C
:1022B20040402020101000003838080808080000AC
:1022C2001010282844440000000000000000000014
:1022D200181818180C0C000000003838040400000C
:1022E2004040404078780000000038384444000004
:1022F200040404043C3C000000003838444400005C
:102302001C1C2424202000003C3C44444444000083
:10231200404040407878000010100000303000004B
:1023220008080000181800004040404048480000DB
:10233200303010101010000000006C6C545400007B
:10234200000078784444000000003838444400001B
:1023520078784444444400003C3C444444440000F3
:10236200000078784444000000003C3C40400000FB
:1023720020202020787800000000444444440000DB
:10238200000044444444000000004444444400002B
:102392000000444444440000444444444444000093
:1023A20000007C7C08080000181820202020000073
:1023B20010101010101000006060101010100000BB
:1023C20000000000000008081414222241413C3C95
:1023D20042424040404000000000444400000000EF
:1023E200040408081C1C080814143E3E02021414BB
:1023F2003E3E02023E3E08083E3E02023E3E1C1C9B
:102402001C1C3E3E020200001C1C2020202010103A
:1024120028283C3C4242282800003C3C42422020E2
:1024220010103C3C424224240000181818181818B6
:102432002424181818183030181800001818181802
:1024420000003C3C6666181818183C3C666604049A
:1024520008083C3C2020000000003E3E49490000A4
:102462001F1F282848481818242400003C3C00005C
:10247200242400003C3C2020101000003C3C181892
:102482002424000042422020101000004242141472
:10249200000022221414242400003C3C4242242442
:1024A20000004242424201013E3E46464A4A7C7C8C
:1024B20082824242F8F801017E7E46464A4A000084
:1024C2004444282810101C1C20207070202008086A
:1024D20010103C3C4242080810101010303008081E
:1024E200101000003C3C0808101000004141141478
:1024F20028288080BCBC141428288282C2C23838A2
:1025020004041C1C24240000000018182424202089
:102512000000202020200000000000007E7E00003D
:10252200000000007E7E22226464282816162222E1
:1025320064642828141410100000101010100000F9
:102542000000000022220000000000004848A8A865
:102552005454A8A854543F3F7E7E3F3F7E7E0000E5
:10256200FCFC7E7EFCFC202020202020202020203D
:10257200202020202020202020202020E0E02828C9
:102582002828282828280000000000007878000069
:102592000000000038380000141414147474000091
:1025A20014141414141400000000787808080000B1
:1025B20000002828282800000000282828280000D9
:1025C20000000808080800000000787808081010C9
:1025D2001010101010101010101010101010000019
:1025E20000000000000020202020202020200000E9
:1025F2000000000000002020202020202020202099
:1026020020203E3E202050505050505050505050AC
:10261200505050505E5E000000007E7E40402828F0
:102622002828EEEE000000000000FEFE0000282830
:102632002828EEEE000000000000FEFE0000282820
:102642002828EEEE000020202020FEFE0000282890
:1026520028282828FEFE00000000FEFE00000000E0
:1026620000000000000028282828282828282020E8
:10267200202020203E3E3E3E20203E3E20200000E4
:10268200000000007E7E2828282828287E7E202020
:10269200202020207E7E101010101010707000007C
:1026A2000000000000003838383838383838000068
:1026B20000000000000030303030303030300C0C80
:1026C2000C0C0C0C0C0C3838383838383838000000
:1026D2001A1A242444443C3C424242424C4CFEFEE0
:1026E20042424040404000007F7FA4A42424FFFFD8
:1026F20041412020101000007F7F48484444444458
:1027020044444444454500007E7E909010103C3C79
:1027120018187E7E9999181824244242818100005B
:102722003C3C424281813838444420201010000051
:1027320000004242A5A5181818187E7E99997E7E3F
:10274200828280807C7C000018182424424200008F
:10275200FFFF000000001010101010101010303099
:102762000C0C020201010C0C3030404080801E1E15
:10277200262640404040020202020202020238388B
:1027820038380000FFFF000071718E8E00000000DB
:10279200000018182424000000000000383800004F
:1027A2000000000000000101020204040404000011
:1027B20000000000000038384444080810100000EF
:1027C2007E7E7E7E7E7E0000000000000000000013
:1027D200000013027D01AA016002DB01B901CD01F3
:1027E2005365747570205465726D696E61646F0013
:0427F2000D0A0000CC
:00000001FF
