:020000040000FA
:100000000C943D010C946E010C946E010C946E01E5
:100010000C946E010C946E010C946E010C946E01A4
:100020000C946E010C946E010C946E010C946E0194
:100030000C946E010C946E010C946E010C946E0184
:100040000C946E010C946E010C946E010C946E0174
:100050000C946E010C946E010C946E010C940613BA
:100060000C946E010C94D0120C94A6120C946E0198
:100070000C946E010C946E010C946E010C946E0144
:100080000C946E010C946E010C946E010C946E0134
:100090000C946E010C946E010C946E010C946E0124
:1000A0000C946E010C946E010C946E010C946E0114
:1000B0000C946E010C946E010C946E010C946E0104
:1000C0000C946E010C946E010C946E010C946E01F4
:1000D0000C946E010C946E010C946E010C946E01E4
:1000E0000C946E010C94E0010C9465020C943203A4
:1000F0000C94BE010C94D2010C942A030C941802A7
:100100000C94AF010C94FD020C941C030C94A706F4
:100110000C940C030C9483060C942E030C94770619
:100120000C9409030C94A2130C949B060C943C03AE
:100130000C9401030C9424030C9420030C943803B6
:100140000C945F060C94E6020C9483160C94050341
:100150000C948F060C9453060C946B060C9482013D
:100160000C9416030C94EB020C9412030C94B3063B
:1001700000002100240027002A002D003000330059
:1001800001010000040107010A0100000A0B020935
:100190000C0D0E0807030401000000000000000021
:1001A000000000000000000000000000000000004F
:1001B000000000000000121110000000000000000C
:1001C000000000000000000000000000000000002F
:1001D0000102102020080810204010204080020159
:1001E000020108040201010204081020408080403E
:1001F000201008040201800402018040201008043D
:1002000002010804020101020408102040800102DA
:1002100004081020408000002200250028002B0048
:100220002E003100340002010000050108010B011D
:1002300005050505070508080808020202020A0A62
:100240000808040404040101010101010101030380
:10025000030303030303040707070C0C0C0C0C0C2B
:100260000C0C0202020206060606060606060B0B28
:100270000B0B0B0B0B0BA213831611241FBECFEF1E
:10028000D1E2DEBFCDBF00E00CBF1AE0A0E0B2E0DB
:10029000E2EEF3E300E00BBF02C007900D92A63B35
:1002A000B107D9F72CE0A6EBBAE001C01D92A13A44
:1002B000B207E1F711E0CCE3D1E000E006C02197FE
:1002C0000109802FFE010E94BA17CB33D10780E0CD
:1002D0000807A9F70E94B3140C94DF190C940000CE
:1002E000FC01248135816217730720F4808191819C
:1002F000009729F41092BF0A8FEB9AE00895860FB9
:10030000971F0895AF92BF92CF92DF92EF92FF9224
:100310000F931F93CF93DF936C017B018B01040F2D
:10032000151FEB015E01AE18BF08C017D10759F0C9
:100330006991D601ED91FC910190F081E02DC6010B
:100340001995892B79F7C501DF91CF911F910F91F5
:10035000FF90EF90DF90CF90BF90AF900895FC0199
:10036000538D448D252F30E0842F90E0821B930B1A
:10037000541710F0CF96089501970895FC01918DC0
:10038000828D981761F0A28DAE0FBF2FB11D5D96C3
:100390008C91928D9F5F9F73928F90E008958FEF65
:1003A0009FEF0895FC01918D828D981731F0828D19
:1003B000E80FF11D858D90E008958FEF9FEF089570
:1003C000FC01918D228D892F90E0805C9F4F821BD4
:1003D00091098F739927089580EC9AE00E94E001BB
:1003E00021E0892B09F420E0822F0895FC01A48DDF
:1003F000A80FB92FB11DA35ABF4F2C91848D90E047
:1004000001968F739927848FA689B7892C93A08929
:10041000B1898C91837080648C93938D848D9813B3
:1004200006C00288F389E02D80818F7D8083089546
:10043000EF92FF920F931F93CF93DF93EC0181E034
:10044000888F9B8D8C8D98131AC0E889F9898081DB
:1004500085FF15C09FB7F894EE89FF896083E8890E
:10046000F98980818370806480839FBF81E090E000
:10047000DF91CF911F910F91FF90EF900895F62E8D
:100480000B8D10E00F5F1F4F0F731127E02E8C8D27
:100490008E110CC00FB607FCFACFE889F98980816C
:1004A00085FFF5CFCE010E94F601F1CFEB8DEC0F69
:1004B000FD2FF11DE35AFF4FF0829FB7F8940B8F89
:1004C000EA89FB8980818062CFCFCF93DF93EC01F3
:1004D000888D8823B9F0AA89BB89E889F9898C912C
:1004E00085FD03C0808186FD0DC00FB607FCF7CFE8
:1004F0008C9185FFF2CF808185FFEDCFCE010E94E8
:10050000F601E9CFDF91CF91089580E090E0892B4B
:1005100029F00E94EC0181110E94000080E090E02F
:10052000892B49F080E090E0892B29F00E9400009F
:1005300081110E94000080E090E0892B49F080E06A
:1005400090E0892B29F00E94000081110E94000098
:1005500080E090E0892B49F080E090E0892B29F041
:100560000E94000081110C9400000895282F30E0B3
:10057000F901E657FE4F9491F901E053FE4F449183
:10058000205D3D4FF9012491222309F435C09923C0
:1005900011F191509231F8F4E92FF0E08827EC52F4
:1005A000FD4F8F4F0C94BA1705030903E602FD02B5
:1005B0000103EB020C03120316031C0320032403A4
:1005C0002A032E03EB02320338033C0380918000A0
:1005D0008F7780938000E22FF0E0EE0FFF1FEA5E3E
:1005E000FD4FA591B4918FB7F894EC91611148C07B
:1005F00040954E234C938FBF0895809180008F7D4E
:10060000E8CF80918000877FE4CF84B58F7784BD69
:10061000E2CF84B58F7DFBCF8091B0008F77809340
:10062000B000D9CF8091B0008F7DF9CF809190003C
:100630008F7780939000CFCF809190008F7DF9CFFE
:1006400080919000877FF5CF8091A0008F77809375
:10065000A000C1CF8091A0008F7DF9CF8091A00034
:10066000877FF5CF809120018F7780932001B3CFD2
:10067000809120018F7DF9CF80912001877FF5CF78
:100680004E2BB8CFCF93DF9390E0FC01E053FE4FA9
:100690002491805D9D4FFC0184918823D1F090E0EE
:1006A000880F991FFC01E059FE4FA591B491FC0100
:1006B000EA5EFD4FC591D49161110EC09FB7F894C9
:1006C0008C91E22FE0958E238C932881E223E8839E
:1006D0009FBFDF91CF9108958FB7F894EC91E22BF3
:1006E000EC938FBFF6CF3FB7F8948091BB0A9091FF
:1006F000BC0AA091BD0AB091BE0A26B5A89B05C050
:100700002F3F19F00196A11DB11D3FBFBA2FA92F90
:10071000982F8827BC01CD01620F711D811D911D8D
:1007200042E0660F771F881F991F4A95D1F70895F9
:100730008F929F92AF92BF92CF92DF92EF92FF92F1
:10074000CF93DF93FC018281938168177907D8F5F5
:100750004A01AA24BB24C32ED42EE52EFF24DC2D6F
:10076000C22F8085982D882391F0C82FD0E0C89D96
:10077000D001C99DB00DD89DB00D11249B2F8C9D2B
:1007800060011124DD2D829F90011124C32FA685C5
:10079000218532858385A81321C0AB01440F551FE5
:1007A000640F751F620F731FA385A60FB72FB11DAE
:1007B0009C93A485A60FB72FB11DDC938585680F88
:1007C000711DFB01C083DF91CF91FF90EF90DF900F
:1007D000CF90BF90AF909F908F900895660F771F36
:1007E000660F771F620F731FA60FB72FB11D1C92E4
:1007F000DBCFCF92DF92EF92FF920F931F93CF93B5
:10080000DF9300D000D000D0CDB7DEB78C01DC0183
:1008100019968D919C91892B09F473C00E947303E2
:10082000F801C784D088E188F2886C157D058E05B3
:100830009F0520F46787708B818B928BF801C784AA
:10084000D088E188F2886C197D098E099F096C3285
:1008500071408105910510F3F894D80114968D919B
:100860009C9115979A8389831996ED91FC917F014C
:10087000BFEFEB1AFB0A80818987F801908103881A
:10088000F489E02DD80155968C91992309F448C03C
:100890009081982B98879081809589238F838F8171
:1008A0008C8388E08B8358856F8149853B812C81BF
:1008B00089819A81D701508347FD252F3A9520835E
:1008C000262F39F0441F00C000006083000000C0E4
:1008D000F2CF38E04D9160830000019761F7D801B5
:1008E0005496FC93EE93539749873B832C839A83CA
:1008F000898378940E947303F8016787708B818BDA
:10090000928B29960FB6F894DEBF0FBECDBFDF9154
:10091000CF911F910F91FF90EF90DF90CF900895AE
:100920009081982B98879081809589238F838F81E0
:100930008E8388E08D8358856F8149853D812E8126
:1009400089819A81D701508347FD252F00C000C0BF
:10095000208300C000C000C000C000C06083000051
:10096000262F3A9541F0441F000000C000C000C08F
:1009700000C000C0E8CF38E04D9100C0608300C0E7
:10098000019709F7D8015496FC93EE935397498742
:100990003D832E83ACCFCF93DF93EC018E819F817B
:1009A00097FD07C061E00E94420360E08E810E94D3
:1009B000B60281E08983DF91CF910895CF92DF92D3
:1009C000EF92FF920F931F93CF93DF931F921F928B
:1009D000CDB7DEB769834A83880F991F0091BF0B9B
:1009E0001091C00B000F111FE9E6FBE09F01295693
:1009F0003B402017310714F41192F8CF2981FC01F4
:100A0000E759F44F21838A81808360E08091BD0B98
:100A10000E94B6021016110604F501501109F801E2
:100A2000E759F44FE080D090BB0BC090B90B88E041
:100A3000F82E6E2D661F6627661F8C2D0E94B6024B
:100A4000EE0C61E08D2D0E94B60260E08D2D0E94BB
:100A5000B602FA94F110EDCFDDCF61E08091BD0BCD
:100A60000F900F90DF91CF911F910F91FF90EF901A
:100A7000DF90CF900C94B602EF92FF921F93CF932A
:100A8000DF932091BF0B3091C00B82179307B4F412
:100A9000EC0123E0880F991F2A95E1F79C01275864
:100AA000344F790111E0F70111927F0140E0612F8D
:100AB000CE010E94DE041F5F1930A9F7DF91CF91AC
:100AC0001F91FF90EF9008952091BF0B3091C00BC4
:100AD00082179307ECF468307105D0F44830510563
:100AE000B8F4FC0123E0EE0FFF1F2A95E1F7E60FB3
:100AF000F71F20E830E002C0359527954A95E2F7C8
:100B0000E759F44F4089422B408B6F5F0C94DE0411
:100B10000895FC0101900020E9F73197AF01481BCF
:100B2000590BBC0180EC9AE00C948201CF93DF93C7
:100B30000E948905EC018CE89AE00E9489058C0FDF
:100B40009D1FDF91CF910895FC014481558170E094
:100B500060E0818592850C94D119FC01808191819E
:100B6000009711F00C945E1808950F931F93CF9384
:100B7000DF93EC0188819981009759F02A813B81AC
:100B80002617370730F081E0DF91CF911F910F9149
:100B900008958B016F5F7F4F0E94E718009759F00F
:100BA000998388831B830A832C813D81232B59F7EA
:100BB000FC011082E8CF80E0E7CFEF92FF920F9325
:100BC0001F93CF93DF93EC017B018A01BA010E944E
:100BD000B50528813981811114C02115310519F01D
:100BE000C9010E945E18198218821D821C821B8214
:100BF0001A82CE01DF91CF911F910F91FF90EF905C
:100C000008951D830C83B701C9010E94D819F1CF43
:100C1000EF92FF920F931F93CF93DF937C018B0191
:100C20000E94FF16E8012197B70161507109AE01DA
:100C300090E080E0093011056CF0A801495051099D
:100C400081E090E04830510528F0A8014151510958
:100C500082E090E00E946405F7013297E930F105E7
:100C600078F48827E95CF94F8F4F0C94BA17530634
:100C70005F066B06770683068F069B06A706B306FC
:100C800025E531E64DEC50E0BE0187E89CE00E948E
:100C9000980387E89CE0DF91CF911F910F91FF901F
:100CA000EF900C94F90325E539E54BE950E0BE01DE
:100CB00081E79CE00E94980381E79CE0ECCF29EB60
:100CC00030E849E250E0BE018BE59CE00E949803C9
:100CD0008BE59CE0E0CF2CE93CEB4AE150E0BE0123
:100CE00085E49CE00E94980385E49CE0D4CF21E752
:100CF0003CEC4EE250E0BE018FE29CE00E94980383
:100D00008FE29CE0C8CF21E73CEC4EE250E0BE0110
:100D100089E19CE00E94980389E19CE0BCCF2CE92A
:100D20003CEB4AE150E0BE0183E09CE00E94980366
:100D300083E09CE0B0CF29EB30E849E250E0BE010F
:100D40008DEE9BE00E9498038DEE9BE0A4CF26EBF6
:100D500039E54BE950E0BE0187ED9BE00E94980326
:100D600087ED9BE098CF25E531E64DEC50E0BE01E4
:100D700081EC9BE00E94980381EC9BE08CCF2F924A
:100D80003F924F925F926F927F928F929F92AF921B
:100D9000BF92CF92DF92EF92FF920F931F93CF9368
:100DA000DF93CDB7DEB7CD5BDD400FB6F894DEBF85
:100DB0000FBECDBF7C0188E7EAE0F2E0DE011196CC
:100DC00001900D928A95E1F788E7E2E8F2E0DE0112
:100DD000A758BF4F01900D928A95E1F74E0121EF80
:100DE000820E911C28E7D401E22F1D92EA95E9F7C3
:100DF00081E090E0D4011F969C938E931E975196AC
:100E00009C938E93509753969C938E93529759969A
:100E10009C938E93589791969C938E9390979596CA
:100E20009C938E939497D1969C938E93D097DD96B6
:100E30009C938E93DC97C75CDE4F99838883C9535C
:100E4000D140CF5BDE4F99838883C154D140C95BC9
:100E5000DE4F99838883C754D140C75BDE4F9983A7
:100E60008883C954D140C55BDE4F99838883CB54B6
:100E7000D140EAEFF2E0A858BF4F322F01900D9217
:100E80003A95E1F7E2E7F3E0DE01AF51BE4F322FD2
:100E900001900D923A95E1F75E01B7EAAB1ABDEF0A
:100EA000BB0AF501322F11923A95E9F7D5011D964B
:100EB0009C938E931C971F969C938E931E9751968E
:100EC0009C938E93509753969C938E9352975596DE
:100ED0009C938E93549759969C938E93589795967E
:100EE0009C938E939497D1969C938E93D097D39600
:100EF0009C938E93D297D5969C938E93D497D796A6
:100F00009C938E93D697DD969C938E93DC97CF55CA
:100F1000DD4F99838883C15AD240C355DD4F9983F1
:100F20008883CD5AD240EAEEF3E0A858BF4F322F63
:100F300001900D923A95E1F7E2E6F4E0DE01A75B5D
:100F4000BC4F322F01900D923A95E1F7EAEDF4E0B3
:100F5000DE01AF53BC4F322F01900D923A95E1F76D
:100F6000FE01E75CFB4FDF01322F1D923A95E9F756
:100F70009587848797878687918B808B938B828BCD
:100F8000958B848B978F868F93A782A797AB86AB21
:100F9000C558DB4F99838883CB57D440C957DB4F63
:100FA00099838883C758D440C357DB4F998388837C
:100FB000CD58D440C157DB4F99838883CF58D44054
:100FC000CF56DB4F99838883C159D440E858FF4FEF
:100FD000DF01322F1D923A95E9F795878487938B2D
:100FE000828B918F808F958F848F95A384A397A3F5
:100FF00086A391AB80AB93AB82AB95AF84AFCF5060
:10100000DB4F99838883C15FD440C750DB4F9983FE
:101010008883C95FD440C150DB4F99838883CF5FF9
:10102000D440CB5FDA4F99838883C550D540C35FE6
:10103000DA4F99838883CD50D540E858FF4FDF01C0
:10104000322F1D923A95E9F795878487918F808F8B
:1010500095A384A391AB80AB95AF84AFCF58DA4F03
:1010600099838883C157D540C358DA4F99838883C1
:10107000CD57D540C158DA4F99838883CF57D54093
:10108000CF57DA4F99838883C158D540CD57DA4F6F
:1010900099838883C358D540CB57DA4F9983888387
:1010A000C558D540E2E5F5E0DE01AF55BA4F322F25
:1010B00001900D923A95E1F7EAECF5E0DE01A75ECA
:1010C000B94F322F01900D923A95E1F7E2E4F6E044
:1010D000DE01AF56B94F322F01900D923A95E1F7EC
:1010E000EAEBF6E0DE01A75FB84F322F01900D92D8
:1010F0003A95E1F7E2E3F7E0DE01AF57B84F322F60
:1011000001900D923A95E1F7EAEAF7E0DE01A75087
:10111000B84F322F01900D923A95E1F7E2E2F8E0F4
:10112000DE01AF58B74F322F01900D923A95E1F79B
:10113000FE01E751F74FDF01322F1D923A95E9F793
:101140009587848797878687918B808B938B828BFB
:10115000958B848B958F848F91A780A795AB84AB5B
:10116000C75DD64F99838883C952D940CB5CD64F8F
:1011700099838883C553D940CF5BD64F99838883A1
:10118000C154D940EAE9F8E0DE01AF59B64F322F39
:1011900001900D923A95E1F7FE01E752F64FDF011B
:1011A000322F1D923A95E9F795878487958B848B2A
:1011B000918F808F91A380A395A384A395A784A7E3
:1011C00091AB80AB91AF80AF97AF86AFC55ED54F87
:1011D00099838883CB51DA40CD5DD54F998388833D
:1011E000C352DA40C95DD54F99838883C752DA402C
:1011F000CF5CD54F99838883C153DA40E2E1F9E0AF
:10120000DE01AF5AB54F322F01900D923A95E1F7BA
:10121000FE01E753F54FDF01322F1D923A95E9F7B2
:1012200095878487958B848B918F808F91A380A3E2
:1012300097A386A393A782A795AB84AB97AF86AFFE
:10124000C55FD44F99838883CB50DB40CF5ED44FAA
:1012500099838883C151DB40C75ED44F99838883CB
:10126000C951DB40C35ED44F99838883CD51DB40A5
:10127000CB5DD44F99838883C552DB40E858FF4F3C
:10128000DF01322F1D923A95E9F795878487958B78
:10129000848B918F808F91A380A397A386A393A71C
:1012A00082A795AB84ABCF57D44F99838883C1581D
:1012B000DB40C357D44F99838883CD58DB40C75652
:1012C000D44F99838883C959DB40EAE8F9E0DE010D
:1012D000A754B44F322F01900D923A95E1F7FE01D9
:1012E000EF5CF34FDF01322F1D923A95E9F7E85892
:1012F000FF4FDF01322F1D923A95E9F793AB82AB96
:1013000095AB84AB97AB86AB91AF80AF97AF86AF11
:10131000C751D34F99838883C95EDC40C551D34FF1
:1013200099838883CB5EDC40C351D34F99838883F4
:10133000CD5EDC40E2E0FAE0DE01AF5DB24F01904D
:101340000D922A95E1F78FE89AE00E949605D12C3C
:10135000C12CD70114968D919C91C816D90608F01E
:1013600062C0B601C7010E947001FC012081422EBB
:10137000220F55086608770877FE36C06DE280ECCC
:101380009AE00E94180222273327A901241935095F
:1013900046095709C754D24F1882C95BDD4009E995
:1013A0001DE00C0F1D1F005E1F4FCA01B9012AE08E
:1013B00030E040E050E00E948917605DD8016E93F4
:1013C0008D01211531054105510579F701151105EB
:1013D00019F0C8010E9489058CE89AE00E948905ED
:1013E000FFEFCF1ADF0AB5CFA3019201C754D24F46
:1013F0001882C95BDD4009E91DE00C0F1D1F005E6E
:101400001F4FCA01B9012AE030E040E050E00E94DD
:101410008917605DF80162938F012115310541053F
:10142000510579F7D3CF10E000E0F6E0DF2ED701C9
:1014300014968D919C910817190710F00C948C123A
:10144000B801C7010E947001FC018081813614F44B
:101450000C948812B801C7010E947001DC018C91C4
:101460008B3714F00C948812B801C7010E947001E8
:10147000FC01808181360CF49AC1B801C7010E9439
:101480007001DC018C9187360CF091C1B801C70165
:101490000E947001FC0180818136E1F5D09EC0017F
:1014A000D19E900D11249E012F5F3F4F19014424BE
:1014B0004394512CAC014F5F5F4FC654D24F5983B8
:1014C0004883CA5BDD40712C612CF301EE0FFF1FD6
:1014D000E20DF31D80819181019759F4C654D24FDA
:1014E00068817981CA5BDD40660D771DC2010E946B
:1014F00008065FEF651A750A86E06816710429F719
:101500009FEF491A590AACE02A0E311CBBE04B167A
:101510005104C9F6B801C7010E947001FC01808125
:101520008236E1F5D09EC001D19E900D11249E011E
:1015300027583F4F190144244394512CAC014F5F6D
:101540005F4FC654D24F59834883CA5BDD40712C2C
:10155000612CF301EE0FFF1FE20DF31D80819181DD
:10156000019759F4C654D24F68817981CA5BDD4036
:10157000660D771DC2010E9408065FEF651A750AA5
:1015800086E06816710429F79FEF491A590AACE002
:101590002A0E311CBBE04B165104C9F6B801C70135
:1015A0000E947001FC0180818336C9F5D09EC00184
:1015B000D19E900D1124140144244394512C9C017C
:1015C0002F5F3F4FC654D24F39832883CA5BDD401B
:1015D000712C612CF301EE0FFF1FE20DF31D8081D2
:1015E0009181019759F4C654D24F68817981CA5BC1
:1015F000DD40660D771DC2010E9408063FEF631AA9
:10160000730A46E06416710429F75FEF451A550A1C
:101610008CE0280E311C9BE049165104C9F6B80134
:10162000C7010E947001DC018C918436E1F5D09EE7
:10163000C001D19E900D1124FE01E759FE4F1F01FC
:1016400044244394512C9C012F5F3F4FC654D24FEA
:1016500039832883CA5BDD40712C612CF301EE0FC6
:10166000FF1FE20DF31D80819181019759F4C6544B
:10167000D24F68817981CA5BDD40660D771DC2015A
:101680000E9408063FEF631A730A46E0641671046D
:1016900029F75FEF451A550A8CE0280E311C9BE0B4
:1016A00049165104C9F6B801C7010E947001DC0156
:1016B0008C918536E1F5D09EC001D19E900D11240C
:1016C000FE01EF51FE4F1F0144244394512C9C0115
:1016D0002F5F3F4FC654D24F39832883CA5BDD400A
:1016E000712C612CF301EE0FFF1FE20DF31D8081C1
:1016F0009181019759F4C654D24F68817981CA5BB0
:10170000DD40660D771DC2010E9408063FEF631A97
:10171000730A46E06416710429F75FEF451A550A0B
:101720008CE0280E311C9BE049165104C9F6B80123
:10173000C7010E947001DC018C918636C1F5D09EF4
:10174000C001D19E900D1124150144244394512CC5
:10175000FC013196C654D24FF983E883CA5BDD4061
:10176000712C612CF301EE0FFF1FE20DF31D808140
:101770009181019759F4C654D24F68817981CA5B2F
:10178000DD40660D771DC2010E940806FFEF6F1A4B
:101790007F0A26E06216710429F73FEF431A530AC5
:1017A0004CE0240E311C5BE045165104C9F6B8012B
:1017B000C7010E947001DC018C9187360CF4A1C135
:1017C000B801C7010E947001FC0180818D360CF0C8
:1017D00098C1B801C7010E947001DC018C91873665
:1017E000E1F5D09EC001D19E900D1124FE01EF5273
:1017F000FD4F1F0144244394512C9C012F5F3F4F08
:10180000C654D24F39832883CA5BDD40712C612CCA
:10181000F301EE0FFF1FE20DF31D8081918101970F
:1018200059F4C654D24F68817981CA5BDD40660D98
:10183000771DC2010E9408063FEF631A730A46E053
:101840006416710429F75FEF451A550A8CE0280EDB
:10185000311C9BE049165104C9F6B801C7010E942A
:101860007001DC018C918836E1F5D09EC001D19EDB
:10187000900D11241E01B7EB2B1ABCEF3B0A442438
:101880004394512CFC013196C654D24FF983E8831E
:10189000CA5BDD40712C612CF301EE0FFF1FE20DDE
:1018A000F31D80819181019759F4C654D24F68810C
:1018B0007981CA5BDD40660D771DC2010E94080672
:1018C000FFEF6F1A7F0A26E06216710429F73FEFD7
:1018D000431A530A4CE0240E311C5BE045165104B8
:1018E000C9F6B801C7010E947001DC018C918936EC
:1018F000E1F5D09EC001D19E900D11241E01BFE3E1
:101900002B1ABCEF3B0A44244394512CFC01319622
:10191000C654D24FF983E883CA5BDD40712C612C39
:10192000F301EE0FFF1FE20DF31D808191810197FE
:1019300059F4C654D24F68817981CA5BDD40660D87
:10194000771DC2010E940806FFEF6F1A7F0A26E08A
:101950006216710429F73FEF431A530A4CE0240E34
:10196000311C5BE045165104C9F6B801C7010E945D
:101970007001DC018C918A36E1F5D09EC001D19EC8
:10198000900D11241E01B7EC2B1ABBEF3B0A442427
:101990004394512CFC013196C654D24FF983E8830D
:1019A000CA5BDD40712C612CF301EE0FFF1FE20DCD
:1019B000F31D80819181019759F4C654D24F6881FB
:1019C0007981CA5BDD40660D771DC2010E94080661
:1019D000FFEF6F1A7F0A26E06216710429F73FEFC6
:1019E000431A530A4CE0240E311C5BE045165104A7
:1019F000C9F6B801C7010E947001DC018C918B36D9
:101A0000E1F5D09EC001D19E900D11241E01BFE4CE
:101A10002B1ABBEF3B0A44244394512CFC01319612
:101A2000C654D24FF983E883CA5BDD40712C612C28
:101A3000F301EE0FFF1FE20DF31D808191810197ED
:101A400059F4C654D24F68817981CA5BDD40660D76
:101A5000771DC2010E940806FFEF6F1A7F0A26E079
:101A60006216710429F73FEF431A530A4CE0240E23
:101A7000311C5BE045165104C9F6B801C7010E944C
:101A80007001DC018C918C36E1F5D09EC001D19EB5
:101A9000900D11241E01B7ED2B1ABAEF3B0A442416
:101AA0004394512CFC013196C654D24FF983E883FC
:101AB000CA5BDD40712C612CF301EE0FFF1FE20DBC
:101AC000F31D80819181019759F4C654D24F6881EA
:101AD0007981CA5BDD40660D771DC2010E94080650
:101AE000FFEF6F1A7F0A26E06216710429F73FEFB5
:101AF000431A530A4CE0240E311C5BE04516510496
:101B0000C9F6B801C7010E947001DC018C918D36C5
:101B10000CF4A1C1B801C7010E947001FC018081D1
:101B200083370CF098C1B801C7010E947001DC0135
:101B30008C918D36E1F5D09EC001D19E900D11247F
:101B40001E01BFE52B1ABAEF3B0A44244394512CE3
:101B5000FC013196C654D24FF983E883CA5BDD405D
:101B6000712C612CF301EE0FFF1FE20DF31D80813C
:101B70009181019759F4C654D24F68817981CA5B2B
:101B8000DD40660D771DC2010E940806FFEF6F1A47
:101B90007F0A26E06216710429F73FEF431A530AC1
:101BA0004CE0240E311C5BE045165104C9F6B80127
:101BB000C7010E947001DC018C918E36E1F5D09E48
:101BC000C001D19E900D11241E01B7EE2B1AB9EF62
:101BD0003B0A44244394512CFC013196C654D24F05
:101BE000F983E883CA5BDD40712C612CF301EE0FB1
:101BF000FF1FE20DF31D80819181019759F4C654B6
:101C0000D24F68817981CA5BDD40660D771DC201C4
:101C10000E940806FFEF6F1A7F0A26E06216710421
:101C200029F73FEF431A530A4CE0240E311C5BE0C6
:101C300045165104C9F6B801C7010E947001DC01C4
:101C40008C918F36E1F5D09EC001D19E900D11246C
:101C50001E01BFE62B1AB9EF3B0A44244394512CD2
:101C6000FC013196C654D24FF983E883CA5BDD404C
:101C7000712C612CF301EE0FFF1FE20DF31D80812B
:101C80009181019759F4C654D24F68817981CA5B1A
:101C9000DD40660D771DC2010E940806FFEF6F1A36
:101CA0007F0A26E06216710429F73FEF431A530AB0
:101CB0004CE0240E311C5BE045165104C9F6B80116
:101CC000C7010E947001DC018C918037E1F5D09E44
:101CD000C001D19E900D11241E01B7EF2B1AB8EF51
:101CE0003B0A44244394512CFC013196C654D24FF4
:101CF000F983E883CA5BDD40712C612CF301EE0FA0
:101D0000FF1FE20DF31D80819181019759F4C654A4
:101D1000D24F68817981CA5BDD40660D771DC201B3
:101D20000E940806FFEF6F1A7F0A26E06216710410
:101D300029F73FEF431A530A4CE0240E311C5BE0B5
:101D400045165104C9F6B801C7010E947001DC01B3
:101D50008C918137E1F5D09EC001D19E900D112468
:101D60001E01BFE72B1AB8EF3B0A44244394512CC1
:101D7000FC013196C654D24FF983E883CA5BDD403B
:101D8000712C612CF301EE0FFF1FE20DF31D80811A
:101D90009181019759F4C654D24F68817981CA5B09
:101DA000DD40660D771DC2010E940806FFEF6F1A25
:101DB0007F0A26E06216710429F73FEF431A530A9F
:101DC0004CE0240E311C5BE045165104C9F6B80105
:101DD000C7010E947001DC018C918237E1F5D09E31
:101DE000C001D19E900D11241E01B7E02B1AB8EF4F
:101DF0003B0A44244394512CFC013196C654D24FE3
:101E0000F983E883CA5BDD40712C612CF301EE0F8E
:101E1000FF1FE20DF31D80819181019759F4C65493
:101E2000D24F68817981CA5BDD40660D771DC201A2
:101E30000E940806FFEF6F1A7F0A26E062167104FF
:101E400029F73FEF431A530A4CE0240E311C5BE0A4
:101E500045165104C9F6B801C7010E947001DC01A2
:101E60008C9183370CF429C2B801C7010E9470011C
:101E7000FC0180818B370CF020C2B801C7010E94A1
:101E80007001DC018C918337E1F5D09EC001D19EB9
:101E9000900D11241E01BFE82B1AB7EF3B0A442412
:101EA0004394512CFC013196C654D24FF983E883F8
:101EB000CA5BDD40712C612CF301EE0FFF1FE20DB8
:101EC000F31D80819181019759F4C654D24F6881E6
:101ED0007981CA5BDD40660D771DC2010E9408064C
:101EE000FFEF6F1A7F0A26E06216710429F73FEFB1
:101EF000431A530A4CE0240E311C5BE04516510492
:101F0000C9F6B801C7010E947001DC018C918437C9
:101F1000E1F5D09EC001D19E900D11241E01B7E1C4
:101F20002B1AB7EF3B0A44244394512CFC01319601
:101F3000C654D24FF983E883CA5BDD40712C612C13
:101F4000F301EE0FFF1FE20DF31D808191810197D8
:101F500059F4C654D24F68817981CA5BDD40660D61
:101F6000771DC2010E940806FFEF6F1A7F0A26E064
:101F70006216710429F73FEF431A530A4CE0240E0E
:101F8000311C5BE045165104C9F6B801C7010E9437
:101F90007001DC018C918537E1F5D09EC001D19EA6
:101FA000900D11241E01BFE92B1AB6EF3B0A442401
:101FB0004394512CFC013196C654D24FF983E883E7
:101FC000CA5BDD40712C612CF301EE0FFF1FE20DA7
:101FD000F31D80819181019759F4C654D24F6881D5
:101FE0007981CA5BDD40660D771DC2010E9408063B
:101FF000FFEF6F1A7F0A26E06216710429F73FEFA0
:10200000431A530A4CE0240E311C5BE04516510480
:10201000C9F6B801C7010E947001DC018C918637B6
:10202000E1F5D09EC001D19E900D11241E01B7E2B2
:102030002B1AB6EF3B0A44244394512CFC013196F1
:10204000C654D24FF983E883CA5BDD40712C612C02
:10205000F301EE0FFF1FE20DF31D808191810197C7
:1020600059F4C654D24F68817981CA5BDD40660D50
:10207000771DC2010E940806FFEF6F1A7F0A26E053
:102080006216710429F73FEF431A530A4CE0240EFD
:10209000311C5BE045165104C9F6B801C7010E9426
:1020A0007001DC018C918737E1F5D09EC001D19E93
:1020B000900D11241E01BFEA2B1AB5EF3B0A4424F0
:1020C0004394512CFC013196C654D24FF983E883D6
:1020D000CA5BDD40712C612CF301EE0FFF1FE20D96
:1020E000F31D80819181019759F4C654D24F6881C4
:1020F0007981CA5BDD40660D771DC2010E9408062A
:10210000FFEF6F1A7F0A26E06216710429F73FEF8E
:10211000431A530A4CE0240E311C5BE0451651046F
:10212000C9F6B801C7010E947001DC018C918837A3
:10213000E1F5D09EC001D19E900D11241E01B7E3A0
:102140002B1AB5EF3B0A44244394512CFC013196E1
:10215000C654D24FF983E883CA5BDD40712C612CF1
:10216000F301EE0FFF1FE20DF31D808191810197B6
:1021700059F4C654D24F68817981CA5BDD40660D3F
:10218000771DC2010E940806FFEF6F1A7F0A26E042
:102190006216710429F73FEF431A530A4CE0240EEC
:1021A000311C5BE045165104C9F6B801C7010E9415
:1021B0007001DC018C918937E1F5D09EC001D19E80
:1021C000900D11241E01BFEB2B1AB4EF3B0A4424DF
:1021D0004394512CFC013196C654D24FF983E883C5
:1021E000CA5BDD40712C612CF301EE0FFF1FE20D85
:1021F000F31D80819181019759F4C654D24F6881B3
:102200007981CA5BDD40660D771DC2010E94080618
:10221000FFEF6F1A7F0A26E06216710429F73FEF7D
:10222000431A530A4CE0240E311C5BE0451651045E
:10223000C9F6B801C7010E947001DC018C918A3790
:10224000E1F5D09EC001D19E900D11241E01B7E48E
:102250002B1AB4EF3B0A44244394512CFC013196D1
:10226000C654D24FF983E883CA5BDD40712C612CE0
:10227000F301EE0FFF1FE20DF31D808191810197A5
:1022800059F4C654D24F68817981CA5BDD40660D2E
:10229000771DC2010E940806FFEF6F1A7F0A26E031
:1022A0006216710429F73FEF431A530A4CE0240EDB
:1022B000311C5BE045165104C9F6B801C7010E9404
:1022C0007001DC018C91803209F0CFC0B801C701E8
:1022D0000E947001FC0180818032E9F5D09EC0012E
:1022E000D19E900D11241E01FFEC2F1AF3EF3F0A2F
:1022F00044244394512C9C012F5F3F4FC654D24F2E
:1023000039832883CA5BDD40712C612CF301EE0F09
:10231000FF1FE20DF31D80819181019759F4C6548E
:10232000D24F68817981CA5BDD40660D771DC2019D
:102330000E9408063FEF631A730A46E064167104B0
:1023400029F75FEF451A550A8CE0280E311C9BE0F7
:1023500049165104C9F6B801C7010E947001DC0199
:102360008C918D32E1F5D09EC001D19E900D11244B
:102370001E01B7E52B1AB3EF3B0A44244394512CBA
:10238000FC013196C654D24FF983E883CA5BDD4025
:10239000712C612CF301EE0FFF1FE20DF31D808104
:1023A0009181019759F4C654D24F68817981CA5BF3
:1023B000DD40660D771DC2010E940806FFEF6F1A0F
:1023C0007F0A26E06216710429F73FEF431A530A89
:1023D0004CE0240E311C5BE045165104C9F6B801EF
:1023E000C7010E947001DC018C91833209F04FC05B
:1023F000D09EC001D19E900D11241E01BFED2B1A5D
:10240000B2EF3B0A44244394512CFC013196C6544C
:10241000D24FF983E883CA5BDD40712C612CF30154
:10242000EE0FFF1FE20DF31D80819181019759F49A
:10243000C654D24F68817981CA5BDD40660D771D35
:10244000C2010E940806FFEF6F1A7F0A26E062169B
:10245000710429F73FEF431A530A4CE0240E311C54
:102460005BE045165104C9F612C0B801C7010E94CD
:102470007001DC018C91833209F428CFB801C701C7
:102480000E947001FC0180818D3209F41FCF0E94EF
:102490007303C654D24F688379838A839B83CA5B54
:1024A000DD4084EF482E55245394612C712C0E94FA
:1024B0007303C654D24F288139814A815B81CA5B3C
:1024C000DD40621B730B840B950B683E73408105E6
:1024D000910568F381E0481A510861087108C654F3
:1024E000D24F288139814A815B81CA5BDD40285106
:1024F0003C4F4F4F5F4FC654D24F288339834A8396
:102500005B83CA5BDD40411451046104710479F6B8
:102510000F5F1F4F0C94170AC354D24F0FB6F89495
:10252000DEBF0FBECDBFDF91CF911F910F91FF9006
:10253000EF90DF90CF90BF90AF909F908F907F9063
:102540006F905F904F903F902F9008951F920F9241
:102550000FB60F9211240BB60F922F933F934F9308
:102560005F936F937F938F939F93AF93BF93EF93FB
:10257000FF9380EC9AE00E94F601FF91EF91BF91EA
:10258000AF919F918F917F916F915F914F913F910B
:102590002F910F900BBE0F900FBE0F901F901895AC
:1025A0001F920F920FB60F9211240BB60F922F931A
:1025B0008F939F93EF93FF93E091D00AF091D10A0C
:1025C0008081E091D60AF091D70A82FD1DC09081EA
:1025D0008091D90A8F5F8F732091DA0A821741F0B8
:1025E000E091D90AF0E0E054F54F958F8093D90A35
:1025F000FF91EF919F918F912F910F900BBE0F90B4
:102600000FBE0F901F9018958081F2CF1F920F92EE
:102610000FB60F9211242F933F938F939F93AF93F5
:10262000BF938091B70A9091B80AA091B90AB0916E
:10263000BA0A3091B60A23E0230F2D3758F50196D8
:10264000A11DB11D2093B60A8093B70A9093B80AD2
:10265000A093B90AB093BA0A8091BB0A9091BC0AC0
:10266000A091BD0AB091BE0A0196A11DB11D809333
:10267000BB0A9093BC0AA093BD0AB093BE0ABF9157
:10268000AF919F918F913F912F910F900FBE0F901F
:102690001F90189526E8230F0296A11DB11DD2CFD9
:1026A0000F931F93CF93DF93EC01162F072F1982FF
:1026B00018861F86188A198A1A8A81E08E878B8766
:1026C0001C8692E09D87888380E690E09D838C83C2
:1026D0000E94C2179A878987009779F120E6FC014A
:1026E00011922A95E9F780E290E09B838A831E830A
:1026F0000F838981882341F061E0812F0E9442038A
:1027000060E0812F0E94B602812F902FFC01E05DD6
:10271000FD4FE491F0E0EE0FFF1FEA5EFD4F2591C3
:1027200034913C8B2B8BFC01E053FE4FE491ED8BFD
:10273000DF91CF911F910F9108951D821C821B8202
:102740001A82D5CFCF93DF931092C30A1092C20A98
:1027500088EE93E0A0E0B0E08093C40A9093C50AAD
:10276000A093C60AB093C70A8EE79AE09093C10A75
:102770008093C00A85EC90E09093CD0A8093CC0AB8
:1027800084EC90E09093CF0A8093CE0A80EC90E0A6
:102790009093D10A8093D00A81EC90E09093D30A71
:1027A0008093D20A82EC90E09093D50A8093D40A69
:1027B00086EC90E09093D70A8093D60A1092D90ABB
:1027C0001092DA0A1092DB0A1092DC0A6DE070E0D7
:1027D00087E89CE00E9450136CE070E081E79CE089
:1027E0000E9450136BE070E08BE59CE00E94501358
:1027F0006AE070E085E49CE00E94501369E070E0BC
:102800008FE29CE00E94501368E070E089E19CE058
:102810000E94501367E070E083E09CE00E94501338
:1028200066E070E08DEE9BE00E94501365E070E082
:1028300087ED9BE00E94501364E070E081EC9BE028
:102840000E945013C8E1D0E0D093BA0BC093B90BEB
:1028500086E190E09093BC0B8093BB0B87E190E006
:102860009093BE0B8093BD0B83E090E09093C00BE0
:102870008093BF0B61E088E10E94420361E0809198
:10288000BB0B0E94420361E08091BD0B0E9442039A
:1028900061E08091BD0B0E94B602D093BA0BC09349
:1028A000B90BE9E7FBE089EB9BE011928E179F07DC
:1028B000E1F7D0E0C0E08091BF0B9091C00BC8174A
:1028C000D9073CF540E06FE0CE010E94DE04809124
:1028D000BF0B9091C00BC817D9072CF447E06BE0F1
:1028E000CE010E94DE0440E069E0CE010E94DE04D9
:1028F000CE010E943C058091BF0B9091C00BC81780
:10290000D9072CF440E06CE0CE010E94DE04219651
:10291000D2CF1092640B1092630B1092660B109240
:10292000650B1092680B1092670B50E040E06EE868
:102930007AE083E69BE00E94DD0510925E0B109228
:102940005D0B1092600B10925F0B1092620B109255
:10295000610B50E040E06EE87AE08DE59BE0DF91AE
:10296000CF910C94DD05CF93DF9300D000D0CDB78D
:10297000DEB7789484B5826084BD84B5816084BDFF
:1029800085B5826085BD85B5816085BD80916E000D
:10299000816080936E00109281008091810082603E
:1029A000809381008091810081608093810080917B
:1029B00080008160809380008091B100846080936A
:1029C000B1008091B00081608093B000809191004F
:1029D000826080939100809191008160809391004A
:1029E000809190008160809390008091A10082602E
:1029F0008093A1008091A10081608093A1008091CB
:102A0000A00081608093A00080912101826080936A
:102A10002101809121018160809321018091200119
:102A200081608093200180917A00846080937A0095
:102A300080917A00826080937A0080917A00816030
:102A400080937A0080917A00806880937A00109257
:102A5000C10087E89CE00E94CB0481E79CE00E94D3
:102A6000CB048BE59CE00E94CB0485E49CE00E94B3
:102A7000CB048FE29CE00E94CB0489E19CE00E94A1
:102A8000CB0483E09CE00E94CB048DEE9BE00E948F
:102A9000CB0487ED9BE00E94CB0481EC9BE00E947D
:102AA000CB04E091D00AF091D10A82E08083E091DA
:102AB000CC0AF091CD0A1082E091CE0AF091CF0AB3
:102AC0008FEC80831092D80AE091D40AF091D50A55
:102AD00086E08083E091D20AF091D30A8081806100
:102AE0008083E091D20AF091D30A8081886080834C
:102AF000E091D20AF091D30A808180688083E091CE
:102B0000D20AF091D30A80818F7D808388E99AE090
:102B10000E9496058091BF0B9091C00B1816190664
:102B200034F441E06CE090E080E00E94DE048091AB
:102B3000BF0B9091C00B029734F041E06CE081E054
:102B400090E00E94DE048091BF0B9091C00B039730
:102B500034F041E06CE082E090E00E94DE0480917D
:102B6000BF0B9091C00B1816190634F448E06AE0C8
:102B700090E080E00E94DE048091BF0B9091C00B3A
:102B8000029734F048E06AE081E090E00E94DE04C1
:102B90008091BF0B9091C00B039734F048E06AE03E
:102BA00082E090E00E94DE0490E080E00E943C051C
:102BB00081E090E00E943C0582E090E00E943C05AC
:102BC00087E89CE00E94A40581E79CE00E94A405A0
:102BD0008BE59CE00E94A40585E49CE00E94A4058E
:102BE0008FE29CE00E94A40589E19CE00E94A4057C
:102BF00083E09CE00E94A4058DEE9BE00E94A4056A
:102C000087ED9BE00E94A40581EC9BE00E94A40557
:102C100080EC9AE00E94E0011816190644F450E096
:102C200040E06EE87AE083E69BE00E94DD0580EC00
:102C30009AE00E94E001181619065CF588EA9AE00D
:102C40000E94960580EC9AE00E94BE0189831A8258
:102C50000091670B1091680B0F5F1F4FB80183E65F
:102C60009BE00E94B505882311F32091630B3091FE
:102C7000640B8091670B9091680BBE016F5F7F4F73
:102C8000820F931F0E94D8191093680B0093670B53
:102C9000CECF80EC9AE00E94E00118161906ECF005
:102CA0001A8219821C821B821E821D826091630B14
:102CB0007091640B6115710541F04091670B509163
:102CC000680BCE0101960E94DD05CE0101960E949F
:102CD000BF06CE0101960E94AD050E94850270CF0D
:102CE000CF93DF93EC0189859A850E945E188E81CF
:102CF0009F8197FD05C060E0DF91CF910C94420366
:102D0000DF91CF9108958DE59BE00E94AD0583E6AC
:102D10009BE00E94AD0581EC9BE00E94701687ED60
:102D20009BE00E9470168DEE9BE00E94701683E07F
:102D30009CE00E94701689E19CE00E9470168FE270
:102D40009CE00E94701685E49CE00E9470168BE562
:102D50009CE00E94701681E79CE00E94701687E854
:102D60009CE00C9470168F929F92AF92BF92CF927C
:102D7000DF92EF92FF92CF93DF93EC01688179812C
:102D80008A819B81611571058105910521F464E2B9
:102D900079ED8BE597E02DE133EF41E050E00E94C3
:102DA000571749015A019B01AC01A7EAB1E40E94FF
:102DB00076176B017C01ACEEB4EFA50194010E9483
:102DC0008417C60ED71EE81EF91EF7FE06C081E066
:102DD000C81AD108E10880E8F80AC882D982EA82D4
:102DE000FB82C701B6019F77DF91CF91FF90EF90F3
:102DF000DF90CF90BF90AF909F908F9008958F926B
:102E00009F92AF92BF92CF92DF92EF92FF9260912A
:102E100000027091010280910202909103026115FB
:102E200071058105910521F464E279ED8BE597E068
:102E30002DE133EF41E050E00E94571749015A015C
:102E40009B01AC01A7EAB1E40E9476176B017C01FB
:102E5000ACEEB4EFA50194010E948417C60ED71EF4
:102E6000E81EF91EF7FE06C081E0C81AD108E10885
:102E700080E8F80AC0920002D0920102E0920202B9
:102E8000F0920302C701B6019F77FF90EF90DF90A9
:102E9000CF90BF90AF909F908F9008956093000265
:102EA0007093010280930202909303020895052E0D
:102EB00097FB1EF400940E946E1757FD07D00E94E6
:102EC000891707FC03D04EF40C946E17509540956B
:102ED000309521953F4F4F4F5F4F089590958095C6
:102EE000709561957F4F8F4F9F4F08950E94AB174C
:102EF000A59F900DB49F900DA49F800D911D11244E
:102F00000895B7FF0C9476170E947617821B930BD7
:102F10000895A1E21A2EAA1BBB1BFD010DC0AA1F1A
:102F2000BB1FEE1FFF1FA217B307E407F50720F032
:102F3000A21BB30BE40BF50B661F771F881F991FAD
:102F40001A9469F760957095809590959B01AC01F6
:102F5000BD01CF010895A29FB001B39FC001A39FFF
:102F6000700D811D1124911DB29F700D811D1124C2
:102F7000911D0895EE0FFF1F881F8BBF0790F691DC
:102F8000E02D19940F931F93CF93DF938230910517
:102F900010F482E090E0E0919F0CF091A00C30E002
:102FA00020E0B0E0A0E0309799F42115310509F454
:102FB0004AC0281B390B24303105D8F58A819B8102
:102FC0006115710589F1FB0193838283FE0111C0B4
:102FD000408151810281138148175907E0F0481759
:102FE000590799F4109761F012960C931297139663
:102FF0001C933296CF01DF91CF911F910F910895CD
:1030000000939F0C1093A00CF4CF2115310551F0C3
:103010004217530738F0A901DB019A01BD01DF0116
:10302000F801C1CFEF01F9CF9093A00C80939F0CD2
:10303000CDCFFE01E20FF31F81939193225031090E
:1030400039832883D7CF20919D0C30919E0C232B60
:1030500041F4209106023091070230939E0C209398
:103060009D0C20910402309105022115310541F497
:103070002DB73EB74091080250910902241B350B31
:10308000E0919D0CF0919E0CE217F307A0F42E1B2B
:103090003F0B2817390778F0AC014E5F5F4F2417BC
:1030A000350748F04E0F5F1F50939E0C40939D0CC8
:1030B000819391939FCFF0E0E0E09CCFCF93DF939B
:1030C0000097E9F0FC01329713821282A0919F0CC5
:1030D000B091A00CED0130E020E01097A1F4208128
:1030E0003181820F931F20919D0C30919E0C2817E7
:1030F000390709F061C0F0939E0CE0939D0CDF91BD
:10310000CF910895EA01CE17DF07E8F54A815B8188
:103110009E0141155105B1F7E901FB83EA8349910D
:103120005991C40FD51FEC17FD0761F4808191817F
:103130000296840F951FE901998388838281938188
:103140009B838A83F0E0E0E012968D919C91139727
:103150000097B9F52D913C911197CD010296820F00
:10316000931F20919D0C30919E0C2817390739F63A
:10317000309751F51092A00C10929F0CB0939E0CBA
:10318000A0939D0CBCCFD383C28340815181840F17
:10319000951FC817D90761F44E5F5F4F88819981E9
:1031A000480F591F518340838A819B819383828377
:1031B0002115310509F0B0CFF093A00CE0939F0CDE
:1031C0009ECFFD01DC01C0CF13821282D7CF4F9278
:1031D0005F926F927F928F929F92AF92BF92CF92A7
:1031E000DF92EF92FF920F931F93CF93DF938C01A7
:1031F000009799F4CB01DF91CF911F910F91FF9030
:10320000EF90DF90CF90BF90AF909F908F907F9086
:103210006F905F904F900C94C217FC01E60FF71F60
:103220009C0122503109E217F30708F4AEC0D9011E
:10323000CD91DC911197C617D70720F1C530D10584
:1032400078F0CE0104978617970750F0C61BD70B6E
:103250002297C193D1936D937C93CF010E945E1806
:10326000C801DF91CF911F910F91FF90EF90DF90F8
:10327000CF90BF90AF909F908F907F906F905F9016
:103280004F9008955B01AC1ABD0A4C018C0E9D1E37
:10329000A0919F0CB091A00C512C412CF12CE12C51
:1032A000109731F580919D0C90919E0C8815990591
:1032B00009F05CC04616570608F058C08091040219
:1032C00090910502009741F48DB79EB74091080296
:1032D00050910902841B950BE817F90708F055C0B7
:1032E000F0939E0CE0939D0CF90171836083B8CF3D
:1032F0008D919C91119712966C90129713967C90D9
:103300001397A815B90559F56C0142E0C40ED11CFC
:10331000CA14DB0420F1AC014A195B09DA011296E8
:10332000159780F06282738251834083D9016D9337
:103330007C93E114F10471F0D7011396FC93EE93A2
:1033400012978ECF22968C0F9D1FF9019183808357
:10335000F301EFCFF093A00CE0939F0C81CF4816C0
:10336000590608F42C017D01D3019ACFCB010E94AC
:10337000C2177C01009749F0AE01B8010E94C8193C
:10338000C8010E945E1887016BCF10E000E068CF93
:10339000FB01DC0102C001900D9241505040D8F772
:1033A0000895DC0101C06D9341505040E0F708954D
:1033B000FB01DC0101900D920020E1F7089511E07E
:1033C000CCE3D1E000E006C0802FFE010E94BA17D6
:1033D0002196011DCD33D10780E00807A9F7F894A5
:1033E000FFCF010000000000A10C800000000000E1
:1033F00000000000000000000000010001000100CA
:1034000000000000010000000000000001000000BA
:1034100001000000000000000100000001000100A8
:103420000100010001000000010000000000000098
:103430000100000001000000000000000100000089
:10344000010000000000000001000000000000007A
:10345000000000000000000000000000000000006C
:10346000000000000000000000000000000000005C
:103470000100010001000100000000000100000047
:10348000000000000100000001000000000000003A
:103490000100000001000100010001000000000027
:1034A0000100000000000000010000000100000019
:1034B0000000000001000000010001000100010007
:1034C00000000000000000000000000000000000FC
:1034D00000000000000000000000000000000000EC
:1034E00000000000000000000100010001000100D8
:1034F00000000000010000000000000001000000CA
:1035000001000000000000000100000001000000B8
:1035100000000000010000000100000000000000A9
:103520000100000001000000000000000100000098
:103530000100010001000100000000000000000087
:10354000000000000000000000000000000000007B
:10355000000000000000000000000000000000006B
:103560000100010001000100010000000100000055
:10357000000000000000000001000000000000004A
:103580000000000001000100010001000000000037
:103590000100000000000000000000000100000029
:1035A0000000000000000000010001000100010017
:1035B000010000000000000000000000000000000A
:1035C00000000000000000000000000000000000FB
:1035D00000000000000000000000010001000100E8
:1035E00000000000010000000000000001000000D9
:1035F00001000000000000000000000001000000C9
:1036000000000000000000000100000001000100B7
:1036100001000000010000000000000001000000A7
:103620000000010001000100000000000000000097
:10363000000000000000000000000000000000008A
:10364000000000000000000000000000000000007A
:103650000100000000000000010000000100000067
:103660000000000001000000010000000000000058
:103670000100000001000100010001000100000044
:103680000100000000000000010000000100000037
:103690000000000001000000010000000000000028
:1036A0000100000000000000000000000000000019
:1036B000000000000000000000000000000000000A
:1036C00000000000000000000100010001000100F6
:1036D00001000000000000000100000000000000E8
:1036E00000000000010000000000000000000000D9
:1036F00001000000000000000000000001000000C8
:1037000000000000000000000100000000000000B8
:1037100001000100010001000100000000000000A4
:103720000000000000000000000000000000000099
:103730000000000000000000000000000000000089
:103740000100000000000000010000000100010075
:103750000000010001000000010000000100000065
:103760000100000001000000000000000100000056
:103770000100000000000000010000000100000046
:103780000000000001000000010000000000000037
:103790000100000000000000000000000000000028
:1037A0000000000000000000000000000000000019
:1037B0000000000000000000010000000000000008
:1037C00001000000010001000000000001000000F5
:1037D00001000000010000000100000001000000E5
:1037E00000000100010000000100000000000100D5
:1037F00001000000010000000000000001000000C6
:1038000001000000000000000100000000000000B6
:1038100000000000000000000000000000000000A8
:103820000000000000000000000000000000000098
:103830000000010001000100000000000100000084
:103840000000000001000000010000000000000076
:103850000100000001000000000000000100000065
:103860000100000000000000010000000100000055
:103870000000000001000000000001000100010044
:103880000000000000000000000000000000000038
:103890000000000000000000000000000000000028
:1038A0000000000000000000010001000100010014
:1038B0000000000001000000000000000100000006
:1038C00001000000000000000100000001000100F4
:1038D00001000100000000000100000000000000E5
:1038E00000000000010000000000000000000000D7
:1038F00001000000000000000000000000000000C7
:1039000000000000000000000000000000000000B7
:1039100000000000000000000000000000000000A7
:103920000000010001000100000000000100000093
:103930000000000001000000010000000000000085
:103940000100000001000000000000000100000074
:103950000100000000000000010000000100000064
:103960000000000001000000000001000100010053
:103970000000000000000000000000000100000046
:103980000000000000000000000000000000000037
:103990000000000000000000010001000100010023
:1039A0000000000001000000000000000100000015
:1039B0000100000000000000010000000100010003
:1039C00001000100000000000100000001000000F3
:1039D00000000000010000000000010000000000E5
:1039E00001000000000000000100000000000000D5
:1039F00000000000000000000000000000000000C7
:103A000000000000000000000000000000000000B6
:103A100000000100010001000100000001000000A1
:103A20000000000000000000010000000000000095
:103A30000000000000000100010001000000000083
:103A40000000000000000000010000000000000075
:103A50000000000001000000010001000100010061
:103A60000000000000000000000000000000000056
:103A70000000000000000000000000000000000046
:103A80000000000000000000010000000000000035
:103A90000100000001000000000000000100000023
:103AA0000100000000000000010000000100000013
:103AB0000000000001000000010000000000000004
:103AC00001000000010000000000000001000000F3
:103AD00000000100010001000000000000000000E3
:103AE00000000000000000000000000000000000D6
:103AF00000000000000000000000000000000000C6
:103B000001000000000000000100000001000000B2
:103B100000000000010000000100000000000000A3
:103B20000100000001000000000000000100000092
:103B30000100000001000000010000000100000081
:103B40000100000001000000000001000000010071
:103B50000000000000000000000000000000000065
:103B60000000000000000000000000000000000055
:103B70000000000000000000010001000100010041
:103B80000100000000000000000000000100000033
:103B90000000000000000100000000000000000024
:103BA0000100000000000000000001000000000013
:103BB0000000000001000000000000000000000004
:103BC00001000100010001000100000000000000F0
:103BD00000000000000000000000000000000000E5
:103BE00000000000000000000000000000000000D5
:103BF00000000000000000000000000000000100C4
:103C000000000000010000000100010001000100AF
:103C100001000100000001000000000001000000A0
:103C20000000010000000000010000000100010090
:103C3000010001000100010000000100000000007F
:103C40000100000000000000000000000000000073
:103C50000000000000000000000000000000000064
:103C600018028201AF016502E001BE01D2010D0A16
:103C700000546F204C6F7765720053657475702027
:103C80005465726D696E61646F004461746F207277
:083C90006563696269646F005D
:020000040003F7
:10E000000D9489F10D94B2F10D94B2F10D94B2F129
:10E010000D94B2F10D94B2F10D94B2F10D94B2F1F0
:10E020000D94B2F10D94B2F10D94B2F10D94B2F1E0
:10E030000D94B2F10D94B2F10D94B2F10D94B2F1D0
:10E040000D94B2F10D94B2F10D94B2F10D94B2F1C0
:10E050000D94B2F10D94B2F10D94B2F10D94B2F1B0
:10E060000D94B2F10D94B2F10D94B2F10D94B2F1A0
:10E070000D94B2F10D94B2F10D94B2F10D94B2F190
:10E080000D94B2F10D94B2F10D94B2F10D94B2F180
:10E090000D94B2F10D94B2F10D94B2F10D94B2F170
:10E0A0000D94B2F10D94B2F10D94B2F10D94B2F160
:10E0B0000D94B2F10D94B2F10D94B2F10D94B2F150
:10E0C0000D94B2F10D94B2F10D94B2F10D94B2F140
:10E0D0000D94B2F10D94B2F10D94B2F10D94B2F130
:10E0E0000D94B2F141546D656761323536300041AF
:10E0F000726475696E6F206578706C6F72657220DE
:10E1000073746B3530305632206279204D4C530099
:10E11000426F6F746C6F616465723E004875683F52
:10E1200000436F6D70696C6564206F6E203D200048
:10E130004350552054797065202020203D20005FF9
:10E140005F4156525F415243485F5F3D2000415658
:10E1500052204C696243205665723D20004743437C
:10E160002056657273696F6E203D20004350552024
:10E1700049442020202020203D20004C6F7720663D
:10E18000757365202020203D20004869676820665F
:10E190007573652020203D200045787420667573D6
:10E1A00065202020203D20004C6F636B2066757336
:10E1B000652020203D20004D617220203720323024
:10E1C000313300312E362E3800342E332E350056A2
:10E1D00023202020414444522020206F7020636F70
:10E1E00064652020202020696E73747275637469E1
:10E1F0006F6E2061646472202020496E74657272B3
:10E20000757074006E6F20766563746F7200726A49
:10E210006D702020006A6D70200057686174207056
:10E220006F72743A00506F7274206E6F7420737541
:10E2300070706F72746564004D7573742062652030
:10E2400061206C6574746572002000577269747483
:10E25000696E672045450052656164696E672045B7
:10E26000450045452065727220636E743D00504F35
:10E27000525400303D5A65726F2061646472003FF1
:10E280003D43505520737461747300403D454550C3
:10E29000524F4D207465737400423D426C696E6B41
:10E2A000204C454400453D44756D70204545505215
:10E2B0004F4D00463D44756D7020464C415348001B
:10E2C000483D48656C70004C3D4C69737420492F83
:10E2D0004F20506F72747300513D51756974005234
:10E2E0003D44756D702052414D00563D73686F7707
:10E2F00020696E7465727275707420566563746FF0
:10E30000727300593D506F727420626C696E6B00BD
:10E310002A0011241FBECFEFD1E2DEBFCDBF01E046
:10E320000CBF12E0A0E0B2E0EEE1FDEF03E00BBFB6
:10E3300002C007900D92A030B107D9F712E0A0E01B
:10E34000B2E001C01D92AE30B107E1F70F9460F367
:10E350000D948DFE01E20EBF0FEF0DBF11241FBE05
:10E360000D9460F30D9400F020E030E040ED57E0B4
:10E3700005C0FA013197F1F72F5F3F4F2817390792
:10E38000C0F308959C01260F311DC901A0E0B0E043
:10E390002F5F3F4FABBFFC018791882361F08093D3
:10E3A000C6008091C00086FFFCCF8091C0008064D1
:10E3B0008093C000EACF08958DE08093C6008091DD
:10E3C000C00086FFFCCF8091C00080648093C000B5
:10E3D0008AE08093C6008091C00086FFFCCF8091C8
:10E3E000C00080648093C00008950F94C2F10F9420
:10E3F000DCF10895FC019081992359F09093C600B7
:10E400008091C00086FFFCCF8091C0008064809323
:10E41000C0003196992379F70895282F982F929567
:10E420009F70892F805D8A3308F0895F8093C600D2
:10E430008091C00086FFFCCF8091C00080648093F3
:10E44000C000822F8F70982F905D9A3308F0995FEB
:10E450009093C6008091C00086FFFCCF8091C000E1
:10E4600080648093C00008959C01FB01853691056E
:10E470001CF46330710594F0C90164E670E00F94F8
:10E480002EFE605D7F4F6093C6008091C00086FFC6
:10E49000FCCF8091C00080648093C0002B30310598
:10E4A00014F43297B4F0C90164E670E00F942EFEC4
:10E4B0006AE070E00F942EFE605D7F4F6093C600AF
:10E4C0008091C00086FFFCCF8091C0008064809363
:10E4D000C000C9016AE070E00F942EFEC0968093E0
:10E4E000C6008091C00086FFFCCF8091C000806490
:10E4F0008093C00008951F93182F8EE692EE60E07F
:10E500000F94C2F11093C6008091C00086FFFCCF2B
:10E510008091C00080648093C0000F94DCF11F9153
:10E5200008952F923F924F925F926F927F928F92B7
:10E530009F92AF92BF92CF92DF92EF92FF920F9392
:10E540001F93DF93CF93CDB7DEB762970FB6F894E2
:10E55000DEBF0FBECDBF382E622ECA01DB015C01CB
:10E560006D01772420E2222E2E010894411C511CBB
:10E570008BC081E0A81680E0B80681E0C80680E084
:10E58000D80628F0C601AA27BB270F940DF2BB2797
:10E59000AD2D9C2D8B2D0F940DF28A2D0F940DF225
:10E5A0002092C6008091C00086FFFCCF8091C00001
:10E5B00080648093C0009DE29093C6008091C0006B
:10E5C00086FFFCCF8091C00080648093C0002092C1
:10E5D000C6008091C00086FFFCCF8091C00080649F
:10E5E0008093C00019828601750188249924A1E0D6
:10E5F0003A1651F03A1620F0B2E03B1661F409C029
:10E600000BBFF701779007C0C7010F9477FE782EF4
:10E6100002C0F7017080872D0F940DF22092C60082
:10E620008091C00086FFFCCF8091C0008064809301
:10E63000C000872D8052F401EF70F0708F3520F408
:10E64000E40DF51D708204C0E40DF51D8EE280839B
:10E650000894E11CF11C011D111D0894811C911CE2
:10E6600090E18916910409F0C2CF80E190E0A0E02A
:10E67000B0E0A80EB91ECA1EDB1E198AC2010F9493
:10E68000FAF10F94DCF16A94662009F072CF629679
:10E690000FB6F894DEBF0FBECDBFCF91DF911F91B3
:10E6A0000F91FF90EF90DF90CF90BF90AF909F9031
:10E6B0008F907F906F905F904F903F902F90089534
:10E6C0002F923F924F925F926F927F928F929F9282
:10E6D000AF92BF92CF92DF92EF92FF920F931F9370
:10E6E000DF93CF93CDB7DEB7CD53D1400FB6F894BB
:10E6F000DEBF0FBECDBF01E20EBF0FEF0DBF94B75F
:10E70000F894A89514BE80916000886180936000A1
:10E7100010926000789493FF05C0E0910002F091A0
:10E7200001021995279A2F9A8091C00082608093E8
:10E73000C00080E18093C40088E18093C1000000A4
:10E74000EE24FF24870144E0A42EB12CCC24DD2448
:10E7500024C0C5010197F1F70894E11CF11C011DCB
:10E76000111D21E2E2162EE4F20620E0020720E06D
:10E77000120718F031E0C32ED12CC801B70127ECE5
:10E780003BE140E050E00F9441FE611571058105C9
:10E79000910519F485B1805885B98091C00087FD35
:10E7A00003C0C114D104A9F2A6014F5F5F4FC25E3E
:10E7B000DE4F59834883CE51D140C25EDE4F8881FF
:10E7C0009981CE51D140019711F00D9410FEC05D9A
:10E7D000DE4F19821882C053D14060E0C15DDE4F28
:10E7E0001882CF52D14088249924C35DDE4F19820C
:10E7F0001882CD52D140C05EDE4F188219821A8233
:10E800001B82C052D140CE5CDE4F188219821A8220
:10E810001B82C253D140EE24FF2487010BBFF701B6
:10E8200007911691C45CDE4F19830883CC53D14005
:10E830000D940BFEC25EDE4F28813981CE51D1404E
:10E840002130310509F52091C600C25EDE4F1982E4
:10E850001882CE51D14022C02F5F3F4F4F4F5F4FA4
:10E86000213082E138078AE7480780E0580780F0C6
:10E87000C45CDE4FE881F981CC53D140EF5FFF4F9C
:10E8800019F0EE27FF27099420E030E040E050E047
:10E890008091C00087FFE0CF2091C600C35DDE4FAE
:10E8A00048815981CD52D1404F5F5F4FC35DDE4FEC
:10E8B00059834883CD52D140213209F063C64A3092
:10E8C000510508F05FC60894811C911C53E0851621
:10E8D000910409F059C600E010E018C081E280936D
:10E8E000C6008091C00086FFFCCF8091C00080648C
:10E8F0008093C0002F5F3F4F2931310579F70F9486
:10E90000DCF10F5F1F4F0530110519F020E030E0FA
:10E91000E5CF10920A0210920B0210920C02109294
:10E920000D02109206021092070210920802109235
:10E930000902109202021092030210920402109235
:10E9400005028FEE90EE60E00F94F5F180E191EE1C
:10E9500060E00F94C2F18091C00087FFFCCF9091DE
:10E96000C600903608F09F759032B8F09093C600BC
:10E970008091C00086FFFCCF8091C00080648093AE
:10E98000C000A0E2A093C6008091C00086FFFCCF2B
:10E990008091C00080648093C000983409F4D7C18E
:10E9A0009934B8F4923409F459C1933458F490333B
:10E9B00019F1903308F4E3C59F33A1F1903409F0C5
:10E9C000DEC5BDC0953409F470C1963409F0D7C5D1
:10E9D00098C1923509F42BC2933538F49C3409F46C
:10E9E000F5C1913509F0CBC518C2963509F445C279
:10E9F000993509F0C4C567C483E792EE62E00F94CD
:10EA0000F5F110920602109207021092080210927D
:10EA1000090210920A0210920B0210920C0210923C
:10EA20000D0213C18FE792EE62E00F94F5F18FEEC5
:10EA300090EE60E00F94F5F181E291EE60E00F94CA
:10EA4000C2F187EB91EE60E00F94F5F180E391EE77
:10EA500060E00F94C2F184EE90EE60E00F94F5F167
:10EA60008FE391EE60E00F94C2F186E090E061E008
:10EA700070E00F9434F20F94DCF18DE591EE60E0DC
:10EA80000F94C2F189EC91EE60E00F94F5F18EE401
:10EA900091EE60E00F94C2F183EC91EE60E00F9490
:10EAA000F5F18CE691EE60E00F94C2F18EE10F94E7
:10EAB0000DF288E90F940DF281E00F940DF20F949E
:10EAC000DCF18BE791EE60E00F94C2F119E0E0E039
:10EAD000F0E010935700E4918E2F0F940DF20F94F5
:10EAE000DCF18AE891EE60E00F94C2F1E3E0F0E03F
:10EAF00010935700E4918E2F0F940DF20F94DCF1D8
:10EB000089E991EE60E00F94C2F1E2E0F0E0109349
:10EB10005700E4918E2F0F940DF20F94DCF188EAE8
:10EB200091EE60E00F94C2F1E1E0F0E01093570045
:10EB30001491812F0F940DF20F94DCF107CF8BE825
:10EB400092EE62E00F94F5F18BE492EE60E00F94A8
:10EB5000F5F10F94DCF100E010E019C0C8016F2D51
:10EB60000F947FFEFF2031F489E492EE60E00F9471
:10EB7000C2F10BC0F092C6008091C00086FFFCCFAE
:10EB80008091C00080648093C0000F5F1F4FC80158
:10EB900081519F41A0E0B0E0ABBFFC01F790BAE229
:10EBA000FB1621F0E2E000301E07C1F60F94DCF105
:10EBB0000F94DCF187E592EE60E00F94F5F10F948D
:10EBC000DCF1CC24DD2400E010E01EC0C8010F946D
:10EBD00077FEF82E882331F489E492EE60E00F94FA
:10EBE000C2F10BC08093C6008091C00086FFFCCFAD
:10EBF0008091C00080648093C000FE1419F00894D6
:10EC0000C11CD11C0F5F1F4FC80181519F41A0E063
:10EC1000B0E0ABBFFC01E790FAE2EF1621F022E092
:10EC20000030120799F60F94DCF10F94DCF182E6C4
:10EC300092EE60E00F94C2F1C60161E070E00F94C3
:10EC400034F20F94DCF10F94DCF110920202109276
:10EC50000302109204021092050278CE89E992EE26
:10EC600062E00F94F5F1279A2F9A16C02F9880E052
:10EC700090E0E0EDF7E03197F1F7019684369105E9
:10EC8000C1F72F9A80E090E0E0EDF7E03197F1F7DF
:10EC9000019684369105C1F78091C00087FFE6CFC9
:10ECA0008091C00087FFFCCF64C485EA92EE62E0E9
:10ECB0000F94F5F140910202509103026091040219
:10ECC0007091050281E020E10F9491F2809102029F
:10ECD00090910302A0910402B091050280509F4FD1
:10ECE000AF4FBF4F8093020290930302A0930402A0
:10ECF000B093050280509041A040B04008F426CE69
:10ED0000A4CF83EB92EE62E00F94F5F140910602FE
:10ED100050910702609108027091090280E020E1A1
:10ED20000F9491F28091060290910702A09108023F
:10ED3000B091090280509F4FAF4FBF4F80930602A2
:10ED400090930702A0930802B0930902FFCD80ECD4
:10ED500092EE62E00F94F5F183E792EE60E00F949B
:10ED6000F5F18FE792EE60E00F94F5F18BE892EE0B
:10ED700060E00F94F5F189E992EE60E00F94F5F10F
:10ED800085EA92EE60E00F94F5F183EB92EE60E09D
:10ED90000F94F5F180EC92EE60E00F94F5F187ECC2
:10EDA00092EE60E00F94F5F188ED92EE60E00F9442
:10EDB000F5F18FED92EE60E00F94F5F18AEE92EEB0
:10EDC00060E00F94F5F183E093EEBDCD87EC92EE19
:10EDD00062E00F94F5F181E40F947BF282E40F94EA
:10EDE0007BF283E40F947BF284E40F947BF285E45E
:10EDF0000F947BF286E40F947BF287E40F947BF20E
:10EE000088E40F947BF28AE40F947BF28BE40F94F6
:10EE10007BF28CE40F947BF299CD88ED92EE62E068
:10EE20000F94F5F1772473948824992409C48FED05
:10EE300092EE62E00F94F5F140910A0250910B02BC
:10EE400060910C0270910D0282E020E10F9491F22A
:10EE500080910A0290910B02A0910C02B0910D02D8
:10EE600080509F4FAF4FBF4F80930A0290930B0289
:10EE7000A0930C02B0930D0269CD8AEE92EE62E08F
:10EE80000F94F5F184EE90EE60E00F94F5F18FECC5
:10EE900091EE60E00F94F5F1662477244301CC5D98
:10EEA000DE4F19821882C452D140D401C301B695F5
:10EEB000A79597958795CA5DDE4F88839983AA8326
:10EEC000BB83C652D140CC5DDE4FA881B981C4520C
:10EED000D1401196CC5DDE4FB983A883C452D14096
:10EEE000CD0162E070E00F9434F2B0E2B093C6005E
:10EEF0008091C00086FFFCCF8091C0008064809329
:10EF0000C000EDE2E093C6008091C00086FFFCCF18
:10EF10008091C00080648093C000F0E2F093C6004E
:10EF20008091C00086FFFCCF8091C00080648093F8
:10EF3000C000CA5DDE4FE880F9800A811B81C6529D
:10EF4000D140BB27A12F902F8F2D0F940DF2CA5DBA
:10EF5000DE4F8881C652D1400F940DF2B0E2FB2EF5
:10EF6000F092C6008091C00086FFFCCF8091C00067
:10EF700080648093C0000DE30093C6008091C000C0
:10EF800086FFFCCF8091C00080648093C00010E2B7
:10EF90001093C6008091C00086FFFCCF8091C00016
:10EFA00080648093C0008BBEF3012791C65DDE4F65
:10EFB0002883CA52D140A22EBB24CC24DD2408943D
:10EFC000611C711C811C911C8BBEF3018791282E42
:10EFD0003324442455240894611C711C811C911C09
:10EFE0008BBEF3013791C55DDE4F3883CB52D140E4
:10EFF0000894611C711C811C911C8BBEF30147910C
:10F00000C45DDE4F4883CC52D140ADEFEA2EAFEF66
:10F01000FA2EAFEF0A2FAFEF1A2F6E0C7F1C801E57
:10F02000911E142D032DF22CEE24EA0CFB1C0C1D5A
:10F030001D1D0F940DF220E22093C6008091C000A8
:10F0400086FFFCCF8091C00080648093C000C65DC5
:10F05000DE4F8881CA52D1400F940DF230E23093D6
:10F06000C6008091C00086FFFCCF8091C000806404
:10F070008093C000C45DDE4F8881CC52D1400F9494
:10F080000DF240E24093C6008091C00086FFFCCFA5
:10F090008091C00080648093C000C55DDE4F888190
:10F0A000CB52D1400F940DF250E25093C6008091A4
:10F0B000C00086FFFCCF8091C00080648093C000B8
:10F0C0008FEFE8168FEFF80680E0080780E018075A
:10F0D00031F484E092EE60E00F94C2F1DFC0D80119
:10F0E000C7018070907CA070B0708050904CA040A0
:10F0F000B040D1F52FEF3FE340E050E0E222F322B1
:10F1000004231523CA5DDE4FA880B980CA80DB8046
:10F11000C652D140AE0CBF1CC01ED11EAA0CBB1CD7
:10F12000CC1CDD1C8EE092EE60E00F94C2F1BB2798
:10F13000A12F902F8F2D0F940DF28E2D0F940DF285
:10F1400030E23093C6008091C00086FFFCCF8091F2
:10F15000C00080648093C0004EE34093C60080915D
:10F16000C00086FFFCCF87C08EE09EEFA0E0B0E03D
:10F17000E822F9220A231B239CE0E91694E9F90608
:10F1800090E0090790E0190709F088C0C45DDE4FE0
:10F19000A881CC52D140EA2EFF2400E010E0102FCD
:10F1A0000F2DFE2CEE24C55DDE4FB881CB52D14031
:10F1B000EB0EF11C011D111DD601C501817090706F
:10F1C000A070B070DC0199278827E80EF91E0A1F8D
:10F1D0001B1F20EF30E040E050E0A222B322C42207
:10F1E000D52241E1AA0CBB1CCC1CDD1C4A95D1F7F1
:10F1F000EA0CFB1C0C1D1D1D81E090E0A0E0B0E0BE
:10F20000282239224A225B2235E1220C331C441C7D
:10F21000551C3A95D1F7E20CF31C041D151D57013E
:10F220006801AA0CBB1CCC1CDD1C85E192EE60E0E1
:10F230000F94C2F1C801AA27BB270F940DF2BB2778
:10F24000A12F902F8F2D0F940DF28E2D0F940DF274
:10F2500090E29093C6008091C00086FFFCCF809121
:10F26000C00080648093C000AEE3A093C60080918C
:10F27000C00086FFFCCF8091C00080648093C000F6
:10F28000C601AA27BB270F940DF2BB27AD2D9C2DDD
:10F290008B2D0F940DF28A2D0F940DF20F94DCF14B
:10F2A000CC5DDE4FE881F981C452D140F99709F471
:10F2B0004DCBF4E0EF2EF12C012D112D6E0C7F1CA7
:10F2C000801E911EF2CD83E093EE62E00F94F5F183
:10F2D0008AE192EE60E00F94C2F18091C00087FF56
:10F2E000FCCF1091C6001F751093C6008091C0001E
:10F2F00086FFFCCF8091C00080648093C0000F9493
:10F30000DCF1812F81548A3108F036C1163409F4BA
:10F3100095C0173490F4133409F44EC0143430F40B
:10F320001134F1F0123409F01DC130C0143409F465
:10F3300059C0153409F016C16BC01A3409F4C4C0A1
:10F340001B3438F4173409F48FC0183409F00AC19B
:10F35000A1C01B3409F4D2C01C3409F003C1E8C0B9
:10F360008FEF81B90DC082B1809582B980E090E0C5
:10F37000E0EDF7E03197F1F70196883C9105C1F790
:10F380008091C00087FFEFCF12B8EFC08FEF84B934
:10F390000DC085B1809585B980E090E0E0EDF7E0A3
:10F3A0003197F1F70196883C9105C1F78091C00033
:10F3B00087FFEFCF15B8D9C08FEF87B90DC088B1DF
:10F3C000809588B980E090E0E0EDF7E03197F1F7C3
:10F3D0000196883C9105C1F78091C00087FFEFCF6F
:10F3E00018B8C3C08FEF8AB90DC08BB180958BB9A7
:10F3F00080E090E0E0EDF7E03197F1F70196883C8E
:10F400009105C1F78091C00087FFEFCF1BB8ADC059
:10F410008FEF8DB90DC08EB180958EB980E090E0F0
:10F42000E0EDF7E03197F1F70196883C9105C1F7DF
:10F430008091C00087FFEFCF1EB897C08FEF80BBD1
:10F440000DC081B3809581BB80E090E0E0EDF7E0F6
:10F450003197F1F70196883C9105C1F78091C00082
:10F4600087FFEFCF11BA81C08FEF83BB0DC084B38C
:10F47000809584BB80E090E0E0EDF7E03197F1F714
:10F480000196883C9105C1F78091C00087FFEFCFBE
:10F4900014BA6BC08FEF809301010FC080910201FD
:10F4A00080958093020180E090E0E0EDF7E03197F5
:10F4B000F1F70196883C9105C1F78091C00087FF64
:10F4C000EDCF1092020151C08FEF809304010FC065
:10F4D0008091050180958093050180E090E0E0ED4A
:10F4E000F7E03197F1F70196883C9105C1F78091DB
:10F4F000C00087FFEDCF1092050137C08FEF8093DA
:10F5000007010FC08091080180958093080180E079
:10F5100090E0E0EDF7E03197F1F70196883C910536
:10F52000C1F78091C00087FFEDCF109208011DC088
:10F530008FEF80930A010FC080910B01809580931B
:10F540000B0180E090E0E0EDF7E03197F1F70196F4
:10F55000883C9105C1F78091C00087FFEDCF1092E4
:10F560000B0103C085E292EEEEC98091C00087FFD7
:10F57000FCCF8091C600EAC988E392EEE4C98CE131
:10F5800091EEE1C988249924933011F1943028F444
:10F59000913089F09230B8F408C0953061F195301F
:10F5A000F0F0963009F048C043C02B3109F042C951
:10F5B00091E06BE13FC96227C15DDE4F2883CF52E6
:10F5C000D14092E037C9B22FA0E0622793E032C960
:10F5D000822F90E0A82BB92B622794E02BC92E3004
:10F5E00009F039C3622795E0C05DDE4F19821882A9
:10F5F000C053D1401FC9E1E0F0E0EC0FFD1FC05D3A
:10F60000DE4F08811981C053D140E00FF11F2083E4
:10F610000F5F1F4FC05DDE4F19830883C053D14079
:10F6200062270A171B0709F005C9D80196E002C92D
:10F63000261709F010C303C0973009F0FBC87724E0
:10F640009981933109F412C19431C8F4963009F4C8
:10F65000D8C0973050F4923009F406C1933009F4C1
:10F660006DC0913009F059C253C0913109F477C08F
:10F67000923108F0BBC0903109F04FC2F5C098310B
:10F6800009F487C0993150F4953109F4EFC09531F0
:10F6900008F4C6C1963109F040C2C2C19A3109F4DA
:10F6A0006CC09A3108F491C09B3109F45BC09D3164
:10F6B00009F033C29D81903359F48F81882311F46E
:10F6C0009EE11CC0813011F091E018C098E916C08D
:10F6D000892F807591F0903539F4E0E0F0E089E011
:10F6E0008093570094910AC0983539F4E3E0F0E034
:10F6F00089E080935700949101C090E01A821B82A8
:10F700008D818C831D829E831F8227E030E009C299
:10F710001A8288E08B8381E48C8386E58D8382E581
:10F720008E8389E48F8383E5888780E589878FE5E9
:10F730008A8782E38B872BE030E0F3C18A818139AD
:10F7400041F0823941F0803911F48FE005C080E04A
:10F7500003C082E001C08AE01A828B8344C0772410
:10F76000739482C08D81882311F48EE12CC0813086
:10F7700011F081E028C088E926C01A82E1E0F0E0BB
:10F7800089E08093570084918B831C8224E030E0D1
:10F79000C8C18B81803589F48C81883039F4E2E0EE
:10F7A000F0E089E08093570084910DC0E0E0F0E044
:10F7B00089E080935700849106C0E3E0F0E089E09F
:10F7C0008093570084911A82DFCF8D81836C99E0FA
:10F7D000E1E0F0E0082E90935700E89507B600FCB2
:10F7E000FDCF1A821B8223E030E09BC180EC8A832C
:10F7F000CE5CDE4F188219821A821B82C253D1401E
:10F800008EC18A8190E0A0E0B0E0582F44273327D2
:10F8100022278B8190E0A0E0B0E0DC0199278827C7
:10F82000282B392B4A2B5B2B8D8190E0A0E0B0E098
:10F83000282B392B4A2B5B2B8C8190E0A0E0B0E089
:10F84000BA2FA92F982F8827282B392B4A2B5B2BCF
:10F85000220F331F441F551FC05EDE4F288339839C
:10F860004A835B83C052D1401A8259C13A81C95C34
:10F87000DE4F3883C753D140CA5CDE4F1882C6536F
:10F88000D1408B81C82EDD24CA5CDE4F488159816E
:10F89000C653D140C42AD52A933109F082C0CE5C28
:10F8A000DE4F88819981AA81BB81C253D1408050AB
:10F8B000904CA340B04030F583E0CE5CDE4FE88052
:10F8C000F9800A811B81C253D140F70100935B008C
:10F8D00080935700E89507B600FCFDCFCE5CDE4F65
:10F8E000088119812A813B81C253D14000501F4FAA
:10F8F0002F4F3F4FCE5CDE4F088319832A833B8313
:10F90000C253D140C05EDE4F488159816A817B81FC
:10F91000C052D140DE011B9631E08C9111962C91A2
:10F9200011971296C75CDE4F2883C953D140C85C3B
:10F93000DE4F1882C853D14090E0C85CDE4FE881AA
:10F94000F981C853D1408E2B9F2B0C01FA01609393
:10F950005B0030935700E89511244E5F5F4F6F4F67
:10F960007F4F0EEFE02E0FEFF02ECE0CDF1CC114F8
:10F97000D10499F685E0C05EDE4F088119812A81A5
:10F980003B81C052D140F80120935B008093570027
:10F99000E89507B600FCFDCF81E180935700E8951C
:10F9A00035C0C05EDE4F88819981AA81BB81C0527B
:10F9B000D140B695A795979587957C018601ABE0D8
:10F9C000AA2EB12CAC0EBD1E0BC0D5016D915D01F0
:10F9D000C7010F947FFE0894E11CF11C01501040F8
:10F9E0000115110591F7A60160E070E0440F551F65
:10F9F000661F771FC05EDE4FE880F9800A811B8199
:10FA0000C052D1404E0D5F1D601F711F1A82C05E33
:10FA1000DE4F488359836A837B83C052D1407FC0C5
:10FA2000FA80C55CDE4FF882CB53D140C65CDE4F16
:10FA30001882CA53D1408B81C82EDD24C65CDE4FAC
:10FA400008811981CA53D140C02AD12A1A828981DA
:10FA5000BE016D5F7F4F843121F59601C05EDE4FA0
:10FA6000E880F9800A811B81C052D1400BBFF701A9
:10FA700087919691DB018C9311969C936E5F7F4FDB
:10FA8000D801C7010296A11DB11DC05EDE4F88835B
:10FA90009983AA83BB83C052D14022503040F1F6F3
:10FAA00036C0C05EDE4F288139814A815B81C052F9
:10FAB000D1400894C108D108760100E010E0089414
:10FAC000C11CD11C0894E11CF11C011D111DE20E8A
:10FAD000F31E041F151F21BDBB27A52F942F832FB5
:10FAE00082BD2F5F3F4F4F4F5F4FF89A80B5DB01CC
:10FAF0008D93BD012E153F054007510761F7C05E8C
:10FB0000DE4F288339834A835B83C052D1409601FC
:10FB10002D5F3F4FFB01108204C080EC8A8322E0FE
:10FB200030E08BE18093C6008091C00086FFFCCF5F
:10FB30008091C00080648093C000C15DDE4FF88179
:10FB4000CF52D140F093C6008091C00086FFFCCF19
:10FB50008091C00080648093C000432F3093C60022
:10FB60008091C00086FFFCCF8091C00080648093AC
:10FB7000C000922F2093C6008091C00086FFFCCF6A
:10FB80008091C00080648093C0008EE08093C600A6
:10FB90008091C00086FFFCCF8091C000806480937C
:10FBA000C00065E1C15DDE4FE880CF52D1406E25D7
:10FBB00069276427FE01319610C090819093C6009A
:10FBC0008091C00086FFFCCF31968091C000806498
:10FBD0008093C0006927215030402115310569F715
:10FBE0006093C6008091C00086FFFCCF8091C0006A
:10FBF00080648093C00085B1805885B9772081F4F6
:10FC0000C15DDE4F0881CF52D1400F5FC15DDE4F35
:10FC10000883CF52D14090E0A0E0B0E00D941AF4F8
:10FC200027982F9880E090E020ED37E0F901319798
:10FC3000F1F7019684369105C9F700008091C00064
:10FC40008D7F8093C00081E180935700E895EE2777
:10FC5000FF270994FFCF90E00D941AF497FB092E2B
:10FC600007260AD077FD04D02ED006D000201AF443
:10FC7000709561957F4F0895F6F7909581959F4F08
:10FC80000895A1E21A2EAA1BBB1BFD010DC0AA1FDD
:10FC9000BB1FEE1FFF1FA217B307E407F50720F0F5
:10FCA000A21BB30BE40BF50B661F771F881F991F70
:10FCB0001A9469F760957095809590959B01AC01B9
:10FCC000BD01CF010895AA1BBB1B51E107C0AA1FAC
:10FCD000BB1FA617B70710F0A61BB70B881F991FED
:10FCE0005A95A9F780959095BC01CD010895F99991
:10FCF000FECF92BD81BDF89A992780B50895262F31
:10FD0000F999FECF1FBA92BD81BD20BD0FB6F89400
:0EFD1000FA9AF99A0FBE01960895F894FFCF63
:00000001FF
