:100000000C942B010C945C010C945C010C945C012D
:100010000C945C010C945C010C945C010C945C01EC
:100020000C945C010C945C010C945C010C945C01DC
:100030000C945C010C945C010C945C010C945C01CC
:100040000C945C010C945C010C945C010C945C01BC
:100050000C945C010C945C010C945C010C94A30462
:100060000C945C010C946D040C9443040C945C019E
:100070000C945C010C945C010C945C010C945C018C
:100080000C945C010C945C010C945C010C945C017C
:100090000C945C010C945C010C945C010C945C016C
:1000A0000C945C010C945C010C945C010C945C015C
:1000B0000C945C010C945C010C945C010C945C014C
:1000C0000C945C010C945C010C945C010C945C013C
:1000D0000C945C010C945C010C945C010C945C012C
:1000E0000C945C010C940D030C94CD010C94F8025B
:1000F0000C946F050C94B9010C9407030C946002E6
:100100000C9425030C941F030C94E6020C94170323
:100110000C94E1020C9400030C9433030C9404033C
:100120000C94DD080C9411030C94DB010C942D034A
:100130000C94FC020C9429030C941B030C941302E2
:100140000C94AA010C947D010C94370300000A0B57
:1001500002090C0D0E080703040100000000000056
:10016000000000000000000000000000000000008F
:10017000000000000000000012111000000000004C
:10018000000000000000000000000000000000006F
:10019000000000002200250028002B002E00310066
:1001A000340002010000050108010B0100002100DC
:1001B000240027002A002D00300033000101000038
:1001C000040107010A0105050505070508080808D7
:1001D000020202020A0A08080404040401010101DF
:1001E00001010101030303030303030304070707DA
:1001F0000C0C0C0C0C0C0C0C02020202060606067F
:10020000060606060B0B0B0B0B0B0B0B010210204B
:10021000200808102040102040800201020108043C
:1002200002010102040810204080804020100804D0
:100230000201800402018040201008040201080429
:10024000020101020408102040800102040810206D
:1002500040806F05DD0811241FBECFEFD1E2DEBF65
:10026000CDBF00E00CBF26E0AAE3B5E001C01D92BF
:10027000AA39B207E1F715E0A0E0B2E0ECE2F6E15E
:1002800000E00BBF02C007900D92AA33B107D9F767
:1002900011E0CAE2D1E000E006C021970109802FF9
:1002A000FE010E94E608C932D10780E00807A9F7DD
:1002B0000E94F7050C94040B0C94000090E0FC01E4
:1002C000E45FFD4F24918A539E4FFC018491882363
:1002D00099F090E0880F991FFC01E455FE4FA5911D
:1002E000B491FC01EE56FE4F859194918FB7F8942E
:1002F000EC91E22BEC938FBF0895AF92BF92CF9217
:10030000DF92EF92FF920F931F93CF93DF936C01D5
:100310007B018B01040F151FEB015E01AE18BF08B6
:10032000C017D10759F06991D601ED91FC91019068
:10033000F081E02DC6011995892B79F7C501DF9170
:10034000CF911F910F91FF90EF90DF90CF90BF90D2
:10035000AF900895FC01538D448D252F30E0842FFC
:1003600090E0821B930B541710F0CF9608950197DD
:100370000895FC01918D828D981761F0A28DAE0FCA
:10038000BF2FB11D5D968C91928D9F5F9F73928F51
:1003900090E008958FEF9FEF0895FC01918D828D7D
:1003A000981731F0828DE80FF11D858D90E008954A
:1003B0008FEF9FEF0895FC01918D228D892F90E0A2
:1003C000805C9F4F821B91098F739927089583E466
:1003D00095E00E94DB0121E0892B09F420E0822FC7
:1003E0000895FC01A48DA80FB92FB11DA35ABF4FCA
:1003F0002C91848D90E001968F739927848FA68924
:10040000B7892C93A089B1898C91837080648C9377
:10041000938D848D981306C00288F389E02D808126
:100420008F7D80830895EF92FF920F931F93CF9358
:10043000DF93EC0181E0888F9B8D8C8D98131AC01F
:10044000E889F989808185FF15C09FB7F894EE8906
:10045000FF896083E889F989808183708064808363
:100460009FBF81E090E0DF91CF911F910F91FF90AE
:10047000EF900895F62E0B8D10E00F5F1F4F0F7356
:100480001127E02E8C8D8E110CC00FB607FCFACF11
:10049000E889F989808185FFF5CFCE010E94F101BD
:1004A000F1CFEB8DEC0FFD2FF11DE35AFF4FF082E2
:1004B0009FB7F8940B8FEA89FB8980818062CFCF48
:1004C000CF93DF93EC01888D8823B9F0AA89BB898B
:1004D000E889F9898C9185FD03C0808186FD0DC076
:1004E0000FB607FCF7CF8C9185FFF2CF808185FF97
:1004F000EDCFCE010E94F101E9CFDF91CF910895B8
:1005000080E090E0892B29F00E94E70181110E9490
:10051000000080E090E0892B49F080E090E0892B9A
:1005200029F00E94000081110E94000080E090E00C
:10053000892B49F080E090E0892B29F00E9400008F
:1005400081110E94000080E090E0892B49F080E05A
:1005500090E0892B29F00E94000081110C9400008A
:100560000895282F30E0F901E45BFE4F9491F901E2
:10057000E45FFD4F44912A533E4FF9012491222319
:1005800009F435C0992311F191509231F8F4E92F13
:10059000F0E08827E153FD4F8F4F0C94E6080003ED
:1005A0000403E102F802FC02E60207030D03110353
:1005B00017031B031F0325032903E6022D0333033F
:1005C0003703809180008F7780938000E22FF0E0E6
:1005D000EE0FFF1FEE56FE4FA591B4918FB7F89422
:1005E000EC91611148C040954E234C938FBF089504
:1005F000809180008F7DE8CF80918000877FE4CF5D
:1006000084B58F7784BDE2CF84B58F7DFBCF809199
:10061000B0008F778093B000D9CF8091B0008F7DEC
:10062000F9CF809190008F7780939000CFCF809109
:1006300090008F7DF9CF80919000877FF5CF8091DA
:10064000A0008F778093A000C1CF8091A0008F7D04
:10065000F9CF8091A000877FF5CF809120018F771F
:1006600080932001B3CF809120018F7DF9CF8091BD
:100670002001877FF5CF4E2BB8CF3FB7F8948091FC
:100680003F0590914005A0914105B091420526B5E6
:10069000A89B05C02F3F19F00196A11DB11D3FBFBA
:1006A000BA2FA92F982F8827BC01CD01620F711D89
:1006B000811D911D42E0660F771F881F991F4A9583
:1006C000D1F708954F925F926F927F928F929F928F
:1006D000AF92BF92CF92DF92EF92FF920F931F9350
:1006E000CF93DF931F921F92CDB7DEB78C01498362
:1006F0002A83660F771FF801EA5AFF4FE080F180E6
:10070000EE0CFF1CF801CF01801B910B8E159F058D
:1007100014F41192F8CF8981F801E60FF71F818355
:100720008A818083680184E5C80ED11C60E0F601EF
:1007300080810E94B1025801F2E5AF0EB11C480160
:1007400080E5880E911C1E141F040CF5E1E0EE1AE2
:10075000F108F801EE0DFF1D6080F5015080F401F5
:10076000408088E0782E662D661F6627661F842DE0
:100770000E94B102660C61E0852D0E94B10260E02A
:10078000852D0E94B1027A947110EDCFDCCF61E02B
:10079000F60180810F900F90DF91CF911F910F9103
:1007A000FF90EF90DF90CF90BF90AF909F908F9091
:1007B0007F906F905F904F900C94B102DF92EF9218
:1007C000FF920F931F93CF93DF93FC01EA5AFF4FE1
:1007D0002081318162177307C4F47B018C01EB0126
:1007E00083E0CC0FDD1F8A95E1F76096C00FD11F23
:1007F000DD24D394199220E04D2DB701C8010E9449
:100800006203D39489E0D812F5CFDF91CF911F9185
:100810000F91FF90EF90DF90089542E050E068E183
:1008200075E083E495E00C947D01CF93DF93EC01B8
:100830008091E0059091E105009759F02091E20543
:100840003091E3052C173D0720F081E0DF91CF9137
:100850000895BE016F5F7F4F0E94130A009789F0D1
:100860009093E1058093E005D093E305C093E20502
:100870002091E4053091E505232B39F7FC01108226
:10088000E4CF80E0E3CF1F920F920FB60F921124B6
:100890000BB60F922F933F934F935F936F937F937A
:1008A0008F939F93AF93BF93EF93FF9383E495E070
:1008B0000E94F101FF91EF91BF91AF919F918F91B4
:1008C0007F916F915F914F913F912F910F900BBE50
:1008D0000F900FBE0F901F9018951F920F920FB69A
:1008E0000F9211240BB60F922F938F939F93EF9338
:1008F000FF93E0915305F09154058081E0915905F3
:10090000F0915A0582FD1DC0908180915C058F5F3A
:100910008F7320915D05821741F0E0915C05F0E056
:10092000ED5BFA4F958F80935C05FF91EF919F915E
:100930008F912F910F900BBE0F900FBE0F901F90B5
:1009400018958081F2CF1F920F920FB60F9211244B
:100950002F933F938F939F93AF93BF9380913B05CA
:1009600090913C05A0913D05B0913E0530913A052E
:1009700023E0230F2D3758F50196A11DB11D2093BB
:100980003A0580933B0590933C05A0933D05B093B9
:100990003E0580913F0590914005A0914105B091A1
:1009A00042050196A11DB11D80933F05909340051E
:1009B000A0934105B0934205BF91AF919F918F9154
:1009C0003F912F910F900FBE0F901F90189526E822
:1009D000230F0296A11DB11DD2CF8F929F92AF928D
:1009E000BF92CF92DF92EF92FF920F931F93CF931C
:1009F000DF938C01D62EC72EEC01C05BDF4F6883DE
:100A000079834C0182E5880E911CF4015183408367
:100A10005801F4E5AF0EB11CF50131832083780154
:100A2000F6E5EF0EF11C83E090E0F70191838083FF
:100A3000862F0E945E01F40180810E945E01F50113
:100A400080810E945E0161E0F50180810E94B10217
:100A5000D882C982F80170961192EC17FD07E1F770
:100A6000D0E0C0E0F70180819181C817D90754F523
:100A700020E04FE0BE01C8010E946203F7018081BF
:100A80009181C817D90734F427E04BE0BE01C801B3
:100A90000E94620320E049E0BE01C8010E94620397
:100AA000BE01C8010E94DE03F70180819181C81751
:100AB000D90734F420E04CE0BE01C8010E94620373
:100AC0002196D0CFDF91CF911F910F91FF90EF90A2
:100AD000DF90CF90BF90AF909F908F90089510922D
:100AE00046051092450588EE93E0A0E0B0E08093C3
:100AF000470590934805A0934905B0934A058AE0BD
:100B000095E0909344058093430585EC90E09093A5
:100B1000500580934F0584EC90E0909352058093AC
:100B2000510580EC90E0909354058093530581EC3F
:100B300090E0909356058093550582EC90E0909359
:100B400058058093570586EC90E090935A05809362
:100B5000590510925C0510925D0510925E05109289
:100B60005F0527E130E046E150E068E170E08EE3A8
:100B700096E00E94ED042AE130E049E150E06BE1AB
:100B800070E086EE95E00E94ED041092E10510926F
:100B9000E0051092E3051092E2051092E50510922F
:100BA000E40590E080E00E9415042091E00530917A
:100BB000E105811113C02115310519F0C9010E9409
:100BC0008A091092E1051092E0051092E505109255
:100BD000E4051092E3051092E20508951092E505F0
:100BE0001092E4056AE175E0C9010C94FD0ACF9307
:100BF000DF93CDB7DEB766970FB6F894DEBF0FBEB2
:100C0000CDBF789484B5826084BD84B5816084BD95
:100C100085B5826085BD85B5816085BD80916E009A
:100C2000816080936E0010928100809181008260CB
:100C30008093810080918100816080938100809108
:100C400080008160809380008091B10084608093F7
:100C5000B1008091B00081608093B00080919100DC
:100C600082608093910080919100816080939100D7
:100C7000809190008160809390008091A1008260BB
:100C80008093A1008091A10081608093A100809158
:100C9000A00081608093A0008091210182608093F8
:100CA00021018091210181608093210180912001A7
:100CB00081608093200180917A00846080937A0023
:100CC00080917A00826080937A0080917A008160BE
:100CD00080937A0080917A00806880937A001092E5
:100CE000C100E0915305F091540582E08083E091CA
:100CF0004F05F09150051082E0915105F091520599
:100D00008FEC808310925B05E0915705F0915805B8
:100D100086E08083E0915505F091560580818061E1
:100D20008083E0915505F09156058081886080832D
:100D3000E0915505F0915605808180688083E091AF
:100D40005505F091560580818F7D80834FE050E0FE
:100D50006BE175E083E495E00E947D010E940D0443
:100D600010E000E08091940690919506081719070D
:100D70003CF421E04CE0B8018EE396E00E9462036F
:100D800080913C0690913D06081719073CF421E03C
:100D90004CE0B80186EE95E00E94620380919406D3
:100DA00090919506081719073CF428E04AE0B8012D
:100DB0008EE396E00E94620380913C0690913D068E
:100DC000081719073CF428E04AE0B80186EE95E0E0
:100DD0000E946203B8018EE396E00E94DE03B80130
:100DE00086EE95E00E94DE030F5F1F4F0330110572
:100DF00009F0B8CF9E012F5F3F4F2901AE01475F39
:100E00005F4F5C874B878DB79EB7988B8F8783E446
:100E100095E00E94DB01181619060CF05CC090E00A
:100E200080E00E9415042091E0053091E1058111D8
:100E300048C02115310519F0C9010E948A09109294
:100E4000E1051092E0051092E5051092E40510927C
:100E5000E3051092E20583E495E00E94DB01181699
:100E60001906CCF54DE050E06BE275E083E495E0C7
:100E70000E947D010E940D0483E495E00E94B90167
:100E800089871A860091E4051091E5050F5F1F4FD1
:100E9000C8010E9415048823F1F22091E0053091E9
:100EA000E1058091E4059091E505BE01675F7F4F04
:100EB000820F931F0E94FD0A1093E5050093E4053D
:100EC000CACF1092E5051092E4056AE175E0C90108
:100ED0000E94FD0AC0CF8091E4059091E50501963E
:100EE000EDB7FEB7E81BF90B0FB6F894FEBF0FBEC7
:100EF000EDBF2DB73EB72F5F3F4F39016091E00541
:100F00007091E105C9010E94FD0AF30101900020E2
:100F1000E9F73197C3018E1B9F0B38E1232E312C4B
:100F2000AC0163E0440F551F6A95E1F75E8B4D8B72
:100F30008D899E89281639060CF435C14101841823
:100F400095087E866D86F30101900020E9F73197C0
:100F5000E619F7098D859E85861997098E179F07D3
:100F600008F0F9C0ED85FE858191FE87ED8798E058
:100F7000E6E0F2E0D20101900D929A95E1F790EE51
:100F8000980F9F3508F452C01A821B821C821D8262
:100F90001E821F821886F201D12CE12CF12C00E078
:100FA00010E070E060E030E050E040E0219181E04E
:100FB00090E0A0E0B0E0042E04C0880F991FAA1FA3
:100FC000BB1F0A94D2F720FF4AC0382B21FF4BC029
:100FD000682B22FF4CC0782B23FF4DC0182B24FF19
:100FE0004EC0082B25FF4FC0F82A26FF50C0E82A24
:100FF00027FF51C0D82A4F5F5F4F48305105B1F6E7
:10100000D982EA82FB820C831D837E836F833887BB
:101010006201C601880D991DF12CE12C88309105E3
:10102000ECF1FFEFEF1AFF0A0897F8CF082E000C3B
:10103000990B809723E0880F991F2A95E1F7D20139
:1010400030E020E0F901E80FF91FE25FFD4F408139
:101050004D932F5F3F4F28303105A1F79CCFC82E0D
:10106000C0943C21B3CFC82EC0946C21B2CFC82EFF
:10107000C0947C21B1CFC82EC0941C21B0CFC82E03
:10108000C0940C21AFCFC82EC094FC20AECFC82E88
:10109000C094EC20ADCF8095D822ADCF209194069E
:1010A00030919506E216F3060CF04EC0883091059B
:1010B00008F041C0F601A080970193E0220F331F92
:1010C0009A95E1F73C8B2B8B40E850E002C0559598
:1010D00047958A95E2F7498B40954A8B10E000E0EE
:1010E000B12C8091940690919506E816F906F4F4D7
:1010F000EB89FC89E00FF11FE25CF94F808927E062
:1011000030E0201B310BA50102C0559547952A956B
:10111000E2F740FF1DC05989852B808B208941E073
:10112000400FB7018EE396E00E9462030F5F1F4FEE
:1011300008301105B1F6EFEFCE1ADE0A2B853C859B
:101140002C153D0509F065CF38E0830E911CFBCED0
:101150009A898923E2CF0E943D034B015C0186E915
:10116000C82ED12CE12CF12C0E943D03681979097D
:101170008A099B09683E734081059105A8F341E007
:10118000C41AD108E108F10858EE850E53E0951E07
:10119000A11CB11CC114D104E104F10429F7F1E050
:1011A0002F1A3108C5CE2F8538890FB6F8943EBF67
:1011B0000FBE2DBF0E94800226CE8091E005909147
:1011C000E105009711F00C948A090895EE0FFF1FB6
:1011D000881F8BBF0790F691E02D19940F931F93F2
:1011E000CF93DF938230910510F482E090E0E0919C
:1011F0009806F091990630E020E0B0E0A0E030974A
:1012000099F42115310509F44AC0281B390B243003
:101210003105D8F58A819B816115710589F1FB0142
:1012200093838283FE0111C0408151810281138129
:1012300048175907E0F04817590799F4109761F0DB
:1012400012960C93129713961C933296CF01DF914E
:10125000CF911F910F9108950093980610939906CE
:10126000F4CF2115310551F04217530738F0A90189
:10127000DB019A01BD01DF01F801C1CFEF01F9CF18
:101280009093990680939806CDCFFE01E20FF31F4D
:10129000819391932250310939832883D7CF2091AC
:1012A000960630919706232B41F42091020230914B
:1012B0000302309397062093960620910002309106
:1012C00001022115310541F42DB73EB740910402CA
:1012D00050910502241B350BE0919606F09197067C
:1012E000E217F307A0F42E1B3F0B2817390778F0FD
:1012F000AC014E5F5F4F2417350748F04E0F5F1F5C
:101300005093970640939606819391939FCFF0E078
:10131000E0E09CCFCF93DF930097E9F0FC01329798
:1013200013821282A0919806B0919906ED0130E0E7
:1013300020E01097A1F420813181820F931F20912A
:101340009606309197062817390709F061C0F09387
:101350009706E0939606DF91CF910895EA01CE17A4
:10136000DF07E8F54A815B819E0141155105B1F720
:10137000E901FB83EA8349915991C40FD51FEC170A
:10138000FD0761F4808191810296840F951FE90128
:1013900099838883828193819B838A83F0E0E0E054
:1013A00012968D919C9113970097B9F52D913C91D0
:1013B0001197CD010296820F931F209196063091CE
:1013C00097062817390739F6309751F51092990684
:1013D00010929806B0939706A0939606BCCFD3833D
:1013E000C28340815181840F951FC817D90761F4CA
:1013F0004E5F5F4F88819981480F591F5183408309
:101400008A819B81938382832115310509F0B0CFB6
:10141000F0939906E09398069ECFFD01DC01C0CFC2
:1014200013821282D7CF4F925F926F927F928F92E8
:101430009F92AF92BF92CF92DF92EF92FF920F9363
:101440001F93CF93DF938C01009799F4CB01DF9129
:10145000CF911F910F91FF90EF90DF90CF90BF90B1
:10146000AF909F908F907F906F905F904F900C9473
:10147000EE08FC01E60FF71F9C0122503109E2172C
:10148000F30708F4AEC0D901CD91DC911197C617CE
:10149000D70720F1C530D10578F0CE010497861723
:1014A000970750F0C61BD70B2297C193D1936D932A
:1014B0007C93CF010E948A09C801DF91CF911F91CF
:1014C0000F91FF90EF90DF90CF90BF90AF909F90E3
:1014D0008F907F906F905F904F9008955B01AC1A52
:1014E000BD0A4C018C0E9D1EA0919806B0919906E4
:1014F000512C412CF12CE12C109731F5809196065E
:10150000909197068815990509F05CC04616570614
:1015100008F058C08091000290910102009741F4B8
:101520008DB79EB74091040250910502841B950B24
:10153000E817F90708F055C0F0939706E093960670
:10154000F90171836083B8CF8D919C9111971296A8
:101550006C90129713967C901397A815B90559F5BE
:101560006C0142E0C40ED11CCA14DB0420F1AC01B2
:101570004A195B09DA011296159780F0628273822C
:1015800051834083D9016D937C93E114F10471F090
:10159000D7011396FC93EE9312978ECF22968C0F61
:1015A0009D1FF90191838083F301EFCFF09399069A
:1015B000E093980681CF4816590608F42C017D0166
:1015C000D3019ACFCB010E94EE087C01009749F02D
:1015D000AE01B8010E94F40AC8010E948A0987017D
:1015E0006BCF10E000E068CFFB01DC0102C001908E
:1015F0000D9241505040D8F70895FB01DC01019055
:101600000D920020E1F7089511E0CAE2D1E000E078
:1016100006C0802FFE010E94E6082196011DCB32F4
:0C162000D10780E00807A9F7F894FFCF7D
:10162C0000009A06800000082A1C771C2A0800007B
:10163C0000000000000000181818180018180066A8
:10164C00666600000000006666FE66FE66660018B0
:10165C003C44380C8C7800C6CC183060C6C60038B8
:10166C00444438588C760018181800000000000C00
:10167C0018303030180C0060180C0C0C186000007E
:10168C00004438FE3844000018187E18180000007A
:10169C00000000001818000000007E000000000090
:1016AC000000000018180002060C183060C000384A
:1016BC00444444444438001838181818183C00386E
:1016CC0044041830407C0038440418044438000C9E
:1016DC001C2C4C7E0C0C007C4078040444380038E4
:1016EC00444078444438007C4404081818180038E6
:1016FC00444438444438003844443C0444380000E2
:10170C001818000018180000181800001818000409
:10171C000C1830180C040000007E007E0000004005
:10172C0060180C1860400038440418180018003871
:10173C00445C5C5C403C00183C44447C4444007871
:10174C00444478444478003844404040443800785D
:10175C00444444444478007C40407840407C007CC5
:10176C00404078404040003844405C444438004499
:10177C0044447C4444440038181818181838001C89
:10178C000C0C0C4C4C380044485060504844004001
:10179C0040404040407C00446C5444444444004429
:1017AC0064544C4444440038444444444438007821
:1017BC004444784040400038444444544C38007809
:1017CC004444785048440038444038044438007C41
:1017DC0028282828282800444444444444380044F9
:1017EC004444444428100044444444546C4400444D
:1017FC004428102844440044444438101010007C01
:10180C0004081020407C0038202020202038004084
:10181C0020100804020100380808080808380010D5
:10182C00284400000000000000000000007C0008BC
:10183C00102000000000000038043C44443C0040F0
:10184C004078444444780000384440404438000414
:10185C00043C4444443C000038447C404438001C64
:10186C00242078202020003C44443C044438004090
:10187C0040784444444400100030101010380008E4
:10188C00001808084830004040485060504800306C
:10189C0010101010103800006C54545454540000A4
:1018AC007844444444440000384444444438007868
:1018BC00444478404040003C44443C040404000050
:1018CC0078444040404000003C40380444380020FC
:1018DC00207820202418000044444444443C000058
:1018EC004444444428100000444444546C440000D4
:1018FC00444428102844004444443C044438000028
:10190C007C081020407C001820204020201800105B
:10191C001010101010100060101008101060000053
:10192C000000000000000000000013027D01AA016D
:10193C006002DB01B901CD010D0A005365747570AD
:10194C00205465726D696E61646F004461746F2020
:0A195C00726563696269646F000040
:00000001FF
