:100000000C942B010C945C010C945C010C945C012D
:100010000C945C010C945C010C945C010C945C01EC
:100020000C945C010C945C010C945C010C945C01DC
:100030000C945C010C945C010C945C010C945C01CC
:100040000C945C010C945C010C945C010C945C01BC
:100050000C945C010C945C010C945C010C9488047D
:100060000C945C010C94FC040C94D2040C945C0180
:100070000C945C010C945C010C945C010C945C018C
:100080000C945C010C945C010C945C010C945C017C
:100090000C945C010C945C010C945C010C945C016C
:1000A0000C945C010C945C010C945C010C945C015C
:1000B0000C945C010C945C010C945C010C945C014C
:1000C0000C945C010C945C010C945C010C945C013C
:1000D0000C945C010C945C010C945C010C945C012C
:1000E0000C945C010C9411030C947D090C94E602B1
:1000F0000C94B4050C947D010C9413020C9425030C
:100100000C94F8020C9460020C94DB010C94040330
:100110000C94AA010C942D030C941B030C94330330
:100120000C94E1020C9437030C94CD010C9417034A
:100130000C9407030C941F030C94B9010C94FC025B
:100140000C9429030C9400030C940D0300000A0B7B
:1001500002090C0D0E080703040100000000000056
:10016000000000000000000000000000000000008F
:10017000000000000000000012111000000000004C
:10018000000000000000000000000000000000006F
:10019000000000002200250028002B002E00310066
:1001A000340002010000050108010B0100002100DC
:1001B000240027002A002D00300033000101000038
:1001C000040107010A0105050505070508080808D7
:1001D000020202020A0A08080404040401010101DF
:1001E00001010101030303030303030304070707DA
:1001F0000C0C0C0C0C0C0C0C02020202060606067F
:10020000060606060B0B0B0B0B0B0B0B010210204B
:10021000200808102040102040800201020108043C
:1002200002010102040810204080804020100804D0
:100230000201800402018040201008040201080429
:10024000020101020408102040800102040810206D
:100250004080B4057D0911241FBECFEFD1E2DEBF7F
:10026000CDBF00E00CBF29E0A2E3B8E001C01D92C1
:10027000A239B207E1F718E0A0E0B2E0ECE6F7E15E
:1002800000E00BBF02C007900D92A233B107D9F76F
:1002900011E0CAE2D1E000E006C021970109802FF9
:1002A000FE010E948609C932D10780E00807A9F73C
:1002B0000E943C060C94A40B0C94000090E0FC01FE
:1002C000E45FFD4F24918A539E4FFC018491882363
:1002D00099F090E0880F991FFC01E455FE4FA5911D
:1002E000B491FC01EE56FE4F859194918FB7F8942E
:1002F000EC91E22BEC938FBF0895AF92BF92CF9217
:10030000DF92EF92FF920F931F93CF93DF936C01D5
:100310007B018B01040F151FEB015E01AE18BF08B6
:10032000C017D10759F06991D601ED91FC91019068
:10033000F081E02DC6011995892B79F7C501DF9170
:10034000CF911F910F91FF90EF90DF90CF90BF90D2
:10035000AF900895FC01538D448D252F30E0842FFC
:1003600090E0821B930B541710F0CF9608950197DD
:100370000895FC01918D828D981761F0A28DAE0FCA
:10038000BF2FB11D5D968C91928D9F5F9F73928F51
:1003900090E008958FEF9FEF0895FC01918D828D7D
:1003A000981731F0828DE80FF11D858D90E008954A
:1003B0008FEF9FEF0895FC01918D228D892F90E0A2
:1003C000805C9F4F821B91098F73992708958BE35F
:1003D00098E00E94DB0121E0892B09F420E0822FC4
:1003E0000895FC01A48DA80FB92FB11DA35ABF4FCA
:1003F0002C91848D90E001968F739927848FA68924
:10040000B7892C93A089B1898C91837080648C9377
:10041000938D848D981306C00288F389E02D808126
:100420008F7D80830895EF92FF920F931F93CF9358
:10043000DF93EC0181E0888F9B8D8C8D98131AC01F
:10044000E889F989808185FF15C09FB7F894EE8906
:10045000FF896083E889F989808183708064808363
:100460009FBF81E090E0DF91CF911F910F91FF90AE
:10047000EF900895F62E0B8D10E00F5F1F4F0F7356
:100480001127E02E8C8D8E110CC00FB607FCFACF11
:10049000E889F989808185FFF5CFCE010E94F101BD
:1004A000F1CFEB8DEC0FFD2FF11DE35AFF4FF082E2
:1004B0009FB7F8940B8FEA89FB8980818062CFCF48
:1004C000CF93DF93EC01888D8823B9F0AA89BB898B
:1004D000E889F9898C9185FD03C0808186FD0DC076
:1004E0000FB607FCF7CF8C9185FFF2CF808185FF97
:1004F000EDCFCE010E94F101E9CFDF91CF910895B8
:1005000080E090E0892B29F00E94E70181110E9490
:10051000000080E090E0892B49F080E090E0892B9A
:1005200029F00E94000081110E94000080E090E00C
:10053000892B49F080E090E0892B29F00E9400008F
:1005400081110E94000080E090E0892B49F080E05A
:1005500090E0892B29F00E94000081110C9400008A
:100560000895282F30E0F901E45BFE4F9491F901E2
:10057000E45FFD4F44912A533E4FF9012491222319
:1005800009F435C0992311F191509231F8F4E92F13
:10059000F0E08827E153FD4F8F4F0C94860900034C
:1005A0000403E102F802FC02E60207030D03110353
:1005B00017031B031F0325032903E6022D0333033F
:1005C0003703809180008F7780938000E22FF0E0E6
:1005D000EE0FFF1FEE56FE4FA591B4918FB7F89422
:1005E000EC91611148C040954E234C938FBF089504
:1005F000809180008F7DE8CF80918000877FE4CF5D
:1006000084B58F7784BDE2CF84B58F7DFBCF809199
:10061000B0008F778093B000D9CF8091B0008F7DEC
:10062000F9CF809190008F7780939000CFCF809109
:1006300090008F7DF9CF80919000877FF5CF8091DA
:10064000A0008F778093A000C1CF8091A0008F7D04
:10065000F9CF8091A000877FF5CF809120018F771F
:1006600080932001B3CF809120018F7DF9CF8091BD
:100670002001877FF5CF4E2BB8CF4F925F926F92BC
:100680007F928F929F92AF92BF92CF92DF92EF9222
:10069000FF920F931F93CF93DF931F921F92CDB7BB
:1006A000DEB78C0149832A83660F771FF801EA5A67
:1006B000FF4FE080F180EE0CFF1CF801CF01801BA2
:1006C000910B8E159F0514F41192F8CF8981F801D2
:1006D000E60FF71F81838A818083680184E5C80E55
:1006E000D11C60E0F60180810E94B1025801F2E560
:1006F000AF0EB11C480180E5880E911C1E141F042A
:100700000CF5E1E0EE1AF108F801EE0DFF1D608036
:10071000F5015080F401408088E0782E662D661F38
:100720006627661F842D0E94B102660C61E0852D4C
:100730000E94B10260E0852D0E94B1027A9471108E
:10074000EDCFDCCF61E0F60180810F900F90DF915B
:10075000CF911F910F91FF90EF90DF90CF90BF90BE
:10076000AF909F908F907F906F905F904F900C9480
:10077000B1023F924F925F926F927F928F929F92BF
:10078000AF92BF92CF92DF92EF92FF920F931F939F
:10079000CF93DF93EC018B015A013B0183E0660CA0
:1007A000771C8A95E1F780E890E002C095958795DF
:1007B0004A95E2F7482E582E509448E050E04E01FA
:1007C00036E5830E911CE22EF12C99E0392EF401CE
:1007D000808191819A012150310969010817190717
:1007E000DCF4B7FC19C0F301E41BF50BEC0FFD1FA3
:1007F000808D97010C2C02C0359527950A94E2F75D
:1008000020FF1FC08429808F332D341B432F208D60
:10081000B801CE010E943D03A601CD28C1F6DF91AB
:10082000CF911F910F91FF90EF90DF90CF90BF90ED
:10083000AF909F908F907F906F905F904F903F9080
:1008400008958521E0CFDF92EF92FF920F931F93DF
:10085000CF93DF93FC01EA5AFF4F20813181621769
:100860007307C4F47B018C01EB0183E0CC0FDD1F27
:100870008A95E1F76096C00FD11FDD24D3941992B9
:1008800020E04D2DB701C8010E943D03D39489E0BB
:10089000D812F5CFDF91CF911F910F91FF90EF907C
:1008A000DF90089542E050E060E178E08BE398E06B
:1008B0000C947D01CF93DF93EC018091D808909147
:1008C000D908009759F02091DA083091DB082C17ED
:1008D0003D0720F081E0DF91CF910895BE016F5F69
:1008E0007F4F0E94B30A009789F09093D9088093B4
:1008F000D808D093DB08C093DA082091DC08309147
:10090000DD08232B39F7FC011082E4CF80E0E3CF30
:100910001F920F920FB60F9211242F933F938F9334
:100920009F93AF93BF938091370890913808A0911F
:100930003908B0913A083091360823E0230F2D375B
:1009400058F50196A11DB11D2093360880933708F4
:1009500090933808A0933908B0933A0880913208F0
:1009600090913308A0913408B09135080196A11DEB
:10097000B11D8093320890933308A0933408B0934C
:100980003508BF91AF919F918F913F912F910F901B
:100990000FBE0F901F90189526E8230F0296A11DF9
:1009A000B11DD2CF1F920F920FB60F9211240BB62A
:1009B0000F922F933F934F935F936F937F938F93F8
:1009C0009F93AF93BF93EF93FF938BE398E00E94C5
:1009D000F101FF91EF91BF91AF919F918F917F9125
:1009E0006F915F914F913F912F910F900BBE0F90A0
:1009F0000FBE0F901F9018951F920F920FB60F9277
:100A000011240BB60F922F938F939F93EF93FF9325
:100A1000E0914B08F0914C088081E0915108F091F1
:100A2000520882FD1DC09081809154088F5F8F73A2
:100A300020915508821741F0E0915408F0E0E55C00
:100A4000F74F958F80935408FF91EF919F918F916D
:100A50002F910F900BBE0F900FBE0F901F90189507
:100A60008081F2CF8F929F92AF92BF92CF92DF920E
:100A7000EF92FF920F931F93CF93DF938C01D62EAB
:100A8000C72EEC01C05BDF4F688379834C0182E5A0
:100A9000880E911CF401518340835801F4E5AF0E98
:100AA000B11CF501318320837801F6E5EF0EF11CCE
:100AB00083E090E0F70191838083862F0E945E019E
:100AC000F40180810E945E01F50180810E945E0137
:100AD00061E0F50180810E94B102D882C982F801EB
:100AE00070961192EC17FD07E1F7D0E0C0E0F70136
:100AF00080819181C817D90754F520E04FE0BE01ED
:100B0000C8010E943D03F70180819181C817D90770
:100B100034F427E04BE0BE01C8010E943D0320E011
:100B200049E0BE01C8010E943D03BE01C8010E9408
:100B30002304F70180819181C817D90734F420E09C
:100B40004CE0BE01C8010E943D032196D0CFDF9149
:100B5000CF911F910F91FF90EF90DF90CF90BF90BA
:100B6000AF909F908F90089510923E0810923D088C
:100B700088EE93E0A0E0B0E080933F0890934008B7
:100B8000A0934108B093420882E098E090933C081B
:100B900080933B0885EC90E0909348088093470849
:100BA00084EC90E090934A088093490880EC90E0B0
:100BB00090934C0880934B0881EC90E090934E0802
:100BC00080934D0882EC90E09093500880934F08FA
:100BD00086EC90E09093520880935108109254084C
:100BE00010925508109256081092570827E130E0ED
:100BF00046E150E068E170E086E399E00E9432054A
:100C00002AE130E049E150E06BE170E08EED98E0E0
:100C10000E9432051092D9081092D8081092DB0871
:100C20001092DA081092DD081092DC0890E080E063
:100C30000E945A042091D8083091D908811113C01C
:100C40002115310519F0C9010E942A0A1092D9080C
:100C50001092D8081092DD081092DC081092DB0880
:100C60001092DA0808951092DD081092DC0862E113
:100C700078E0C9010C949D0BCF93DF93CDB7DEB71D
:100C800068970FB6F894DEBF0FBECDBF789484B5D9
:100C9000826084BD84B5816084BD85B5826085BD78
:100CA00085B5816085BD80916E00816080936E0006
:100CB00010928100809181008260809381008091F8
:100CC00081008160809381008091800081608093A9
:100CD00080008091B10084608093B1008091B00069
:100CE00081608093B0008091910082608093910038
:100CF000809191008160809391008091900081604B
:100D0000809390008091A10082608093A1008091E7
:100D1000A10081608093A1008091A00081608093F8
:100D2000A0008091210182608093210180912101A6
:100D30008160809321018091200181608093200156
:100D400080917A00846080937A0080917A0082603A
:100D500080937A0080917A00816080937A008091FC
:100D60007A00806880937A001092C100E0914B086D
:100D7000F0914C0882E08083E0914708F0914808A8
:100D80001082E0914908F0914A088FEC808310921C
:100D90005308E0914F08F091500886E08083E0917D
:100DA0004D08F0914E08808180618083E0914D086C
:100DB000F0914E08808188608083E0914D08F09129
:100DC0004E08808180688083E0914D08F0914E0844
:100DD00080818F7D80834FE050E063E178E08BE39A
:100DE00098E00E947D010E94520410E000E0809192
:100DF0008C0990918D09081719073CF421E04CE00B
:100E0000B80186E399E00E943D0380918C0990919E
:100E10008D09081719073CF428E04AE0B80186E379
:100E200099E00E943D03B80186E399E00E94230403
:100E30008091340990913509081719073CF421E095
:100E40004CE0B8018EED98E00E943D03809134099A
:100E500090913509081719073CF428E04AE0B801D9
:100E60008EED98E00E943D03B8018EED98E00E945F
:100E700023040F5F1F4F0330110509F0B8CF9E0107
:100E80002F5E3F4F3A8B298B412C512C32014394DA
:100E90004DB75EB75E8B4D8B8BE398E00E94DB0114
:100EA000181619060CF05CC090E080E00E945A040D
:100EB0002091D8083091D908811148C021153105F9
:100EC00019F0C9010E942A0A1092D9081092D80874
:100ED0001092DD081092DC081092DB081092DA08FC
:100EE0008BE398E00E94DB0118161906CCF54DE063
:100EF00050E063E278E08BE398E00E947D010E947D
:100F000052048BE398E00E94B90189831A82009110
:100F1000DC081091DD080F5F1F4FC8010E945A04C2
:100F20008823F1F22091D8083091D9088091DC080B
:100F30009091DD08BE016F5F7F4F820F931F0E946B
:100F40009D0B1093DD080093DC08CACF1092DD08DA
:100F50001092DC0862E178E0C9010E949D0BC0CFCD
:100F60008091DC089091DD080196ADB7BEB7A81B53
:100F7000B90B0FB6F894BEBF0FBEADBF0DB71EB70D
:100F80000F5F1F4F6091D8087091D908C8010E9467
:100F90009D0BF80101900020E9F73197C8018E1BE5
:100FA0009F0B38E1832E912CFC0143E0EE0FFF1FD5
:100FB0004A95E1F7F88FEF8B2F89388D82169306CB
:100FC0000CF491C114011C8B0B8BF80101900020D3
:100FD000E9F73197E01BF10B8B899C89801B910B02
:100FE0008E179F0708F07BC1AB89BC898D91BC8BA4
:100FF000AB8B98E0E6E0F2E0DE01199601900D92ED
:101000009A95E1F798E0E6E0F2E0DE0111960190B2
:101010000D929A95E1F790EE980F9F3508F0AEC0CB
:10102000DE011996FE0131967F01082E000C990B06
:10103000809723E0880F991F2A95E1F730E020E0A0
:10104000AC01420F531FBA016A5F7A4FFB01608106
:101050006D93425F5D4FFA014081F70141937F013B
:101060002F5F3F4F2830310559F7FE013996B12CDB
:10107000C12CD12CE12CF12CB0E0A0E030E090E0CC
:1010800080E02191B301A201082E04C0440F551F36
:10109000661F771F0A94D2F720FF89C0342B21FFE7
:1010A0008AC0A42B22FF8BC0B42B23FF8CC0F42A50
:1010B00024FF8DC0E42A25FF8EC0D42A26FF8FC0CE
:1010C000C42A27FF90C0B42A019688309105C9F63A
:1010D000B986CA86DB86EC86FD86BE87AF87388BED
:1010E000FE013196B12CC12CD12CE12CF12CB0E0B9
:1010F000A0E030E090E080E02191B301A201082E51
:1011000004C0440F551F661F771F0A94D2F720FFB3
:101110006DC0342B21FF6EC0A42B22FF6FC0B42BF7
:1011200023FF70C0F42A24FF71C0E42A25FF72C097
:10113000D42A26FF73C0C42A27FF74C0B42A01969C
:1011400088309105C9F6B982CA82DB82EC82FD82C1
:10115000BE83AF833887D12CC12C7601E20CF31CFF
:10116000B12CA12C58E0E516F1040CF45EC08FEF11
:10117000A81AB80A98E0E91AF108F4CF2EEF37E080
:10118000FE01399686E095E0BE016F5F7F4FD90181
:101190004D919D014193DC014D91CD01DB014D93BA
:1011A000BD0149895A89E417F50789F75ECFA42E56
:1011B000A0943A2174CFA42EA094AA2173CFA42E78
:1011C000A094BA2172CFA42EA094FA2071CFA42E9D
:1011D000A094EA2070CFA42EA094DA206FCFA42E82
:1011E000A094CA206ECF4095B4226ECFA42EA094B6
:1011F0003A2190CFA42EA094AA218FCFA42EA09400
:10120000BA218ECFA42EA094FA208DCFA42EA09424
:10121000EA208CCFA42EA094DA208BCFA42EA09409
:10122000CA208ACF4095B4228ACF80918C099091B0
:101230008D09A816B9068CF5A8E0EA16F10468F441
:10124000E9E0F0E0EC0FFD1FEC0DFD1D2081A70192
:10125000B50186E399E00E94B90380913409909129
:101260003509A816B9068CF4B8E0EB16F10468F459
:10127000E1E0F0E0EC0FFD1FEC0DFD1D2081A7016A
:10128000B5018EED98E00E94B903EFEFCE1ADE0AA9
:10129000F8E0CF16D10409F060CF8BE398E00E940C
:1012A000DB0128E0220E311C181619060CF08DCE39
:1012B000F12CE12C80918C0990918D09E816F906AA
:1012C00074F4B70186E399E00E942304B7018EED20
:1012D00098E00E9423043FEFE31AF30AEBCF41E0CA
:1012E000841A910869CE8D899E890FB6F8949EBFA5
:1012F0000FBE8DBF0E948002CBCD8091D808909107
:10130000D908009711F00C942A0A0895EE0FFF1FD8
:10131000881F8BBF0790F691E02D19940F931F93B0
:10132000CF93DF938230910510F482E090E0E0915A
:101330009009F091910930E020E0B0E0A0E0309712
:1013400099F42115310509F44AC0281B390B2430C2
:101350003105D8F58A819B816115710589F1FB0101
:1013600093838283FE0111C04081518102811381E8
:1013700048175907E0F04817590799F4109761F09A
:1013800012960C93129713961C933296CF01DF910D
:10139000CF911F910F910895009390091093910997
:1013A000F4CF2115310551F04217530738F0A90148
:1013B000DB019A01BD01DF01F801C1CFEF01F9CFD7
:1013C0009093910980939009CDCFFE01E20FF31F16
:1013D000819391932250310939832883D7CF20916B
:1013E0008E0930918F09232B41F420910202309114
:1013F000030230938F0920938E09209100023091CF
:1014000001022115310541F42DB73EB74091040288
:1014100050910502241B350BE0918E09F0918F0944
:10142000E217F307A0F42E1B3F0B2817390778F0BB
:10143000AC014E5F5F4F2417350748F04E0F5F1F1A
:1014400050938F0940938E09819391939FCFF0E041
:10145000E0E09CCFCF93DF930097E9F0FC01329757
:1014600013821282A0919009B0919109ED0130E0B0
:1014700020E01097A1F420813181820F931F2091E9
:101480008E0930918F092817390709F061C0F09350
:101490008F09E0938E09DF91CF910895EA01CE176D
:1014A000DF07E8F54A815B819E0141155105B1F7DF
:1014B000E901FB83EA8349915991C40FD51FEC17C9
:1014C000FD0761F4808191810296840F951FE901E7
:1014D00099838883828193819B838A83F0E0E0E013
:1014E00012968D919C9113970097B9F52D913C918F
:1014F0001197CD010296820F931F20918E09309192
:101500008F092817390739F6309751F5109291094C
:1015100010929009B0938F09A0938E09BCCFD3830A
:10152000C28340815181840F951FC817D90761F488
:101530004E5F5F4F88819981480F591F51834083C7
:101540008A819B81938382832115310509F0B0CF75
:10155000F0939109E09390099ECFFD01DC01C0CF8B
:1015600013821282D7CF4F925F926F927F928F92A7
:101570009F92AF92BF92CF92DF92EF92FF920F9322
:101580001F93CF93DF938C01009799F4CB01DF91E8
:10159000CF911F910F91FF90EF90DF90CF90BF9070
:1015A000AF909F908F907F906F905F904F900C9432
:1015B0008E09FC01E60FF71F9C0122503109E2174A
:1015C000F30708F4AEC0D901CD91DC911197C6178D
:1015D000D70720F1C530D10578F0CE0104978617E2
:1015E000970750F0C61BD70B2297C193D1936D93E9
:1015F0007C93CF010E942A0AC801DF91CF911F91ED
:101600000F91FF90EF90DF90CF90BF90AF909F90A1
:101610008F907F906F905F904F9008955B01AC1A10
:10162000BD0A4C018C0E9D1EA0919009B0919109AC
:10163000512C412CF12CE12C109731F580918E0921
:1016400090918F098815990509F05CC046165706D8
:1016500008F058C08091000290910102009741F477
:101660008DB79EB74091040250910502841B950BE3
:10167000E817F90708F055C0F0938F09E0938E0939
:10168000F90171836083B8CF8D919C911197129667
:101690006C90129713967C901397A815B90559F57D
:1016A0006C0142E0C40ED11CCA14DB0420F1AC0171
:1016B0004A195B09DA011296159780F062827382EB
:1016C00051834083D9016D937C93E114F10471F04F
:1016D000D7011396FC93EE9312978ECF22968C0F20
:1016E0009D1FF90191838083F301EFCFF09391095E
:1016F000E093900981CF4816590608F42C017D012A
:10170000D3019ACFCB010E948E097C01009749F04A
:10171000AE01B8010E94940BC8010E942A0A8701F9
:101720006BCF10E000E068CFFB01DC0102C001904C
:101730000D9241505040D8F70895FB01DC01019013
:101740000D920020E1F7089511E0CAE2D1E000E037
:1017500006C0802FFE010E9486092196011DCB3212
:0C176000D10780E00807A9F7F894FFCF3C
:10176C0000009209800000082A1C771C2A0800003F
:10177C000000000000001800181800000000000015
:10178C0000000000000066FE666600000000380CD9
:10179C008C78000000003060C6C60000000038588D
:1017AC008C760000000000000000000000003030CB
:1017BC00180C000000000C0C18600000000038FE33
:1017CC003844000000007E181800000000000000E3
:1017DC001818000000007E0000000000000000004F
:1017EC00181800000000183060C0000000004444CD
:1017FC004438000000001818183C00000000183095
:10180C00407C0000000018044438000000004C7EAE
:10181C000C0C000000000404443800000000784464
:10182C004438000000000818181800000000384464
:10183C004438000000003C04443800000000000064
:10184C0018180000000000001818000000003018E4
:10185C000C0400000000007E0000000000000C18CA
:10186C0060400000000018180018000000005C5CCC
:10187C00403C00000000447C4444000000007844DC
:10188C00447800000000404044380000000044440C
:10189C004478000000007840407C00000000784054
:1018AC004040000000005C444438000000007C44D0
:1018BC0044440000000018181838000000000C4CBC
:1018CC004C380000000060504844000000004040CC
:1018DC00407C0000000044444444000000004C44A0
:1018EC0044440000000044444438000000007840A8
:1018FC0040400000000044544C3800000000785078
:10190C004844000000003804443800000000282837
:10191C0028280000000044444438000000004444DF
:10192C0028100000000044546C44000000001028F3
:10193C00444400000000381010100000000010207B
:10194C00407C00000000202020380000000008042B
:10195C000201000000000808083800000000000028
:10196C000000000000000000007C000000000000EF
:10197C000000000000003C44443C000000004444D3
:10198C00447800000000404044380000000044440B
:10199C00443C000000007C404438000000007820EB
:1019AC002020000000003C044438000000004444A7
:1019BC00444400000000101010380000000008081B
:1019CC00483000000000506050480000000010102B
:1019DC0010380000000054545454000000004444DB
:1019EC0044440000000044444438000000007840A7
:1019FC004040000000003C04040400000000404093
:101A0C004040000000003804443800000000202052
:101A1C002418000000004444443C000000004444EE
:101A2C0028100000000044546C44000000002810F2
:101A3C002844000000003C04443800000000102042
:101A4C00407C000000004020201800000000101016
:101A5C00101000000000081010600000000077DC7F
:101A6C00000000000000000000000000000000006A
:101A7C0000000018181800000000006666660000E0
:101A8C000000006666FE0000000000183C440000E8
:101A9C00000000C6CC1800000000003844440000D0
:101AAC0000000018181800000000000C183000008E
:101ABC0000000060180C0000000000000044000052
:101ACC0000000000181800000000000000000000DA
:101ADC0000000000000000000000000000000000FA
:101AEC0000000002060C0000000000384444000016
:101AFC0000000018381800000000003844040000F2
:101B0C0000000038440400000000000C1C2C0000F5
:101B1C000000007C407800000000003844400000C9
:101B2C000000007C44040000000000384444000025
:101B3C0000000038444400000000000018180000A9
:101B4C000000000018180000000000040C18000031
:101B5C0000000000007E0000000000406018000043
:101B6C00000000384404000000000038445C000011
:101B7C00000000183C4400000000007844440000C1
:101B8C00000000384440000000000078444400008D
:101B9C000000007C404000000000007C4040000041
:101BAC0000000038444000000000004444440000A1
:101BBC0000000038181800000000001C0C0C00007D
:101BCC00000000444850000000000040404000006D
:101BDC00000000446C5400000000004464540000F9
:101BEC000000003844440000000000784444000029
:101BFC000000003844440000000000784444000019
:101C0C0000000038444000000000007C2828000040
:101C1C000000004444440000000000444444000020
:101C2C00000000444444000000000044442800002C
:101C3C0000000044444400000000007C0408000044
:101C4C0000000038202000000000004020100000A0
:101C5C0000000038080800000000001028440000B4
:101C6C00000000000000000000000018180C00002C
:101C7C000000000038040000000000404078000024
:101C8C00000000003844000000000004043C000088
:101C9C0000000000384400000000001C242000005C
:101CAC000000003C4444000000000040407800006C
:101CBC0000000010003000000000000800180000B8
:101CCC0000000040404800000000003010100000F0
:101CDC00000000006C54000000000000784400007C
:101CEC00000000003844000000000078444400006C
:101CFC000000003C44440000000000007844000058
:101D0C00000000003C400000000000202078000093
:101D1C0000000000444400000000000044440000A7
:101D2C000000000044440000000000004444000097
:101D3C000000004444440000000000007C08000047
:101D4C0000000018202000000000001010100000FF
:101D5C0000000060101000000000000000000000F7
:101D6C00000013027D01AA016002DB01B901CD0163
:101D7C000D0A005365747570205465726D696E613F
:101D8C00646F004461746F20726563696269646F8B
:021D9C00000045
:00000001FF
