:100000000C942B010C945C010C945C010C945C012D
:100010000C945C010C945C010C945C010C945C01EC
:100020000C945C010C945C010C945C010C945C01DC
:100030000C945C010C945C010C945C010C945C01CC
:100040000C945C010C945C010C945C010C945C01BC
:100050000C945C010C945C010C945C010C9488047D
:100060000C945C010C94FC040C94D2040C945C0180
:100070000C945C010C945C010C945C010C945C018C
:100080000C945C010C945C010C945C010C945C017C
:100090000C945C010C945C010C945C010C945C016C
:1000A0000C945C010C945C010C945C010C945C015C
:1000B0000C945C010C945C010C945C010C945C014C
:1000C0000C945C010C945C010C945C010C945C013C
:1000D0000C945C010C945C010C945C010C945C012C
:1000E0000C945C010C9411030C9466090C94E602C8
:1000F0000C94B4050C947D010C9413020C9425030C
:100100000C94F8020C9460020C94DB010C94040330
:100110000C94AA010C942D030C941B030C94330330
:100120000C94E1020C9437030C94CD010C9417034A
:100130000C9407030C941F030C94B9010C94FC025B
:100140000C9429030C9400030C940D0300000A0B7B
:1001500002090C0D0E080703040100000000000056
:10016000000000000000000000000000000000008F
:10017000000000000000000012111000000000004C
:10018000000000000000000000000000000000006F
:10019000000000002200250028002B002E00310066
:1001A000340002010000050108010B0100002100DC
:1001B000240027002A002D00300033000101000038
:1001C000040107010A0105050505070508080808D7
:1001D000020202020A0A08080404040401010101DF
:1001E00001010101030303030303030304070707DA
:1001F0000C0C0C0C0C0C0C0C02020202060606067F
:10020000060606060B0B0B0B0B0B0B0B010210204B
:10021000200808102040102040800201020108043C
:1002200002010102040810204080804020100804D0
:100230000201800402018040201008040201080429
:10024000020101020408102040800102040810206D
:100250004080B405660911241FBECFEFD1E2DEBF96
:10026000CDBF00E00CBF29E0A2E5B8E001C01D92BF
:10027000A23BB207E1F718E0A0E0B2E0EEE3F7E15D
:1002800000E00BBF02C007900D92A235B107D9F76D
:1002900011E0CAE2D1E000E006C021970109802FF9
:1002A000FE010E946F09C932D10780E00807A9F753
:1002B0000E943C060C948D0B0C94000090E0FC0115
:1002C000E45FFD4F24918A539E4FFC018491882363
:1002D00099F090E0880F991FFC01E455FE4FA5911D
:1002E000B491FC01EE56FE4F859194918FB7F8942E
:1002F000EC91E22BEC938FBF0895AF92BF92CF9217
:10030000DF92EF92FF920F931F93CF93DF936C01D5
:100310007B018B01040F151FEB015E01AE18BF08B6
:10032000C017D10759F06991D601ED91FC91019068
:10033000F081E02DC6011995892B79F7C501DF9170
:10034000CF911F910F91FF90EF90DF90CF90BF90D2
:10035000AF900895FC01538D448D252F30E0842FFC
:1003600090E0821B930B541710F0CF9608950197DD
:100370000895FC01918D828D981761F0A28DAE0FCA
:10038000BF2FB11D5D968C91928D9F5F9F73928F51
:1003900090E008958FEF9FEF0895FC01918D828D7D
:1003A000981731F0828DE80FF11D858D90E008954A
:1003B0008FEF9FEF0895FC01918D228D892F90E0A2
:1003C000805C9F4F821B91098F73992708958BE55D
:1003D00098E00E94DB0121E0892B09F420E0822FC4
:1003E0000895FC01A48DA80FB92FB11DA35ABF4FCA
:1003F0002C91848D90E001968F739927848FA68924
:10040000B7892C93A089B1898C91837080648C9377
:10041000938D848D981306C00288F389E02D808126
:100420008F7D80830895EF92FF920F931F93CF9358
:10043000DF93EC0181E0888F9B8D8C8D98131AC01F
:10044000E889F989808185FF15C09FB7F894EE8906
:10045000FF896083E889F989808183708064808363
:100460009FBF81E090E0DF91CF911F910F91FF90AE
:10047000EF900895F62E0B8D10E00F5F1F4F0F7356
:100480001127E02E8C8D8E110CC00FB607FCFACF11
:10049000E889F989808185FFF5CFCE010E94F101BD
:1004A000F1CFEB8DEC0FFD2FF11DE35AFF4FF082E2
:1004B0009FB7F8940B8FEA89FB8980818062CFCF48
:1004C000CF93DF93EC01888D8823B9F0AA89BB898B
:1004D000E889F9898C9185FD03C0808186FD0DC076
:1004E0000FB607FCF7CF8C9185FFF2CF808185FF97
:1004F000EDCFCE010E94F101E9CFDF91CF910895B8
:1005000080E090E0892B29F00E94E70181110E9490
:10051000000080E090E0892B49F080E090E0892B9A
:1005200029F00E94000081110E94000080E090E00C
:10053000892B49F080E090E0892B29F00E9400008F
:1005400081110E94000080E090E0892B49F080E05A
:1005500090E0892B29F00E94000081110C9400008A
:100560000895282F30E0F901E45BFE4F9491F901E2
:10057000E45FFD4F44912A533E4FF9012491222319
:1005800009F435C0992311F191509231F8F4E92F13
:10059000F0E08827E153FD4F8F4F0C946F09000363
:1005A0000403E102F802FC02E60207030D03110353
:1005B00017031B031F0325032903E6022D0333033F
:1005C0003703809180008F7780938000E22FF0E0E6
:1005D000EE0FFF1FEE56FE4FA591B4918FB7F89422
:1005E000EC91611148C040954E234C938FBF089504
:1005F000809180008F7DE8CF80918000877FE4CF5D
:1006000084B58F7784BDE2CF84B58F7DFBCF809199
:10061000B0008F778093B000D9CF8091B0008F7DEC
:10062000F9CF809190008F7780939000CFCF809109
:1006300090008F7DF9CF80919000877FF5CF8091DA
:10064000A0008F778093A000C1CF8091A0008F7D04
:10065000F9CF8091A000877FF5CF809120018F771F
:1006600080932001B3CF809120018F7DF9CF8091BD
:100670002001877FF5CF4E2BB8CF4F925F926F92BC
:100680007F928F929F92AF92BF92CF92DF92EF9222
:10069000FF920F931F93CF93DF931F921F92CDB7BB
:1006A000DEB78C0149832A83660F771FF801EA5A67
:1006B000FF4FE080F180EE0CFF1CF801CF01801BA2
:1006C000910B8E159F0514F41192F8CF8981F801D2
:1006D000E60FF71F81838A818083680184E5C80E55
:1006E000D11C60E0F60180810E94B1025801F2E560
:1006F000AF0EB11C480180E5880E911C1E141F042A
:100700000CF5E1E0EE1AF108F801EE0DFF1D608036
:10071000F5015080F401408088E0782E662D661F38
:100720006627661F842D0E94B102660C61E0852D4C
:100730000E94B10260E0852D0E94B1027A9471108E
:10074000EDCFDCCF61E0F60180810F900F90DF915B
:10075000CF911F910F91FF90EF90DF90CF90BF90BE
:10076000AF909F908F907F906F905F904F900C9480
:10077000B1023F924F925F926F927F928F929F92BF
:10078000AF92BF92CF92DF92EF92FF920F931F939F
:10079000CF93DF93EC018B015A013B0183E0660CA0
:1007A000771C8A95E1F780E890E002C095958795DF
:1007B0004A95E2F7482E582E509448E050E04E01FA
:1007C00036E5830E911CE22EF12C99E0392EF401CE
:1007D000808191819A012150310969010817190717
:1007E000DCF4B7FC19C0F301E41BF50BEC0FFD1FA3
:1007F000808D97010C2C02C0359527950A94E2F75D
:1008000020FF1FC08429808F332D341B432F208D60
:10081000B801CE010E943D03A601CD28C1F6DF91AB
:10082000CF911F910F91FF90EF90DF90CF90BF90ED
:10083000AF909F908F907F906F905F904F903F9080
:1008400008958521E0CFDF92EF92FF920F931F93DF
:10085000CF93DF93FC01EA5AFF4F20813181621769
:100860007307C4F47B018C01EB0183E0CC0FDD1F27
:100870008A95E1F76096C00FD11FDD24D3941992B9
:1008800020E04D2DB701C8010E943D03D39489E0BB
:10089000D812F5CFDF91CF911F910F91FF90EF907C
:1008A000DF90089542E050E060E378E08BE598E067
:1008B0000C947D01CF93DF93EC018091F808909127
:1008C000F908009759F02091FA083091FB082C178D
:1008D0003D0720F081E0DF91CF910895BE016F5F69
:1008E0007F4F0E949C0A009789F09093F9088093AB
:1008F000F808D093FB08C093FA082091FC083091C7
:10090000FD08232B39F7FC011082E4CF80E0E3CF10
:100910001F920F920FB60F9211242F933F938F9334
:100920009F93AF93BF938091570890915808A091DF
:100930005908B0915A083091560823E0230F2D37FB
:1009400058F50196A11DB11D2093560880935708B4
:1009500090935808A0935908B0935A088091520870
:1009600090915308A0915408B09155080196A11D8B
:10097000B11D8093520890935308A0935408B093EC
:100980005508BF91AF919F918F913F912F910F90FB
:100990000FBE0F901F90189526E8230F0296A11DF9
:1009A000B11DD2CF1F920F920FB60F9211240BB62A
:1009B0000F922F933F934F935F936F937F938F93F8
:1009C0009F93AF93BF93EF93FF938BE598E00E94C3
:1009D000F101FF91EF91BF91AF919F918F917F9125
:1009E0006F915F914F913F912F910F900BBE0F90A0
:1009F0000FBE0F901F9018951F920F920FB60F9277
:100A000011240BB60F922F938F939F93EF93FF9325
:100A1000E0916B08F0916C088081E0917108F09191
:100A2000720882FD1DC09081809174088F5F8F7362
:100A300020917508821741F0E0917408F0E0E55AC2
:100A4000F74F958F80937408FF91EF919F918F914D
:100A50002F910F900BBE0F900FBE0F901F90189507
:100A60008081F2CF8F929F92AF92BF92CF92DF920E
:100A7000EF92FF920F931F93CF93DF938C01D62EAB
:100A8000C72EEC01C05BDF4F688379834C0182E5A0
:100A9000880E911CF401518340835801F4E5AF0E98
:100AA000B11CF501318320837801F6E5EF0EF11CCE
:100AB00083E090E0F70191838083862F0E945E019E
:100AC000F40180810E945E01F50180810E945E0137
:100AD00061E0F50180810E94B102D882C982F801EB
:100AE00070961192EC17FD07E1F7D0E0C0E0F70136
:100AF00080819181C817D90754F520E04FE0BE01ED
:100B0000C8010E943D03F70180819181C817D90770
:100B100034F427E04BE0BE01C8010E943D0320E011
:100B200049E0BE01C8010E943D03BE01C8010E9408
:100B30002304F70180819181C817D90734F420E09C
:100B40004CE0BE01C8010E943D032196D0CFDF9149
:100B5000CF911F910F91FF90EF90DF90CF90BF90BA
:100B6000AF909F908F90089510925E0810925D084C
:100B700088EE93E0A0E0B0E080935F089093600877
:100B8000A0936108B093620882E298E090935C08B9
:100B900080935B0885EC90E09093680880936708E9
:100BA00084EC90E090936A088093690880EC90E070
:100BB00090936C0880936B0881EC90E090936E08A2
:100BC00080936D0882EC90E09093700880936F089A
:100BD00086EC90E0909372088093710810927408EC
:100BE00010927508109276081092770827E130E08D
:100BF00046E150E068E170E086E599E00E94320548
:100C00002AE130E049E150E06BE170E08EEF98E0DE
:100C10000E9432051092F9081092F8081092FB0811
:100C20001092FA081092FD081092FC0890E080E003
:100C30000E945A042091F8083091F908811113C0DC
:100C40002115310519F0C9010E94130A1092F90803
:100C50001092F8081092FD081092FC081092FB0800
:100C60001092FA0808951092FD081092FC0862E3B1
:100C700078E0C9010C94860BCF93DF93CDB7DEB734
:100C800068970FB6F894DEBF0FBECDBF789484B5D9
:100C9000826084BD84B5816084BD85B5826085BD78
:100CA00085B5816085BD80916E00816080936E0006
:100CB00010928100809181008260809381008091F8
:100CC00081008160809381008091800081608093A9
:100CD00080008091B10084608093B1008091B00069
:100CE00081608093B0008091910082608093910038
:100CF000809191008160809391008091900081604B
:100D0000809390008091A10082608093A1008091E7
:100D1000A10081608093A1008091A00081608093F8
:100D2000A0008091210182608093210180912101A6
:100D30008160809321018091200181608093200156
:100D400080917A00846080937A0080917A0082603A
:100D500080937A0080917A00816080937A008091FC
:100D60007A00806880937A001092C100E0916B084D
:100D7000F0916C0882E08083E0916708F091680848
:100D80001082E0916908F0916A088FEC80831092DC
:100D90007308E0916F08F091700886E08083E0911D
:100DA0006D08F0916E08808180618083E0916D080C
:100DB000F0916E08808188608083E0916D08F091E9
:100DC0006E08808180688083E0916D08F0916E08E4
:100DD00080818F7D80834FE050E063E378E08BE596
:100DE00098E00E947D010E94520410E000E0809192
:100DF000AC099091AD09081719073CF421E04CE0CB
:100E0000B80186E599E00E943D038091AC0990917C
:100E1000AD09081719073CF428E04AE0B80186E557
:100E200099E00E943D03B80186E599E00E94230401
:100E30008091540990915509081719073CF421E055
:100E40004CE0B8018EEF98E00E943D038091540978
:100E500090915509081719073CF428E04AE0B801B9
:100E60008EEF98E00E943D03B8018EEF98E00E945B
:100E700023040F5F1F4F0330110509F0B8CF9E0107
:100E80002F5E3F4F3A8B298B412C512C32014394DA
:100E90004DB75EB75E8B4D8B8BE598E00E94DB0112
:100EA000181619060CF05CC090E080E00E945A040D
:100EB0002091F8083091F908811148C021153105B9
:100EC00019F0C9010E94130A1092F9081092F8084B
:100ED0001092FD081092FC081092FB081092FA087C
:100EE0008BE598E00E94DB0118161906CCF54DE061
:100EF00050E063E478E08BE598E00E947D010E9479
:100F000052048BE598E00E94B90189831A8200910E
:100F1000FC081091FD080F5F1F4FC8010E945A0482
:100F20008823F1F22091F8083091F9088091FC08AB
:100F30009091FD08BE016F5F7F4F820F931F0E944B
:100F4000860B1093FD080093FC08CACF1092FD0891
:100F50001092FC0862E378E0C9010E94860BC0CFC2
:100F60008091FC089091FD080196ADB7BEB7A81B13
:100F7000B90B0FB6F894BEBF0FBEADBF0DB71EB70D
:100F80000F5F1F4F6091F8087091F908C8010E9427
:100F9000860BF80101900020E9F73197C8018E1BFC
:100FA0009F0B38E1832E912CFC0143E0EE0FFF1FD5
:100FB0004A95E1F7F88FEF8B2F89388D82169306CB
:100FC0000CF47AC114011C8B0B8BF80101900020EA
:100FD000E9F73197E01BF10B8B899C89801B910B02
:100FE0008E179F0708F064C1AB89BC898D91BC8BBB
:100FF000AB8B98E0E6E0F2E0DE01199601900D92ED
:101000009A95E1F798E0E6E0F2E0DE0111960190B2
:101010000D929A95E1F790EE980F9F3508F0AEC0CB
:10102000DE011996FE0131967F01082E000C990B06
:10103000809723E0880F991F2A95E1F730E020E0A0
:10104000AC01420F531FBA016A5E7A4FFB01608107
:101050006D93425F5D4FFA014081F70141937F013B
:101060002F5F3F4F2830310559F7FE013996B12CDB
:10107000C12CD12CE12CF12CB0E0A0E030E090E0CC
:1010800080E02191B301A201082E04C0440F551F36
:10109000661F771F0A94D2F720FF89C0342B21FFE7
:1010A0008AC0A42B22FF8BC0B42B23FF8CC0F42A50
:1010B00024FF8DC0E42A25FF8EC0D42A26FF8FC0CE
:1010C000C42A27FF90C0B42A019688309105C9F63A
:1010D000B986CA86DB86EC86FD86BE87AF87388BED
:1010E000FE013196B12CC12CD12CE12CF12CB0E0B9
:1010F000A0E030E090E080E02191B301A201082E51
:1011000004C0440F551F661F771F0A94D2F720FFB3
:101110006DC0342B21FF6EC0A42B22FF6FC0B42BF7
:1011200023FF70C0F42A24FF71C0E42A25FF72C097
:10113000D42A26FF73C0C42A27FF74C0B42A01969C
:1011400088309105C9F6B982CA82DB82EC82FD82C1
:10115000BE83AF833887D12CC12C7601E20CF31CFF
:10116000B12CA12C58E0E516F1040CF45EC08FEF11
:10117000A81AB80A98E0E91AF108F4CF2EE038E08E
:10118000FE01399686E095E0BE016F5F7F4FD90181
:101190004D919D014193DC014D91CD01DB014D93BA
:1011A000BD0149895A89E417F50789F75ECFA42E56
:1011B000A0943A2174CFA42EA094AA2173CFA42E78
:1011C000A094BA2172CFA42EA094FA2071CFA42E9D
:1011D000A094EA2070CFA42EA094DA206FCFA42E82
:1011E000A094CA206ECF4095B4226ECFA42EA094B6
:1011F0003A2190CFA42EA094AA218FCFA42EA09400
:10120000BA218ECFA42EA094FA208DCFA42EA09424
:10121000EA208CCFA42EA094DA208BCFA42EA09409
:10122000CA208ACF4095B4228ACF8091AC09909190
:10123000AD09A816B9068CF5A8E0EA16F10468F421
:10124000E9E0F0E0EC0FFD1FEC0DFD1D2081A70192
:10125000B50186E599E00E94B90380915409909107
:101260005509A816B9068CF4B8E0EB16F10468F439
:10127000E1E0F0E0EC0FFD1FEC0DFD1D2081A7016A
:10128000B5018EEF98E00E94B903EFEFCE1ADE0AA7
:10129000F8E0CF16D10409F060CF8BE598E00E940A
:1012A000DB0128E0220E311C181619060CF08DCE39
:1012B00031E0831A910880CE4D895E890FB6F8948B
:1012C0005EBF0FBE4DBF0E948002E2CD8091F80844
:1012D0009091F908009711F00C94130A0895EE0FFD
:1012E000FF1F881F8BBF0790F691E02D19940F9375
:1012F0001F93CF93DF938230910510F482E090E04A
:10130000E091B009F091B10930E020E0B0E0A0E058
:10131000309799F42115310509F44AC0281B390B7F
:1013200024303105D8F58A819B816115710589F1D9
:10133000FB0193838283FE0111C0408151810281B0
:10134000138148175907E0F04817590799F4109787
:1013500061F012960C93129713961C933296CF015C
:10136000DF91CF911F910F9108950093B0091093D1
:10137000B109F4CF2115310551F04217530738F068
:10138000A901DB019A01BD01DF01F801C1CFEF0125
:10139000F9CF9093B1098093B009CDCFFE01E20F50
:1013A000F31F819391932250310939832883D7CF3A
:1013B0002091AE093091AF09232B41F42091020214
:1013C000309103023093AF092093AE0920910002BF
:1013D000309101022115310541F42DB73EB74091FE
:1013E000040250910502241B350BE091AE09F091E7
:1013F000AF09E217F307A0F42E1B3F0B281739079C
:1014000078F0AC014E5F5F4F2417350748F04E0F60
:101410005F1F5093AF094093AE09819391939FCF83
:10142000F0E0E0E09CCFCF93DF930097E9F0FC0180
:10143000329713821282A091B009B091B109ED01E7
:1014400030E020E01097A1F420813181820F931FBA
:101450002091AE093091AF092817390709F061C012
:10146000F093AF09E093AE09DF91CF910895EA01BF
:10147000CE17DF07E8F54A815B819E0141155105D2
:10148000B1F7E901FB83EA8349915991C40FD51F54
:10149000EC17FD0761F4808191810296840F951FFE
:1014A000E90199838883828193819B838A83F0E019
:1014B000E0E012968D919C9113970097B9F52D91CC
:1014C0003C911197CD010296820F931F2091AE0996
:1014D0003091AF092817390739F6309751F5109236
:1014E000B1091092B009B093AF09A093AE09BCCF77
:1014F000D383C28340815181840F951FC817D907B8
:1015000061F44E5F5F4F88819981480F591F518365
:1015100040838A819B81938382832115310509F061
:10152000B0CFF093B109E093B0099ECFFD01DC018B
:10153000C0CF13821282D7CF4F925F926F927F9269
:101540008F929F92AF92BF92CF92DF92EF92FF92D3
:101550000F931F93CF93DF938C01009799F4CB01E6
:10156000DF91CF911F910F91FF90EF90DF90CF907F
:10157000BF90AF909F908F907F906F905F904F90B3
:101580000C947709FC01E60FF71F9C0122503109EA
:10159000E217F30708F4AEC0D901CD91DC911197A1
:1015A000C617D70720F1C530D10578F0CE010497D2
:1015B0008617970750F0C61BD70B2297C193D1937C
:1015C0006D937C93CF010E94130AC801DF91CF91E4
:1015D0001F910F91FF90EF90DF90CF90BF90AF9051
:1015E0009F908F907F906F905F904F9008955B01D8
:1015F000AC1ABD0A4C018C0E9D1EA091B009B09191
:10160000B109512C412CF12CE12C109731F580912E
:10161000AE099091AF098815990509F05CC046168E
:10162000570608F058C0809100029091010200977F
:1016300041F48DB79EB74091040250910502841B7E
:10164000950BE817F90708F055C0F093AF09E09340
:10165000AE09F90171836083B8CF8D919C91119788
:1016600012966C90129713967C901397A815B90553
:1016700059F56C0142E0C40ED11CCA14DB0420F100
:10168000AC014A195B09DA011296159780F0628263
:10169000738251834083D9016D937C93E114F104EB
:1016A00071F0D7011396FC93EE9312978ECF22968A
:1016B0008C0F9D1FF90191838083F301EFCFF0938D
:1016C000B109E093B00981CF4816590608F42C01FE
:1016D0007D01D3019ACFCB010E9477097C0100974D
:1016E00049F0AE01B8010E947D0BC8010E94130AA7
:1016F00087016BCF10E000E068CFFB01DC0102C086
:1017000001900D9241505040D8F70895FB01DC0143
:1017100001900D920020E1F7089511E0CAE2D1E0B6
:1017200000E006C0802FFE010E946F092196011D76
:0E173000CB32D10780E00807A9F7F894FFCF6D
:10173E000000B209800000082A1C771C2A0800004D
:10174E0000000000000018180000181818180000FB
:10175E000000000000006666FEFE666666663838AB
:10176E000C0C8C8C787830306060C6C6C6C63838A3
:10177E0058588C8C76760000000000000000303047
:10178E00303018180C0C0C0C0C0C18186060383813
:10179E00FEFE383844447E7E1818181800000000EB
:1017AE000000181818187E7E0000000000000000CF
:1017BE00000018181818181830306060C0C0444463
:1017CE004444444438381818181818183C3C181853
:1017DE00303040407C7C18180404444438384C4C5B
:1017EE007E7E0C0C0C0C04040404444438387878C7
:1017FE00444444443838080818181818181838384B
:10180E004444444438383C3C0404444438380000D2
:10181E00000018181818000000001818181830309A
:10182E0018180C0C040400007E7E000000000C0C46
:10183E0018186060404018181818000018185C5CE2
:10184E005C5C40403C3C44447C7C4444444478785A
:10185E0044444444787840404040444438384444FA
:10186E004444444478787878404040407C7C787892
:10187E004040404040405C5C4444444438387C7CAA
:10188E0044444444444418181818181838380C0C9A
:10189E004C4C4C4C383860605050484844444040A2
:1018AE00404040407C7C44444444444444444C4C7A
:1018BE00444444444444444444444444383878788A
:1018CE00404040404040444454544C4C3838787862
:1018DE005050484844443838040444443838282882
:1018EE00282828282828444444444444383844446A
:1018FE00444428281010444454546C6C4444101032
:10190E002828444444443838101010101010101079
:10191E00202040407C7C20202020202038380808C1
:10192E0004040202010108080808080838380000FB
:10193E000000000000000000000000007C7C0000A1
:10194E000000000000003C3C444444443C3C444401
:10195E0044444444787840404040444438384444F9
:10196E00444444443C3C7C7C404044443838787881
:10197E002020202020203C3C040444443838444499
:10198E0044444444444410101010101038380808D1
:10199E000808484830305050606050504848101089
:1019AE001010101038385454545454545454444451
:1019BE004444444444444444444444443838787889
:1019CE004040404040403C3C040404040404404079
:1019DE0040404040404038380404444438382020C9
:1019EE002020242418184444444444443C3C444499
:1019FE00444428281010444454546C6C4444282801
:101A0E001010282844443C3C040444443838101038
:101A1E00202040407C7C40402020202018181010B0
:101A2E00101010101010080810101010606077774A
:101A3E00DCDC0000000042423C3C101030304444DC
:101A4E004444383800000000000000000000000090
:101A5E001818181818180000666666666666000084
:101A6E0066666666FEFE000018183C3C44440000A4
:101A7E00C6C6CCCC18180000383844444444000084
:101A8E0018181818181800000C0C18183030000010
:101A9E00606018180C0C00000000000044440000A8
:101AAE0000001818181800000000000000000000C8
:101ABE000000000000000000000000000000000018
:101ACE00020206060C0C0000383844444444000060
:101ADE001818383818180000383844440404000028
:101AEE0038384444040400000C0C1C1C2C2C000040
:101AFE007C7C4040787800003838444440400000F8
:101B0E007C7C4444040400003838444444440000BF
:101B1E0038384444444400000000181818180000D7
:101B2E00000018181818000004040C0C18180000F7
:101B3E00000000007E7E000040406060181800002B
:101B4E003838444404040000383844445C5C0000D7
:101B5E0018183C3C44440000787844444444000047
:101B6E0038384444404000007878444444440000EF
:101B7E007C7C4040404000007C7C40404040000067
:101B8E003838444440400000444444444444000037
:101B9E0038381818181800001C1C0C0C0C0C0000FF
:101BAE0044444848505000004040404040400000EF
:101BBE0044446C6C54540000444464645454000017
:101BCE003838444444440000787844444444000087
:101BDE003838444444440000787844444444000077
:101BEE0038384444404000007C7C282828280000D7
:101BFE0044444444444400004444444444440000A7
:101C0E0044444444444400004444444428280000CE
:101C1E0044444444444400007C7C0404080800000E
:101C2E0038382020202000004040202010100000D6
:101C3E00383808080808000010102828444400000E
:101C4E000000000000000000181818180C0C00000E
:101C5E00000038380404000040404040787800000E
:101C6E000000383844440000040404043C3C0000E6
:101C7E0000003838444400001C1C2424202000009E
:101C8E003C3C4444444400004040404078780000CE
:101C9E001010000030300000080800001818000076
:101CAE0040404040484800003030101010100000F6
:101CBE0000006C6C5454000000007878444400001E
:101CCE00000038384444000078784444444400000E
:101CDE003C3C4444444400000000787844440000F6
:101CEE0000003C3C4040000020202020787800007E
:101CFE0000004444444400000000444444440000B6
:101D0E0000004444444400000000444444440000A5
:101D1E00444444444444000000007C7C0808000015
:101D2E001818202020200000101010101010000095
:101D3E0060601010101000000000000000003C3C1D
:101D4E004242404040400000000044440000000079
:101D5E00000013027D01AA016002DB01B901CD0171
:101D6E000D0A005365747570205465726D696E614D
:101D7E00646F004461746F20726563696269646F99
:021D8E00000053
:00000001FF
