:100000000C942B010C945C010C945C010C945C012D
:100010000C945C010C945C010C945C010C945C01EC
:100020000C945C010C945C010C945C010C945C01DC
:100030000C945C010C945C010C945C010C945C01CC
:100040000C945C010C945C010C945C010C945C01BC
:100050000C945C010C945C010C945C010C940D05F7
:100060000C945C010C94D7040C94AD040C945C01CA
:100070000C945C010C945C010C945C010C945C018C
:100080000C945C010C945C010C945C010C945C017C
:100090000C945C010C945C010C945C010C945C016C
:1000A0000C945C010C945C010C945C010C945C015C
:1000B0000C945C010C945C010C945C010C945C014C
:1000C0000C945C010C945C010C945C010C945C013C
:1000D0000C945C010C945C010C945C010C945C012C
:1000E0000C945C010C940D030C94CD010C94F8025B
:1000F0000C94D9050C94B9010C9407030C9460027C
:100100000C9425030C941F030C94E6020C94170323
:100110000C94E1020C9400030C9433030C9404033C
:100120000C9423090C9411030C94DB010C942D0303
:100130000C94FC020C9429030C941B030C941302E2
:100140000C94AA010C947D010C94370300000A0B57
:1001500002090C0D0E080703040100000000000056
:10016000000000000000000000000000000000008F
:10017000000000000000000012111000000000004C
:10018000000000000000000000000000000000006F
:10019000000000002200250028002B002E00310066
:1001A000340002010000050108010B0100002100DC
:1001B000240027002A002D00300033000101000038
:1001C000040107010A0105050505070508080808D7
:1001D000020202020A0A08080404040401010101DF
:1001E00001010101030303030303030304070707DA
:1001F0000C0C0C0C0C0C0C0C02020202060606067F
:10020000060606060B0B0B0B0B0B0B0B010210204B
:10021000200808102040102040800201020108043C
:1002200002010102040810204080804020100804D0
:100230000201800402018040201008040201080429
:10024000020101020408102040800102040810206D
:100250004080D905230911241FBECFEFD1E2DEBFB4
:10026000CDBF00E00CBF26E0A2E4B5E001C01D92C6
:10027000A23AB207E1F715E0A0E0B2E0E8EBF6E160
:1002800000E00BBF02C007900D92A234B107D9F76E
:1002900011E0CAE2D1E000E006C021970109802FF9
:1002A000FE010E942C09C932D10780E00807A9F796
:1002B0000E9461060C944A0B0C94000090E0FC0133
:1002C000E45FFD4F24918A539E4FFC018491882363
:1002D00099F090E0880F991FFC01E455FE4FA5911D
:1002E000B491FC01EE56FE4F859194918FB7F8942E
:1002F000EC91E22BEC938FBF0895AF92BF92CF9217
:10030000DF92EF92FF920F931F93CF93DF936C01D5
:100310007B018B01040F151FEB015E01AE18BF08B6
:10032000C017D10759F06991D601ED91FC91019068
:10033000F081E02DC6011995892B79F7C501DF9170
:10034000CF911F910F91FF90EF90DF90CF90BF90D2
:10035000AF900895FC01538D448D252F30E0842FFC
:1003600090E0821B930B541710F0CF9608950197DD
:100370000895FC01918D828D981761F0A28DAE0FCA
:10038000BF2FB11D5D968C91928D9F5F9F73928F51
:1003900090E008958FEF9FEF0895FC01918D828D7D
:1003A000981731F0828DE80FF11D858D90E008954A
:1003B0008FEF9FEF0895FC01918D228D892F90E0A2
:1003C000805C9F4F821B91098F73992708958BE45E
:1003D00095E00E94DB0121E0892B09F420E0822FC7
:1003E0000895FC01A48DA80FB92FB11DA35ABF4FCA
:1003F0002C91848D90E001968F739927848FA68924
:10040000B7892C93A089B1898C91837080648C9377
:10041000938D848D981306C00288F389E02D808126
:100420008F7D80830895EF92FF920F931F93CF9358
:10043000DF93EC0181E0888F9B8D8C8D98131AC01F
:10044000E889F989808185FF15C09FB7F894EE8906
:10045000FF896083E889F989808183708064808363
:100460009FBF81E090E0DF91CF911F910F91FF90AE
:10047000EF900895F62E0B8D10E00F5F1F4F0F7356
:100480001127E02E8C8D8E110CC00FB607FCFACF11
:10049000E889F989808185FFF5CFCE010E94F101BD
:1004A000F1CFEB8DEC0FFD2FF11DE35AFF4FF082E2
:1004B0009FB7F8940B8FEA89FB8980818062CFCF48
:1004C000CF93DF93EC01888D8823B9F0AA89BB898B
:1004D000E889F9898C9185FD03C0808186FD0DC076
:1004E0000FB607FCF7CF8C9185FFF2CF808185FF97
:1004F000EDCFCE010E94F101E9CFDF91CF910895B8
:1005000080E090E0892B29F00E94E70181110E9490
:10051000000080E090E0892B49F080E090E0892B9A
:1005200029F00E94000081110E94000080E090E00C
:10053000892B49F080E090E0892B29F00E9400008F
:1005400081110E94000080E090E0892B49F080E05A
:1005500090E0892B29F00E94000081110C9400008A
:100560000895282F30E0F901E45BFE4F9491F901E2
:10057000E45FFD4F44912A533E4FF9012491222319
:1005800009F435C0992311F191509231F8F4E92F13
:10059000F0E08827E153FD4F8F4F0C942C090003A6
:1005A0000403E102F802FC02E60207030D03110353
:1005B00017031B031F0325032903E6022D0333033F
:1005C0003703809180008F7780938000E22FF0E0E6
:1005D000EE0FFF1FEE56FE4FA591B4918FB7F89422
:1005E000EC91611148C040954E234C938FBF089504
:1005F000809180008F7DE8CF80918000877FE4CF5D
:1006000084B58F7784BDE2CF84B58F7DFBCF809199
:10061000B0008F778093B000D9CF8091B0008F7DEC
:10062000F9CF809190008F7780939000CFCF809109
:1006300090008F7DF9CF80919000877FF5CF8091DA
:10064000A0008F778093A000C1CF8091A0008F7D04
:10065000F9CF8091A000877FF5CF809120018F771F
:1006600080932001B3CF809120018F7DF9CF8091BD
:100670002001877FF5CF4E2BB8CF3FB7F8948091FC
:10068000470590914805A0914905B0914A0526B5C6
:10069000A89B05C02F3F19F00196A11DB11D3FBFBA
:1006A000BA2FA92F982F8827BC01CD01620F711D89
:1006B000811D911D42E0660F771F881F991F4A9583
:1006C000D1F708954F925F926F927F928F929F928F
:1006D000AF92BF92CF92DF92EF92FF920F931F9350
:1006E000CF93DF931F921F92CDB7DEB78C01498362
:1006F0002A83660F771FF801EA5AFF4FE080F180E6
:10070000EE0CFF1CF801CF01801B910B8E159F058D
:1007100014F41192F8CF8981F801E60FF71F818355
:100720008A818083680184E5C80ED11C60E0F601EF
:1007300080810E94B1025801F2E5AF0EB11C480160
:1007400080E5880E911C1E141F040CF5E1E0EE1AE2
:10075000F108F801EE0DFF1D6080F5015080F401F5
:10076000408088E0782E662D661F6627661F842DE0
:100770000E94B102660C61E0852D0E94B10260E02A
:10078000852D0E94B1027A947110EDCFDCCF61E02B
:10079000F60180810F900F90DF91CF911F910F9103
:1007A000FF90EF90DF90CF90BF90AF909F908F9091
:1007B0007F906F905F904F900C94B1023F924F9258
:1007C0005F926F927F928F929F92AF92BF92CF92E1
:1007D000DF92EF92FF920F931F93CF93DF93EC0181
:1007E0008B015A013B0183E0660C771C8A95E1F787
:1007F00080E890E002C0959587954A95E2F7482EEB
:10080000582E509448E050E04E0136E5830E911C7E
:10081000E22EF12C99E0392EF401808191819A0128
:1008200021503109690108171907DCF4B7FC19C018
:10083000F301E41BF50BEC0FFD1F808D97010C2CD1
:1008400002C0359527950A94E2F720FF1FC084293E
:10085000808F332D341B432F208DB801CE010E9491
:100860006203A601CD28C1F6DF91CF911F910F91B0
:10087000FF90EF90DF90CF90BF90AF909F908F90C0
:100880007F906F905F904F903F9008958521E0CFCB
:10089000DF92EF92FF920F931F93CF93DF93FC01B0
:1008A000EA5AFF4F2081318162177307C4F47B013C
:1008B0008C01EB0183E0CC0FDD1F8A95E1F7609698
:1008C000C00FD11FDD24D394199220E04D2DB70124
:1008D000C8010E946203D39489E0D812F5CFDF915A
:1008E000CF911F910F91FF90EF90DF90089542E01C
:1008F00050E060E275E08BE495E00C947D01CF93CD
:10090000DF93EC018091E8059091E905009759F09B
:100910002091EA053091EB052C173D0720F081E08E
:10092000DF91CF910895BE016F5F7F4F0E94590AFA
:10093000009789F09093E9058093E805D093EB0543
:10094000C093EA052091EC053091ED05232B39F792
:10095000FC011082E4CF80E0E3CF1F920F920FB62C
:100960000F9211240BB60F922F933F934F935F93E7
:100970006F937F938F939F93AF93BF93EF93FF9367
:100980008BE495E00E94F101FF91EF91BF91AF914F
:100990009F918F917F916F915F914F913F912F9197
:1009A0000F900BBE0F900FBE0F901F9018951F92C7
:1009B0000F920FB60F9211240BB60F922F938F93B5
:1009C0009F93EF93FF93E0915B05F0915C0580812D
:1009D000E0916105F091620582FD1DC090818091DA
:1009E00064058F5F8F7320916505821741F0E09158
:1009F0006405F0E0E55BFA4F958F80936405FF9105
:100A0000EF919F918F912F910F900BBE0F900FBE82
:100A10000F901F9018958081F2CF1F920F920FB602
:100A20000F9211242F933F938F939F93AF93BF9374
:100A30008091430590914405A0914505B0914605EC
:100A40003091420523E0230F2D3758F50196A11D63
:100A5000B11D209342058093430590934405A093D4
:100A60004505B09346058091470590914805A091B2
:100A70004905B0914A050196A11DB11D8093470516
:100A800090934805A0934905B0934A05BF91AF9153
:100A90009F918F913F912F910F900FBE0F901F90BC
:100AA000189526E8230F0296A11DB11DD2CF8F9273
:100AB0009F92AF92BF92CF92DF92EF92FF920F93ED
:100AC0001F93CF93DF938C01D62EC72EEC01C05B12
:100AD000DF4F688379834C0182E5880E911CF40115
:100AE000518340835801F4E5AF0EB11CF501318309
:100AF00020837801F6E5EF0EF11C83E090E0F7012A
:100B000091838083862F0E945E01F40180810E9480
:100B10005E01F50180810E945E0161E0F501808146
:100B20000E94B102D882C982F80170961192EC1726
:100B3000FD07E1F7D0E0C0E0F70180819181C8179F
:100B4000D90754F520E04FE0BE01C8010E946203BE
:100B5000F70180819181C817D90734F427E04BE071
:100B6000BE01C8010E94620320E049E0BE01C80145
:100B70000E946203BE01C8010E944804F7018081FF
:100B80009181C817D90734F420E04CE0BE01C801B8
:100B90000E9462032196D0CFDF91CF911F910F91D8
:100BA000FF90EF90DF90CF90BF90AF909F908F908D
:100BB000089510924E0510924D0588EE93E0A0E046
:100BC000B0E080934F0590935005A0935105B093EA
:100BD000520582E195E090934C0580934B0585EC9E
:100BE00090E0909358058093570584EC90E09093A3
:100BF0005A058093590580EC90E090935C058093B2
:100C00005B0581EC90E090935E0580935D0582EC3E
:100C100090E09093600580935F0586EC90E0909360
:100C2000620580936105109264051092650510922B
:100C300066051092670527E130E046E150E068E183
:100C400070E086E496E00E9457052AE130E049E131
:100C500050E06BE170E08EEE95E00E945705109237
:100C6000E9051092E8051092EB051092EA05109242
:100C7000ED051092EC0590E080E00E947F04209149
:100C8000E8053091E905811113C02115310519F0EE
:100C9000C9010E94D0091092E9051092E80510924E
:100CA000ED051092EC051092EB051092EA050895FF
:100CB0001092ED051092EC0562E275E0C9010C940A
:100CC000430BCF93DF93CDB7DEB761970FB6F894A0
:100CD000DEBF0FBECDBF789484B5826084BD84B57D
:100CE000816084BD85B5826085BD85B5816085BD27
:100CF00080916E00816080936E00109281008091DF
:100D00008100826080938100809181008160809366
:100D10008100809180008160809380008091B1008B
:100D200084608093B1008091B00081608093B000B6
:100D30008091910082608093910080919100816008
:100D400080939100809190008160809390008091C9
:100D5000A10082608093A1008091A10081608093B6
:100D6000A1008091A00081608093A000809121016A
:100D70008260809321018091210181608093210113
:100D80008091200181608093200180917A008460AD
:100D900080937A0080917A00826080937A008091BB
:100DA0007A00816080937A0080917A0080688093D5
:100DB0007A001092C100E0915B05F0915C0582E041
:100DC0008083E0915705F09158051082E091590514
:100DD000F0915A058FEC808310926305E0915F05D6
:100DE000F091600586E08083E0915D05F0915E05FD
:100DF000808180618083E0915D05F0915E05808156
:100E000088608083E0915D05F0915E058081806857
:100E10008083E0915D05F0915E0580818F7D808308
:100E20004FE050E063E275E08BE495E00E947D01C5
:100E30000E94770410E000E080919C0690919D064E
:100E4000081719073CF421E04CE0B80186E496E06D
:100E50000E94620380919C0690919D0608171907D5
:100E60003CF428E04AE0B80186E496E00E94620380
:100E7000B80186E496E00E9448048091440690916F
:100E80004506081719073CF421E04CE0B8018EEE46
:100E900095E00E94620380914406909145060817F0
:100EA00019073CF428E04AE0B8018EEE95E00E9474
:100EB0006203B8018EEE95E00E9448040F5F1F4F59
:100EC0000330110509F0B8CF9E012F5F3F4F590144
:100ED000CE0109969C878B87ADB7BEB7BF87AE871B
:100EE0008BE495E00E94DB01181619060CF05CC03B
:100EF00090E080E00E947F042091E8053091E905B0
:100F0000811148C02115310519F0C9010E94D0098D
:100F10001092E9051092E8051092ED051092EC058B
:100F20001092EB051092EA058BE495E00E94DB013C
:100F300018161906CCF54DE050E063E375E08BE43C
:100F400095E00E947D010E9477048BE495E00E9469
:100F5000B90189871A860091EC051091ED050F5FA4
:100F60001F4FC8010E947F048823F1F22091E805F9
:100F70003091E9058091EC059091ED05BE01675F28
:100F80007F4F820F931F0E94430B1093ED05009338
:100F9000EC05CACF1092ED051092EC0562E275E007
:100FA000C9010E94430BC0CF8091EC059091ED05E3
:100FB0000196EDB7FEB7E81BF90B0FB6F894FEBF2C
:100FC0000FBEEDBF0DB71EB70F5F1F4F6091E80555
:100FD0007091E905C8010E94430BF80101900020BF
:100FE000E9F73197C8018E1B9F0B38E1632E712CF6
:100FF0009C0143E0220F331F4A95E1F7398B288B80
:1010000088899989681679060CF413C113012A1886
:101010003B082801F80101900020E9F73197E01B17
:10102000F10BC201801B910B8E179F0708F0D9C0EE
:10103000D2018D912D0198E0E6E0F2E0D50101901A
:101040000D929A95E1F790EE980F9F3508F458C0ED
:101050001A821B821C821D821E821F8218864501F5
:10106000D12CE12CF12CF0E0E0E070E060E030E029
:1010700050E040E0D4012D914D0181E090E0A0E0EE
:10108000B0E0042E04C0880F991FAA1FBB1F0A944A
:10109000D2F720FF4EC0382B21FF4FC0682B22FF14
:1010A00050C0782B23FF51C0E82B24FF52C0F82BEF
:1010B00025FF53C0F82A26FF54C0E82A27FF55C051
:1010C000D82A4F5F5F4F48305105A1F6D982EA8296
:1010D000FB82FC83ED837E836F8338874501740137
:1010E000E20CF31CD12CC12CB8E0EB16F1040CF48B
:1010F0003FC0EFEFCE1ADE0AF8E0EF1AF108F4CFA6
:10110000082E000C990B809723E0880F991F2A95D1
:10111000E1F7D50130E020E0F901E80FF91FE25FC7
:10112000FD4F40814D932F5F3F4F28303105A1F790
:1011300096CFC82EC0943C21AFCFC82EC0946C214E
:10114000AECFC82EC0947C21ADCFC82EC094EC2168
:10115000ACCFC82EC094FC21ABCFC82EC094FC20CD
:10116000AACFC82EC094EC20A9CF8095D822A9CFB1
:1011700080919C0690919D06C816D9063CF5D40135
:10118000ED914D01ED87F8E0EF16F10438F42E2FC4
:10119000A701B60186E496E00E94DE038091440632
:1011A00090914506C816D9065CF428E0E216F104D1
:1011B00038F42D85A701B6018EEE95E00E94DE037E
:1011C0008B859C858816990609F089CF8BE495E07C
:1011D0000E94DB01A8E02A0E311C181619060CF03B
:1011E00019CF0E943D031B012C0189E1C82ED12C8F
:1011F000E12CF12C0E943D036219730984099509C1
:10120000683E734081059105A8F3B1E0CB1AD1087F
:10121000E108F108E8EE2E0EE3E03E1E411C511CF1
:10122000C114D104E104F10429F721E0621A710824
:10123000E7CE8E859F850FB6F8949EBF0FBE8DBFFB
:101240000E94800249CE8091E8059091E9050097BF
:1012500011F00C94D0090895EE0FFF1F881F8BBF6B
:101260000790F691E02D19940F931F93CF93DF937E
:101270008230910510F482E090E0E091A006F091B8
:10128000A10630E020E0B0E0A0E0309799F421150D
:10129000310509F44AC0281B390B24303105D8F533
:1012A0008A819B816115710589F1FB01938382839A
:1012B000FE0111C0408151810281138148175907F5
:1012C000E0F04817590799F4109761F012960C93C3
:1012D000129713961C933296CF01DF91CF911F91F5
:1012E0000F9108950093A0061093A106F4CF211545
:1012F000310551F04217530738F0A901DB019A017B
:10130000BD01DF01F801C1CFEF01F9CF9093A10634
:101310008093A006CDCFFE01E20FF31F819391933E
:101320002250310939832883D7CF20919E063091EE
:101330009F06232B41F42091020230910302309347
:101340009F0620939E0620910002309101022115F4
:10135000310541F42DB73EB740910402509105028A
:10136000241B350BE0919E06F0919F06E217F307D0
:10137000A0F42E1B3F0B2817390778F0AC014E5F05
:101380005F4F2417350748F04E0F5F1F50939F069D
:1013900040939E06819391939FCFF0E0E0E09CCF35
:1013A000CF93DF930097E9F0FC013297138212820A
:1013B000A091A006B091A106ED0130E020E01097C9
:1013C000A1F420813181820F931F20919E063091DC
:1013D0009F062817390709F061C0F0939F06E09334
:1013E0009E06DF91CF910895EA01CE17DF07E8F559
:1013F0004A815B819E0141155105B1F7E901FB83EB
:10140000EA8349915991C40FD51FEC17FD0761F488
:10141000808191810296840F951FE90199838883C9
:10142000828193819B838A83F0E0E0E012968D9124
:101430009C9113970097B9F52D913C911197CD018F
:101440000296820F931F20919E0630919F062817C7
:10145000390739F6309751F51092A1061092A0067F
:10146000B0939F06A0939E06BCCFD383C2834081D6
:101470005181840F951FC817D90761F44E5F5F4FE4
:1014800088819981480F591F518340838A819B81AC
:10149000938382832115310509F0B0CFF093A10623
:1014A000E093A0069ECFFD01DC01C0CF1382128223
:1014B000D7CF4F925F926F927F928F929F92AF920F
:1014C000BF92CF92DF92EF92FF920F931F93CF9331
:1014D000DF938C01009799F4CB01DF91CF911F919D
:1014E0000F91FF90EF90DF90CF90BF90AF909F90C3
:1014F0008F907F906F905F904F900C943409FC0117
:10150000E60FF71F9C0122503109E217F30708F498
:10151000AEC0D901CD91DC911197C617D70720F144
:10152000C530D10578F0CE0104978617970750F0A3
:10153000C61BD70B2297C193D1936D937C93CF0198
:101540000E94D009C801DF91CF911F910F91FF90A8
:10155000EF90DF90CF90BF90AF909F908F907F9053
:101560006F905F904F9008955B01AC1ABD0A4C01DB
:101570008C0E9D1EA091A006B091A106512C412C6D
:10158000F12CE12C109731F580919E0690919F06E9
:101590008815990509F05CC04616570608F058C032
:1015A0008091000290910102009741F48DB79EB79F
:1015B0004091040250910502841B950BE817F9072E
:1015C00008F055C0F0939F06E0939E06F9017183E1
:1015D0006083B8CF8D919C91119712966C90129761
:1015E00013967C901397A815B90559F56C0142E044
:1015F000C40ED11CCA14DB0420F1AC014A195B09EA
:10160000DA011296159780F06282738251834083CB
:10161000D9016D937C93E114F10471F0D701139615
:10162000FC93EE9312978ECF22968C0F9D1FF9019B
:1016300091838083F301EFCFF093A106E093A0069E
:1016400081CF4816590608F42C017D01D3019ACFA9
:10165000CB010E9434097C01009749F0AE01B8012A
:101660000E943A0BC8010E94D00987016BCF10E09D
:1016700000E068CFFB01DC0102C001900D924150F7
:101680005040D8F70895FB01DC0101900D92002035
:10169000E1F7089511E0CAE2D1E000E006C0802F32
:1016A000FE010E942C092196011DCB32D10780E05A
:0816B0000807A9F7F894FFCF29
:1016B8000000A206800000082A1C771C2A080000E7
:1016C800000000000000001818181800181800661C
:1016D800666600000000006666FE66FE6666001824
:1016E8003C44380C8C7800C6CC183060C6C600382C
:1016F800444438588C760018181800000000000C74
:1017080018303030180C0060180C0C0C18600000F1
:10171800004438FE3844000018187E1818000000ED
:10172800000000001818000000007E000000000003
:101738000000000018180002060C183060C00038BD
:10174800444444444438001838181818183C0038E1
:1017580044041830407C0038440418044438000C11
:101768001C2C4C7E0C0C007C407804044438003857
:10177800444078444438007C440408181818003859
:10178800444438444438003844443C044438000055
:10179800181800001818000018180000181800047D
:1017A8000C1830180C040000007E007E0000004079
:1017B80060180C18604000384404181800180038E5
:1017C800445C5C5C403C00183C44447C44440078E5
:1017D80044447844447800384440404044380078D1
:1017E800444444444478007C40407840407C007C39
:1017F800404078404040003844405C44443800440D
:1018080044447C4444440038181818181838001CFC
:101818000C0C0C4C4C380044485060504844004074
:1018280040404040407C00446C544444444400449C
:1018380064544C4444440038444444444438007894
:101848004444784040400038444444544C3800787C
:101858004444785048440038444038044438007CB4
:10186800282828282828004444444444443800446C
:101878004444444428100044444444546C440044C0
:101888004428102844440044444438101010007C74
:1018980004081020407C00382020202020380040F8
:1018A8002010080402010038080808080838001049
:1018B800284400000000000000000000007C001820
:1018C800180C00000000000038043C44443C004070
:1018D8004078444444780000384440404438000488
:1018E800043C4444443C000038447C404438001CD8
:1018F800242078202020003C44443C044438004004
:101908004078444444440010003010101038000857
:1019180000180808483000404048506050480030DF
:1019280010101010103800006C5454545454000017
:1019380078444444444400003844444444380078DB
:10194800444478404040003C44443C0404040000C3
:1019580078444040404000003C403804443800206F
:10196800207820202418000044444444443C0000CB
:101978004444444428100000444444546C44000047
:10198800444428102844004444443C04443800009B
:101998007C081020407C00182020402020180010CF
:1019A80010101010101000601010081010600000C7
:1019B800000077DC000000000000000000000000CC
:1019C800000013027D01AA016002DB01B901CD010B
:1019D8000D0A005365747570205465726D696E61E7
:1019E800646F004461746F20726563696269646F33
:0219F8000000ED
:00000001FF
