:100000000C943D010C946E010C946E010C946E01E5
:100010000C946E010C946E010C946E010C946E01A4
:100020000C946E010C946E010C946E010C946E0194
:100030000C946E010C946E010C946E010C946E0184
:100040000C946E010C946E010C946E010C946E0174
:100050000C946E010C946E010C946E010C940613BA
:100060000C946E010C94D0120C94A6120C946E0198
:100070000C946E010C946E010C946E010C946E0144
:100080000C946E010C946E010C946E010C946E0134
:100090000C946E010C946E010C946E010C946E0124
:1000A0000C946E010C946E010C946E010C946E0114
:1000B0000C946E010C946E010C946E010C946E0104
:1000C0000C946E010C946E010C946E010C946E01F4
:1000D0000C946E010C946E010C946E010C946E01E4
:1000E0000C946E010C94E0010C9465020C943203A4
:1000F0000C94BE010C94D2010C942A030C941802A7
:100100000C94AF010C94FD020C941C030C94A706F4
:100110000C940C030C9483060C942E030C94770619
:100120000C9409030C94A2130C949B060C943C03AE
:100130000C9401030C9424030C9420030C943803B6
:100140000C945F060C94E6020C9483160C94050341
:100150000C948F060C9453060C946B060C9482013D
:100160000C9416030C94EB020C9412030C94B3063B
:1001700000002100240027002A002D003000330059
:1001800001010000040107010A0100000A0B020935
:100190000C0D0E0807030401000000000000000021
:1001A000000000000000000000000000000000004F
:1001B000000000000000121110000000000000000C
:1001C000000000000000000000000000000000002F
:1001D0000102102020080810204010204080020159
:1001E000020108040201010204081020408080403E
:1001F000201008040201800402018040201008043D
:1002000002010804020101020408102040800102DA
:1002100004081020408000002200250028002B0048
:100220002E003100340002010000050108010B011D
:1002300005050505070508080808020202020A0A62
:100240000808040404040101010101010101030380
:10025000030303030303040707070C0C0C0C0C0C2B
:100260000C0C0202020206060606060606060B0B28
:100270000B0B0B0B0B0BA213831611241FBECFEF1E
:10028000D1E2DEBFCDBF00E00CBF1AE0A0E0B2E0DB
:10029000E2EEF3E300E00BBF02C007900D92A63B35
:1002A000B107D9F72CE0A6EBBAE001C01D92A13A44
:1002B000B207E1F711E0CCE3D1E000E006C02197FE
:1002C0000109802FFE010E94BA17CB33D10780E0CD
:1002D0000807A9F70E94B3140C94DF190C940000CE
:1002E000FC01248135816217730720F4808191819C
:1002F000009729F41092BF0A8FEB9AE00895860FB9
:10030000971F0895AF92BF92CF92DF92EF92FF9224
:100310000F931F93CF93DF936C017B018B01040F2D
:10032000151FEB015E01AE18BF08C017D10759F0C9
:100330006991D601ED91FC910190F081E02DC6010B
:100340001995892B79F7C501DF91CF911F910F91F5
:10035000FF90EF90DF90CF90BF90AF900895FC0199
:10036000538D448D252F30E0842F90E0821B930B1A
:10037000541710F0CF96089501970895FC01918DC0
:10038000828D981761F0A28DAE0FBF2FB11D5D96C3
:100390008C91928D9F5F9F73928F90E008958FEF65
:1003A0009FEF0895FC01918D828D981731F0828D19
:1003B000E80FF11D858D90E008958FEF9FEF089570
:1003C000FC01918D228D892F90E0805C9F4F821BD4
:1003D00091098F739927089580EC9AE00E94E001BB
:1003E00021E0892B09F420E0822F0895FC01A48DDF
:1003F000A80FB92FB11DA35ABF4F2C91848D90E047
:1004000001968F739927848FA689B7892C93A08929
:10041000B1898C91837080648C93938D848D9813B3
:1004200006C00288F389E02D80818F7D8083089546
:10043000EF92FF920F931F93CF93DF93EC0181E034
:10044000888F9B8D8C8D98131AC0E889F9898081DB
:1004500085FF15C09FB7F894EE89FF896083E8890E
:10046000F98980818370806480839FBF81E090E000
:10047000DF91CF911F910F91FF90EF900895F62E8D
:100480000B8D10E00F5F1F4F0F731127E02E8C8D27
:100490008E110CC00FB607FCFACFE889F98980816C
:1004A00085FFF5CFCE010E94F601F1CFEB8DEC0F69
:1004B000FD2FF11DE35AFF4FF0829FB7F8940B8F89
:1004C000EA89FB8980818062CFCFCF93DF93EC01F3
:1004D000888D8823B9F0AA89BB89E889F9898C912C
:1004E00085FD03C0808186FD0DC00FB607FCF7CFE8
:1004F0008C9185FFF2CF808185FFEDCFCE010E94E8
:10050000F601E9CFDF91CF91089580E090E0892B4B
:1005100029F00E94EC0181110E94000080E090E02F
:10052000892B49F080E090E0892B29F00E9400009F
:1005300081110E94000080E090E0892B49F080E06A
:1005400090E0892B29F00E94000081110E94000098
:1005500080E090E0892B49F080E090E0892B29F041
:100560000E94000081110C9400000895282F30E0B3
:10057000F901E657FE4F9491F901E053FE4F449183
:10058000205D3D4FF9012491222309F435C09923C0
:1005900011F191509231F8F4E92FF0E08827EC52F4
:1005A000FD4F8F4F0C94BA1705030903E602FD02B5
:1005B0000103EB020C03120316031C0320032403A4
:1005C0002A032E03EB02320338033C0380918000A0
:1005D0008F7780938000E22FF0E0EE0FFF1FEA5E3E
:1005E000FD4FA591B4918FB7F894EC91611148C07B
:1005F00040954E234C938FBF0895809180008F7D4E
:10060000E8CF80918000877FE4CF84B58F7784BD69
:10061000E2CF84B58F7DFBCF8091B0008F77809340
:10062000B000D9CF8091B0008F7DF9CF809190003C
:100630008F7780939000CFCF809190008F7DF9CFFE
:1006400080919000877FF5CF8091A0008F77809375
:10065000A000C1CF8091A0008F7DF9CF8091A00034
:10066000877FF5CF809120018F7780932001B3CFD2
:10067000809120018F7DF9CF80912001877FF5CF78
:100680004E2BB8CFCF93DF9390E0FC01E053FE4FA9
:100690002491805D9D4FFC0184918823D1F090E0EE
:1006A000880F991FFC01E059FE4FA591B491FC0100
:1006B000EA5EFD4FC591D49161110EC09FB7F894C9
:1006C0008C91E22FE0958E238C932881E223E8839E
:1006D0009FBFDF91CF9108958FB7F894EC91E22BF3
:1006E000EC938FBFF6CF3FB7F8948091BB0A9091FF
:1006F000BC0AA091BD0AB091BE0A26B5A89B05C050
:100700002F3F19F00196A11DB11D3FBFBA2FA92F90
:10071000982F8827BC01CD01620F711D811D911D8D
:1007200042E0660F771F881F991F4A95D1F70895F9
:100730008F929F92AF92BF92CF92DF92EF92FF92F1
:10074000CF93DF93FC018281938168177907D8F5F5
:100750004A01AA24BB24C32ED42EE52EFF24DC2D6F
:10076000C22F8085982D882391F0C82FD0E0C89D96
:10077000D001C99DB00DD89DB00D11249B2F8C9D2B
:1007800060011124DD2D829F90011124C32FA685C5
:10079000218532858385A81321C0AB01440F551FE5
:1007A000640F751F620F731FA385A60FB72FB11DAE
:1007B0009C93A485A60FB72FB11DDC938585680F88
:1007C000711DFB01C083DF91CF91FF90EF90DF900F
:1007D000CF90BF90AF909F908F900895660F771F36
:1007E000660F771F620F731FA60FB72FB11D1C92E4
:1007F000DBCFCF92DF92EF92FF920F931F93CF93B5
:10080000DF9300D000D000D0CDB7DEB78C01DC0183
:1008100019968D919C91892B09F473C00E947303E2
:10082000F801C784D088E188F2886C157D058E05B3
:100830009F0520F46787708B818B928BF801C784AA
:10084000D088E188F2886C197D098E099F096C3285
:1008500071408105910510F3F894D80114968D919B
:100860009C9115979A8389831996ED91FC917F014C
:10087000BFEFEB1AFB0A80818987F801908103881A
:10088000F489E02DD80155968C91992309F448C03C
:100890009081982B98879081809589238F838F8171
:1008A0008C8388E08B8358856F8149853B812C81BF
:1008B00089819A81D701508347FD252F3A9520835E
:1008C000262F39F0441F00C000006083000000C0E4
:1008D000F2CF38E04D9160830000019761F7D801B5
:1008E0005496FC93EE93539749873B832C839A83CA
:1008F000898378940E947303F8016787708B818BDA
:10090000928B29960FB6F894DEBF0FBECDBFDF9154
:10091000CF911F910F91FF90EF90DF90CF900895AE
:100920009081982B98879081809589238F838F81E0
:100930008E8388E08D8358856F8149853D812E8126
:1009400089819A81D701508347FD252F00C000C0BF
:10095000208300C000C000C000C000C06083000051
:10096000262F3A9541F0441F000000C000C000C08F
:1009700000C000C0E8CF38E04D9100C0608300C0E7
:10098000019709F7D8015496FC93EE935397498742
:100990003D832E83ACCFCF93DF93EC018E819F817B
:1009A00097FD07C061E00E94420360E08E810E94D3
:1009B000B60281E08983DF91CF910895CF92DF92D3
:1009C000EF92FF920F931F93CF93DF931F921F928B
:1009D000CDB7DEB769834A83880F991F0091BF0B9B
:1009E0001091C00B000F111FE9E6FBE09F01295693
:1009F0003B402017310714F41192F8CF2981FC01F4
:100A0000E759F44F21838A81808360E08091BD0B98
:100A10000E94B6021016110604F501501109F801E2
:100A2000E759F44FE080D090BB0BC090B90B88E041
:100A3000F82E6E2D661F6627661F8C2D0E94B6024B
:100A4000EE0C61E08D2D0E94B60260E08D2D0E94BB
:100A5000B602FA94F110EDCFDDCF61E08091BD0BCD
:100A60000F900F90DF91CF911F910F91FF90EF901A
:100A7000DF90CF900C94B602EF92FF921F93CF932A
:100A8000DF932091BF0B3091C00B82179307B4F412
:100A9000EC0123E0880F991F2A95E1F79C01275864
:100AA000344F790111E0F70111927F0140E0612F8D
:100AB000CE010E94DE041F5F1930A9F7DF91CF91AC
:100AC0001F91FF90EF9008952091BF0B3091C00BC4
:100AD00082179307ECF468307105D0F44830510563
:100AE000B8F4FC0123E0EE0FFF1F2A95E1F7E60FB3
:100AF000F71F20E830E002C0359527954A95E2F7C8
:100B0000E759F44F4089422B408B6F5F0C94DE0411
:100B10000895FC0101900020E9F73197AF01481BCF
:100B2000590BBC0180EC9AE00C948201CF93DF93C7
:100B30000E948905EC018CE89AE00E9489058C0FDF
:100B40009D1FDF91CF910895FC014481558170E094
:100B500060E0818592850C94D119FC01808191819E
:100B6000009711F00C945E1808950F931F93CF9384
:100B7000DF93EC0188819981009759F02A813B81AC
:100B80002617370730F081E0DF91CF911F910F9149
:100B900008958B016F5F7F4F0E94E718009759F00F
:100BA000998388831B830A832C813D81232B59F7EA
:100BB000FC011082E8CF80E0E7CFEF92FF920F9325
:100BC0001F93CF93DF93EC017B018A01BA010E944E
:100BD000B50528813981811114C02115310519F01D
:100BE000C9010E945E18198218821D821C821B8214
:100BF0001A82CE01DF91CF911F910F91FF90EF905C
:100C000008951D830C83B701C9010E94D819F1CF43
:100C1000EF92FF920F931F93CF93DF937C018B0191
:100C20000E94FF16E8012197B70161507109AE01DA
:100C300090E080E0093011056CF0A801495051099D
:100C400081E090E04830510528F0A8014151510958
:100C500082E090E00E946405F7013297E930F105E7
:100C600078F48827E95CF94F8F4F0C94BA17530634
:100C70005F066B06770683068F069B06A706B306FC
:100C800025E531E64DEC50E0BE0187E89CE00E948E
:100C9000980387E89CE0DF91CF911F910F91FF901F
:100CA000EF900C94F90325E539E54BE950E0BE01DE
:100CB00081E79CE00E94980381E79CE0ECCF29EB60
:100CC00030E849E250E0BE018BE59CE00E949803C9
:100CD0008BE59CE0E0CF2CE93CEB4AE150E0BE0123
:100CE00085E49CE00E94980385E49CE0D4CF21E752
:100CF0003CEC4EE250E0BE018FE29CE00E94980383
:100D00008FE29CE0C8CF21E73CEC4EE250E0BE0110
:100D100089E19CE00E94980389E19CE0BCCF2CE92A
:100D20003CEB4AE150E0BE0183E09CE00E94980366
:100D300083E09CE0B0CF29EB30E849E250E0BE010F
:100D40008DEE9BE00E9498038DEE9BE0A4CF26EBF6
:100D500039E54BE950E0BE0187ED9BE00E94980326
:100D600087ED9BE098CF25E531E64DEC50E0BE01E4
:100D700081EC9BE00E94980381EC9BE08CCF2F924A
:100D80003F924F925F926F927F928F929F92AF921B
:100D9000BF92CF92DF92EF92FF920F931F93CF9368
:100DA000DF93CDB7DEB7CD5BDD400FB6F894DEBF85
:100DB0000FBECDBF7C0188E7EAE0F2E0DE011196CC
:100DC00001900D928A95E1F788E7E2E8F2E0DE0112
:100DD000A758BF4F01900D928A95E1F74E0121EF80
:100DE000820E911C28E7D401E22F1D92EA95E9F7C3
:100DF00081E090E0D4011F969C938E931E975196AC
:100E00009C938E93509753969C938E93529759969A
:100E10009C938E93589791969C938E9390979596CA
:100E20009C938E939497D1969C938E93D097DD96B6
:100E30009C938E93DC97C75CDE4F99838883C9535C
:100E4000D140CF5BDE4F99838883C154D140C95BC9
:100E5000DE4F99838883C754D140C75BDE4F9983A7
:100E60008883C954D140C55BDE4F99838883CB54B6
:100E7000D140EAEFF2E0A858BF4F322F01900D9217
:100E80003A95E1F7E2E7F3E0DE01AF51BE4F322FD2
:100E900001900D923A95E1F75E01B7EAAB1ABDEF0A
:100EA000BB0AF501322F11923A95E9F7D5011D964B
:100EB0009C938E931C971F969C938E931E9751968E
:100EC0009C938E93509753969C938E9352975596DE
:100ED0009C938E93549759969C938E93589795967E
:100EE0009C938E939497D1969C938E93D097D39600
:100EF0009C938E93D297D5969C938E93D497D796A6
:100F00009C938E93D697DD969C938E93DC97CF55CA
:100F1000DD4F99838883C15AD240C355DD4F9983F1
:100F20008883CD5AD240EAEEF3E0A858BF4F322F63
:100F300001900D923A95E1F7E2E6F4E0DE01A75B5D
:100F4000BC4F322F01900D923A95E1F7EAEDF4E0B3
:100F5000DE01AF53BC4F322F01900D923A95E1F76D
:100F6000FE01E75CFB4FDF01322F1D923A95E9F756
:100F70009587848797878687918B808B938B828BCD
:100F8000958B848B978F868F93A782A797AB86AB21
:100F9000C558DB4F99838883CB57D440C957DB4F63
:100FA00099838883C758D440C357DB4F998388837C
:100FB000CD58D440C157DB4F99838883CF58D44054
:100FC000CF56DB4F99838883C159D440E858FF4FEF
:100FD000DF01322F1D923A95E9F795878487938B2D
:100FE000828B918F808F958F848F95A384A397A3F5
:100FF00086A391AB80AB93AB82AB95AF84AFCF5060
:10100000DB4F99838883C15FD440C750DB4F9983FE
:101010008883C95FD440C150DB4F99838883CF5FF9
:10102000D440CB5FDA4F99838883C550D540C35FE6
:10103000DA4F99838883CD50D540E858FF4FDF01C0
:10104000322F1D923A95E9F795878487918F808F8B
:1010500095A384A391AB80AB95AF84AFCF58DA4F03
:1010600099838883C157D540C358DA4F99838883C1
:10107000CD57D540C158DA4F99838883CF57D54093
:10108000CF57DA4F99838883C158D540CD57DA4F6F
:1010900099838883C358D540CB57DA4F9983888387
:1010A000C558D540E2E5F5E0DE01AF55BA4F322F25
:1010B00001900D923A95E1F7EAECF5E0DE01A75ECA
:1010C000B94F322F01900D923A95E1F7E2E4F6E044
:1010D000DE01AF56B94F322F01900D923A95E1F7EC
:1010E000EAEBF6E0DE01A75FB84F322F01900D92D8
:1010F0003A95E1F7E2E3F7E0DE01AF57B84F322F60
:1011000001900D923A95E1F7EAEAF7E0DE01A75087
:10111000B84F322F01900D923A95E1F7E2E2F8E0F4
:10112000DE01AF58B74F322F01900D923A95E1F79B
:10113000FE01E751F74FDF01322F1D923A95E9F793
:101140009587848797878687918B808B938B828BFB
:10115000958B848B958F848F91A780A795AB84AB5B
:10116000C75DD64F99838883C952D940CB5CD64F8F
:1011700099838883C553D940CF5BD64F99838883A1
:10118000C154D940EAE9F8E0DE01AF59B64F322F39
:1011900001900D923A95E1F7FE01E752F64FDF011B
:1011A000322F1D923A95E9F795878487958B848B2A
:1011B000918F808F91A380A395A384A395A784A7E3
:1011C00091AB80AB91AF80AF97AF86AFC55ED54F87
:1011D00099838883CB51DA40CD5DD54F998388833D
:1011E000C352DA40C95DD54F99838883C752DA402C
:1011F000CF5CD54F99838883C153DA40E2E1F9E0AF
:10120000DE01AF5AB54F322F01900D923A95E1F7BA
:10121000FE01E753F54FDF01322F1D923A95E9F7B2
:1012200095878487958B848B918F808F91A380A3E2
:1012300097A386A393A782A795AB84AB97AF86AFFE
:10124000C55FD44F99838883CB50DB40CF5ED44FAA
:1012500099838883C151DB40C75ED44F99838883CB
:10126000C951DB40C35ED44F99838883CD51DB40A5
:10127000CB5DD44F99838883C552DB40E858FF4F3C
:10128000DF01322F1D923A95E9F795878487958B78
:10129000848B918F808F91A380A397A386A393A71C
:1012A00082A795AB84ABCF57D44F99838883C1581D
:1012B000DB40C357D44F99838883CD58DB40C75652
:1012C000D44F99838883C959DB40EAE8F9E0DE010D
:1012D000A754B44F322F01900D923A95E1F7FE01D9
:1012E000EF5CF34FDF01322F1D923A95E9F7E85892
:1012F000FF4FDF01322F1D923A95E9F793AB82AB96
:1013000095AB84AB97AB86AB91AF80AF97AF86AF11
:10131000C751D34F99838883C95EDC40C551D34FF1
:1013200099838883CB5EDC40C351D34F99838883F4
:10133000CD5EDC40E2E0FAE0DE01AF5DB24F01904D
:101340000D922A95E1F78FE89AE00E949605D12C3C
:10135000C12CD70114968D919C91C816D90608F01E
:1013600062C0B601C7010E947001FC012081422EBB
:10137000220F55086608770877FE36C06DE280ECCC
:101380009AE00E94180222273327A901241935095F
:1013900046095709C754D24F1882C95BDD4009E995
:1013A0001DE00C0F1D1F005E1F4FCA01B9012AE08E
:1013B00030E040E050E00E948917605DD8016E93F4
:1013C0008D01211531054105510579F701151105EB
:1013D00019F0C8010E9489058CE89AE00E948905ED
:1013E000FFEFCF1ADF0AB5CFA3019201C754D24F46
:1013F0001882C95BDD4009E91DE00C0F1D1F005E6E
:101400001F4FCA01B9012AE030E040E050E00E94DD
:101410008917605DF80162938F012115310541053F
:10142000510579F7D3CF10E000E0F6E0DF2ED701C9
:1014300014968D919C910817190710F00C948C123A
:10144000B801C7010E947001FC018081813614F44B
:101450000C948812B801C7010E947001DC018C91C4
:101460008B3714F00C948812B801C7010E947001E8
:10147000FC01808181360CF49AC1B801C7010E9439
:101480007001DC018C9187360CF091C1B801C70165
:101490000E947001FC0180818136E1F5D09EC0017F
:1014A000D19E900D11249E012F5F3F4F19014424BE
:1014B0004394512CAC014F5F5F4FC654D24F5983B8
:1014C0004883CA5BDD40712C612CF301EE0FFF1FD6
:1014D000E20DF31D80819181019759F4C654D24FDA
:1014E00068817981CA5BDD40660D771DC2010E946B
:1014F00008065FEF651A750A86E06816710429F719
:101500009FEF491A590AACE02A0E311CBBE04B167A
:101510005104C9F6B801C7010E947001FC01808125
:101520008236E1F5D09EC001D19E900D11249E011E
:1015300027583F4F190144244394512CAC014F5F6D
:101540005F4FC654D24F59834883CA5BDD40712C2C
:10155000612CF301EE0FFF1FE20DF31D80819181DD
:10156000019759F4C654D24F68817981CA5BDD4036
:10157000660D771DC2010E9408065FEF651A750AA5
:1015800086E06816710429F79FEF491A590AACE002
:101590002A0E311CBBE04B165104C9F6B801C70135
:1015A0000E947001FC0180818336C9F5D09EC00184
:1015B000D19E900D1124140144244394512C9C017C
:1015C0002F5F3F4FC654D24F39832883CA5BDD401B
:1015D000712C612CF301EE0FFF1FE20DF31D8081D2
:1015E0009181019759F4C654D24F68817981CA5BC1
:1015F000DD40660D771DC2010E9408063FEF631AA9
:10160000730A46E06416710429F75FEF451A550A1C
:101610008CE0280E311C9BE049165104C9F6B80134
:10162000C7010E947001DC018C918436E1F5D09EE7
:10163000C001D19E900D1124FE01E759FE4F1F01FC
:1016400044244394512C9C012F5F3F4FC654D24FEA
:1016500039832883CA5BDD40712C612CF301EE0FC6
:10166000FF1FE20DF31D80819181019759F4C6544B
:10167000D24F68817981CA5BDD40660D771DC2015A
:101680000E9408063FEF631A730A46E0641671046D
:1016900029F75FEF451A550A8CE0280E311C9BE0B4
:1016A00049165104C9F6B801C7010E947001DC0156
:1016B0008C918536E1F5D09EC001D19E900D11240C
:1016C000FE01EF51FE4F1F0144244394512C9C0115
:1016D0002F5F3F4FC654D24F39832883CA5BDD400A
:1016E000712C612CF301EE0FFF1FE20DF31D8081C1
:1016F0009181019759F4C654D24F68817981CA5BB0
:10170000DD40660D771DC2010E9408063FEF631A97
:10171000730A46E06416710429F75FEF451A550A0B
:101720008CE0280E311C9BE049165104C9F6B80123
:10173000C7010E947001DC018C918636C1F5D09EF4
:10174000C001D19E900D1124150144244394512CC5
:10175000FC013196C654D24FF983E883CA5BDD4061
:10176000712C612CF301EE0FFF1FE20DF31D808140
:101770009181019759F4C654D24F68817981CA5B2F
:10178000DD40660D771DC2010E940806FFEF6F1A4B
:101790007F0A26E06216710429F73FEF431A530AC5
:1017A0004CE0240E311C5BE045165104C9F6B8012B
:1017B000C7010E947001DC018C9187360CF4A1C135
:1017C000B801C7010E947001FC0180818D360CF0C8
:1017D00098C1B801C7010E947001DC018C91873665
:1017E000E1F5D09EC001D19E900D1124FE01EF5273
:1017F000FD4F1F0144244394512C9C012F5F3F4F08
:10180000C654D24F39832883CA5BDD40712C612CCA
:10181000F301EE0FFF1FE20DF31D8081918101970F
:1018200059F4C654D24F68817981CA5BDD40660D98
:10183000771DC2010E9408063FEF631A730A46E053
:101840006416710429F75FEF451A550A8CE0280EDB
:10185000311C9BE049165104C9F6B801C7010E942A
:101860007001DC018C918836E1F5D09EC001D19EDB
:10187000900D11241E01B7EB2B1ABCEF3B0A442438
:101880004394512CFC013196C654D24FF983E8831E
:10189000CA5BDD40712C612CF301EE0FFF1FE20DDE
:1018A000F31D80819181019759F4C654D24F68810C
:1018B0007981CA5BDD40660D771DC2010E94080672
:1018C000FFEF6F1A7F0A26E06216710429F73FEFD7
:1018D000431A530A4CE0240E311C5BE045165104B8
:1018E000C9F6B801C7010E947001DC018C918936EC
:1018F000E1F5D09EC001D19E900D11241E01BFE3E1
:101900002B1ABCEF3B0A44244394512CFC01319622
:10191000C654D24FF983E883CA5BDD40712C612C39
:10192000F301EE0FFF1FE20DF31D808191810197FE
:1019300059F4C654D24F68817981CA5BDD40660D87
:10194000771DC2010E940806FFEF6F1A7F0A26E08A
:101950006216710429F73FEF431A530A4CE0240E34
:10196000311C5BE045165104C9F6B801C7010E945D
:101970007001DC018C918A36E1F5D09EC001D19EC8
:10198000900D11241E01B7EC2B1ABBEF3B0A442427
:101990004394512CFC013196C654D24FF983E8830D
:1019A000CA5BDD40712C612CF301EE0FFF1FE20DCD
:1019B000F31D80819181019759F4C654D24F6881FB
:1019C0007981CA5BDD40660D771DC2010E94080661
:1019D000FFEF6F1A7F0A26E06216710429F73FEFC6
:1019E000431A530A4CE0240E311C5BE045165104A7
:1019F000C9F6B801C7010E947001DC018C918B36D9
:101A0000E1F5D09EC001D19E900D11241E01BFE4CE
:101A10002B1ABBEF3B0A44244394512CFC01319612
:101A2000C654D24FF983E883CA5BDD40712C612C28
:101A3000F301EE0FFF1FE20DF31D808191810197ED
:101A400059F4C654D24F68817981CA5BDD40660D76
:101A5000771DC2010E940806FFEF6F1A7F0A26E079
:101A60006216710429F73FEF431A530A4CE0240E23
:101A7000311C5BE045165104C9F6B801C7010E944C
:101A80007001DC018C918C36E1F5D09EC001D19EB5
:101A9000900D11241E01B7ED2B1ABAEF3B0A442416
:101AA0004394512CFC013196C654D24FF983E883FC
:101AB000CA5BDD40712C612CF301EE0FFF1FE20DBC
:101AC000F31D80819181019759F4C654D24F6881EA
:101AD0007981CA5BDD40660D771DC2010E94080650
:101AE000FFEF6F1A7F0A26E06216710429F73FEFB5
:101AF000431A530A4CE0240E311C5BE04516510496
:101B0000C9F6B801C7010E947001DC018C918D36C5
:101B10000CF4A1C1B801C7010E947001FC018081D1
:101B200083370CF098C1B801C7010E947001DC0135
:101B30008C918D36E1F5D09EC001D19E900D11247F
:101B40001E01BFE52B1ABAEF3B0A44244394512CE3
:101B5000FC013196C654D24FF983E883CA5BDD405D
:101B6000712C612CF301EE0FFF1FE20DF31D80813C
:101B70009181019759F4C654D24F68817981CA5B2B
:101B8000DD40660D771DC2010E940806FFEF6F1A47
:101B90007F0A26E06216710429F73FEF431A530AC1
:101BA0004CE0240E311C5BE045165104C9F6B80127
:101BB000C7010E947001DC018C918E36E1F5D09E48
:101BC000C001D19E900D11241E01B7EE2B1AB9EF62
:101BD0003B0A44244394512CFC013196C654D24F05
:101BE000F983E883CA5BDD40712C612CF301EE0FB1
:101BF000FF1FE20DF31D80819181019759F4C654B6
:101C0000D24F68817981CA5BDD40660D771DC201C4
:101C10000E940806FFEF6F1A7F0A26E06216710421
:101C200029F73FEF431A530A4CE0240E311C5BE0C6
:101C300045165104C9F6B801C7010E947001DC01C4
:101C40008C918F36E1F5D09EC001D19E900D11246C
:101C50001E01BFE62B1AB9EF3B0A44244394512CD2
:101C6000FC013196C654D24FF983E883CA5BDD404C
:101C7000712C612CF301EE0FFF1FE20DF31D80812B
:101C80009181019759F4C654D24F68817981CA5B1A
:101C9000DD40660D771DC2010E940806FFEF6F1A36
:101CA0007F0A26E06216710429F73FEF431A530AB0
:101CB0004CE0240E311C5BE045165104C9F6B80116
:101CC000C7010E947001DC018C918037E1F5D09E44
:101CD000C001D19E900D11241E01B7EF2B1AB8EF51
:101CE0003B0A44244394512CFC013196C654D24FF4
:101CF000F983E883CA5BDD40712C612CF301EE0FA0
:101D0000FF1FE20DF31D80819181019759F4C654A4
:101D1000D24F68817981CA5BDD40660D771DC201B3
:101D20000E940806FFEF6F1A7F0A26E06216710410
:101D300029F73FEF431A530A4CE0240E311C5BE0B5
:101D400045165104C9F6B801C7010E947001DC01B3
:101D50008C918137E1F5D09EC001D19E900D112468
:101D60001E01BFE72B1AB8EF3B0A44244394512CC1
:101D7000FC013196C654D24FF983E883CA5BDD403B
:101D8000712C612CF301EE0FFF1FE20DF31D80811A
:101D90009181019759F4C654D24F68817981CA5B09
:101DA000DD40660D771DC2010E940806FFEF6F1A25
:101DB0007F0A26E06216710429F73FEF431A530A9F
:101DC0004CE0240E311C5BE045165104C9F6B80105
:101DD000C7010E947001DC018C918237E1F5D09E31
:101DE000C001D19E900D11241E01B7E02B1AB8EF4F
:101DF0003B0A44244394512CFC013196C654D24FE3
:101E0000F983E883CA5BDD40712C612CF301EE0F8E
:101E1000FF1FE20DF31D80819181019759F4C65493
:101E2000D24F68817981CA5BDD40660D771DC201A2
:101E30000E940806FFEF6F1A7F0A26E062167104FF
:101E400029F73FEF431A530A4CE0240E311C5BE0A4
:101E500045165104C9F6B801C7010E947001DC01A2
:101E60008C9183370CF429C2B801C7010E9470011C
:101E7000FC0180818B370CF020C2B801C7010E94A1
:101E80007001DC018C918337E1F5D09EC001D19EB9
:101E9000900D11241E01BFE82B1AB7EF3B0A442412
:101EA0004394512CFC013196C654D24FF983E883F8
:101EB000CA5BDD40712C612CF301EE0FFF1FE20DB8
:101EC000F31D80819181019759F4C654D24F6881E6
:101ED0007981CA5BDD40660D771DC2010E9408064C
:101EE000FFEF6F1A7F0A26E06216710429F73FEFB1
:101EF000431A530A4CE0240E311C5BE04516510492
:101F0000C9F6B801C7010E947001DC018C918437C9
:101F1000E1F5D09EC001D19E900D11241E01B7E1C4
:101F20002B1AB7EF3B0A44244394512CFC01319601
:101F3000C654D24FF983E883CA5BDD40712C612C13
:101F4000F301EE0FFF1FE20DF31D808191810197D8
:101F500059F4C654D24F68817981CA5BDD40660D61
:101F6000771DC2010E940806FFEF6F1A7F0A26E064
:101F70006216710429F73FEF431A530A4CE0240E0E
:101F8000311C5BE045165104C9F6B801C7010E9437
:101F90007001DC018C918537E1F5D09EC001D19EA6
:101FA000900D11241E01BFE92B1AB6EF3B0A442401
:101FB0004394512CFC013196C654D24FF983E883E7
:101FC000CA5BDD40712C612CF301EE0FFF1FE20DA7
:101FD000F31D80819181019759F4C654D24F6881D5
:101FE0007981CA5BDD40660D771DC2010E9408063B
:101FF000FFEF6F1A7F0A26E06216710429F73FEFA0
:10200000431A530A4CE0240E311C5BE04516510480
:10201000C9F6B801C7010E947001DC018C918637B6
:10202000E1F5D09EC001D19E900D11241E01B7E2B2
:102030002B1AB6EF3B0A44244394512CFC013196F1
:10204000C654D24FF983E883CA5BDD40712C612C02
:10205000F301EE0FFF1FE20DF31D808191810197C7
:1020600059F4C654D24F68817981CA5BDD40660D50
:10207000771DC2010E940806FFEF6F1A7F0A26E053
:102080006216710429F73FEF431A530A4CE0240EFD
:10209000311C5BE045165104C9F6B801C7010E9426
:1020A0007001DC018C918737E1F5D09EC001D19E93
:1020B000900D11241E01BFEA2B1AB5EF3B0A4424F0
:1020C0004394512CFC013196C654D24FF983E883D6
:1020D000CA5BDD40712C612CF301EE0FFF1FE20D96
:1020E000F31D80819181019759F4C654D24F6881C4
:1020F0007981CA5BDD40660D771DC2010E9408062A
:10210000FFEF6F1A7F0A26E06216710429F73FEF8E
:10211000431A530A4CE0240E311C5BE0451651046F
:10212000C9F6B801C7010E947001DC018C918837A3
:10213000E1F5D09EC001D19E900D11241E01B7E3A0
:102140002B1AB5EF3B0A44244394512CFC013196E1
:10215000C654D24FF983E883CA5BDD40712C612CF1
:10216000F301EE0FFF1FE20DF31D808191810197B6
:1021700059F4C654D24F68817981CA5BDD40660D3F
:10218000771DC2010E940806FFEF6F1A7F0A26E042
:102190006216710429F73FEF431A530A4CE0240EEC
:1021A000311C5BE045165104C9F6B801C7010E9415
:1021B0007001DC018C918937E1F5D09EC001D19E80
:1021C000900D11241E01BFEB2B1AB4EF3B0A4424DF
:1021D0004394512CFC013196C654D24FF983E883C5
:1021E000CA5BDD40712C612CF301EE0FFF1FE20D85
:1021F000F31D80819181019759F4C654D24F6881B3
:102200007981CA5BDD40660D771DC2010E94080618
:10221000FFEF6F1A7F0A26E06216710429F73FEF7D
:10222000431A530A4CE0240E311C5BE0451651045E
:10223000C9F6B801C7010E947001DC018C918A3790
:10224000E1F5D09EC001D19E900D11241E01B7E48E
:102250002B1AB4EF3B0A44244394512CFC013196D1
:10226000C654D24FF983E883CA5BDD40712C612CE0
:10227000F301EE0FFF1FE20DF31D808191810197A5
:1022800059F4C654D24F68817981CA5BDD40660D2E
:10229000771DC2010E940806FFEF6F1A7F0A26E031
:1022A0006216710429F73FEF431A530A4CE0240EDB
:1022B000311C5BE045165104C9F6B801C7010E9404
:1022C0007001DC018C91803209F0CFC0B801C701E8
:1022D0000E947001FC0180818032E9F5D09EC0012E
:1022E000D19E900D11241E01FFEC2F1AF3EF3F0A2F
:1022F00044244394512C9C012F5F3F4FC654D24F2E
:1023000039832883CA5BDD40712C612CF301EE0F09
:10231000FF1FE20DF31D80819181019759F4C6548E
:10232000D24F68817981CA5BDD40660D771DC2019D
:102330000E9408063FEF631A730A46E064167104B0
:1023400029F75FEF451A550A8CE0280E311C9BE0F7
:1023500049165104C9F6B801C7010E947001DC0199
:102360008C918D32E1F5D09EC001D19E900D11244B
:102370001E01B7E52B1AB3EF3B0A44244394512CBA
:10238000FC013196C654D24FF983E883CA5BDD4025
:10239000712C612CF301EE0FFF1FE20DF31D808104
:1023A0009181019759F4C654D24F68817981CA5BF3
:1023B000DD40660D771DC2010E940806FFEF6F1A0F
:1023C0007F0A26E06216710429F73FEF431A530A89
:1023D0004CE0240E311C5BE045165104C9F6B801EF
:1023E000C7010E947001DC018C91833209F04FC05B
:1023F000D09EC001D19E900D11241E01BFED2B1A5D
:10240000B2EF3B0A44244394512CFC013196C6544C
:10241000D24FF983E883CA5BDD40712C612CF30154
:10242000EE0FFF1FE20DF31D80819181019759F49A
:10243000C654D24F68817981CA5BDD40660D771D35
:10244000C2010E940806FFEF6F1A7F0A26E062169B
:10245000710429F73FEF431A530A4CE0240E311C54
:102460005BE045165104C9F612C0B801C7010E94CD
:102470007001DC018C91833209F428CFB801C701C7
:102480000E947001FC0180818D3209F41FCF0E94EF
:102490007303C654D24F688379838A839B83CA5B54
:1024A000DD4084EF482E55245394612C712C0E94FA
:1024B0007303C654D24F288139814A815B81CA5B3C
:1024C000DD40621B730B840B950B683E73408105E6
:1024D000910568F381E0481A510861087108C654F3
:1024E000D24F288139814A815B81CA5BDD40285106
:1024F0003C4F4F4F5F4FC654D24F288339834A8396
:102500005B83CA5BDD40411451046104710479F6B8
:102510000F5F1F4F0C94170AC354D24F0FB6F89495
:10252000DEBF0FBECDBFDF91CF911F910F91FF9006
:10253000EF90DF90CF90BF90AF909F908F907F9063
:102540006F905F904F903F902F9008951F920F9241
:102550000FB60F9211240BB60F922F933F934F9308
:102560005F936F937F938F939F93AF93BF93EF93FB
:10257000FF9380EC9AE00E94F601FF91EF91BF91EA
:10258000AF919F918F917F916F915F914F913F910B
:102590002F910F900BBE0F900FBE0F901F901895AC
:1025A0001F920F920FB60F9211240BB60F922F931A
:1025B0008F939F93EF93FF93E091D00AF091D10A0C
:1025C0008081E091D60AF091D70A82FD1DC09081EA
:1025D0008091D90A8F5F8F732091DA0A821741F0B8
:1025E000E091D90AF0E0E054F54F958F8093D90A35
:1025F000FF91EF919F918F912F910F900BBE0F90B4
:102600000FBE0F901F9018958081F2CF1F920F92EE
:102610000FB60F9211242F933F938F939F93AF93F5
:10262000BF938091B70A9091B80AA091B90AB0916E
:10263000BA0A3091B60A23E0230F2D3758F50196D8
:10264000A11DB11D2093B60A8093B70A9093B80AD2
:10265000A093B90AB093BA0A8091BB0A9091BC0AC0
:10266000A091BD0AB091BE0A0196A11DB11D809333
:10267000BB0A9093BC0AA093BD0AB093BE0ABF9157
:10268000AF919F918F913F912F910F900FBE0F901F
:102690001F90189526E8230F0296A11DB11DD2CFD9
:1026A0000F931F93CF93DF93EC01162F072F1982FF
:1026B00018861F86188A198A1A8A81E08E878B8766
:1026C0001C8692E09D87888380E690E09D838C83C2
:1026D0000E94C2179A878987009779F120E6FC014A
:1026E00011922A95E9F780E290E09B838A831E830A
:1026F0000F838981882341F061E0812F0E9442038A
:1027000060E0812F0E94B602812F902FFC01E05DD6
:10271000FD4FE491F0E0EE0FFF1FEA5EFD4F2591C3
:1027200034913C8B2B8BFC01E053FE4FE491ED8BFD
:10273000DF91CF911F910F9108951D821C821B8202
:102740001A82D5CFCF93DF931092C30A1092C20A98
:1027500088EE93E0A0E0B0E08093C40A9093C50AAD
:10276000A093C60AB093C70A8EE79AE09093C10A75
:102770008093C00A85EC90E09093CD0A8093CC0AB8
:1027800084EC90E09093CF0A8093CE0A80EC90E0A6
:102790009093D10A8093D00A81EC90E09093D30A71
:1027A0008093D20A82EC90E09093D50A8093D40A69
:1027B00086EC90E09093D70A8093D60A1092D90ABB
:1027C0001092DA0A1092DB0A1092DC0A6DE070E0D7
:1027D00087E89CE00E9450136CE070E081E79CE089
:1027E0000E9450136BE070E08BE59CE00E94501358
:1027F0006AE070E085E49CE00E94501369E070E0BC
:102800008FE29CE00E94501368E070E089E19CE058
:102810000E94501367E070E083E09CE00E94501338
:1028200066E070E08DEE9BE00E94501365E070E082
:1028300087ED9BE00E94501364E070E081EC9BE028
:102840000E945013C8E1D0E0D093BA0BC093B90BEB
:1028500086E190E09093BC0B8093BB0B87E190E006
:102860009093BE0B8093BD0B83E090E09093C00BE0
:102870008093BF0B61E088E10E94420361E0809198
:10288000BB0B0E94420361E08091BD0B0E9442039A
:1028900061E08091BD0B0E94B602D093BA0BC09349
:1028A000B90BE9E7FBE089EB9BE011928E179F07DC
:1028B000E1F7D0E0C0E08091BF0B9091C00BC8174A
:1028C000D9073CF540E06FE0CE010E94DE04809124
:1028D000BF0B9091C00BC817D9072CF447E06BE0F1
:1028E000CE010E94DE0440E069E0CE010E94DE04D9
:1028F000CE010E943C058091BF0B9091C00BC81780
:10290000D9072CF440E06CE0CE010E94DE04219651
:10291000D2CF1092640B1092630B1092660B109240
:10292000650B1092680B1092670B50E040E06EE868
:102930007AE083E69BE00E94DD0510925E0B109228
:102940005D0B1092600B10925F0B1092620B109255
:10295000610B50E040E06EE87AE08DE59BE0DF91AE
:10296000CF910C94DD05CF93DF9300D000D0CDB78D
:10297000DEB7789484B5826084BD84B5816084BDFF
:1029800085B5826085BD85B5816085BD80916E000D
:10299000816080936E00109281008091810082603E
:1029A000809381008091810081608093810080917B
:1029B00080008160809380008091B100846080936A
:1029C000B1008091B00081608093B000809191004F
:1029D000826080939100809191008160809391004A
:1029E000809190008160809390008091A10082602E
:1029F0008093A1008091A10081608093A1008091CB
:102A0000A00081608093A00080912101826080936A
:102A10002101809121018160809321018091200119
:102A200081608093200180917A00846080937A0095
:102A300080917A00826080937A0080917A00816030
:102A400080937A0080917A00806880937A00109257
:102A5000C10087E89CE00E94CB0481E79CE00E94D3
:102A6000CB048BE59CE00E94CB0485E49CE00E94B3
:102A7000CB048FE29CE00E94CB0489E19CE00E94A1
:102A8000CB0483E09CE00E94CB048DEE9BE00E948F
:102A9000CB0487ED9BE00E94CB0481EC9BE00E947D
:102AA000CB04E091D00AF091D10A82E08083E091DA
:102AB000CC0AF091CD0A1082E091CE0AF091CF0AB3
:102AC0008FEC80831092D80AE091D40AF091D50A55
:102AD00086E08083E091D20AF091D30A8081806100
:102AE0008083E091D20AF091D30A8081886080834C
:102AF000E091D20AF091D30A808180688083E091CE
:102B0000D20AF091D30A80818F7D808388E99AE090
:102B10000E9496058091BF0B9091C00B1816190664
:102B200034F441E06CE090E080E00E94DE048091AB
:102B3000BF0B9091C00B029734F041E06CE081E054
:102B400090E00E94DE048091BF0B9091C00B039730
:102B500034F041E06CE082E090E00E94DE0480917D
:102B6000BF0B9091C00B1816190634F448E06AE0C8
:102B700090E080E00E94DE048091BF0B9091C00B3A
:102B8000029734F048E06AE081E090E00E94DE04C1
:102B90008091BF0B9091C00B039734F048E06AE03E
:102BA00082E090E00E94DE0490E080E00E943C051C
:102BB00081E090E00E943C0582E090E00E943C05AC
:102BC00087E89CE00E94A40581E79CE00E94A405A0
:102BD0008BE59CE00E94A40585E49CE00E94A4058E
:102BE0008FE29CE00E94A40589E19CE00E94A4057C
:102BF00083E09CE00E94A4058DEE9BE00E94A4056A
:102C000087ED9BE00E94A40581EC9BE00E94A40557
:102C100080EC9AE00E94E0011816190644F450E096
:102C200040E06EE87AE083E69BE00E94DD0580EC00
:102C30009AE00E94E001181619065CF588EA9AE00D
:102C40000E94960580EC9AE00E94BE0189831A8258
:102C50000091670B1091680B0F5F1F4FB80183E65F
:102C60009BE00E94B505882311F32091630B3091FE
:102C7000640B8091670B9091680BBE016F5F7F4F73
:102C8000820F931F0E94D8191093680B0093670B53
:102C9000CECF80EC9AE00E94E00118161906ECF005
:102CA0001A8219821C821B821E821D826091630B14
:102CB0007091640B6115710541F04091670B509163
:102CC000680BCE0101960E94DD05CE0101960E949F
:102CD000BF06CE0101960E94AD050E94850270CF0D
:102CE000CF93DF93EC0189859A850E945E188E81CF
:102CF0009F8197FD05C060E0DF91CF910C94420366
:102D0000DF91CF9108958DE59BE00E94AD0583E6AC
:102D10009BE00E94AD0581EC9BE00E94701687ED60
:102D20009BE00E9470168DEE9BE00E94701683E07F
:102D30009CE00E94701689E19CE00E9470168FE270
:102D40009CE00E94701685E49CE00E9470168BE562
:102D50009CE00E94701681E79CE00E94701687E854
:102D60009CE00C9470168F929F92AF92BF92CF927C
:102D7000DF92EF92FF92CF93DF93EC01688179812C
:102D80008A819B81611571058105910521F464E2B9
:102D900079ED8BE597E02DE133EF41E050E00E94C3
:102DA000571749015A019B01AC01A7EAB1E40E94FF
:102DB00076176B017C01ACEEB4EFA50194010E9483
:102DC0008417C60ED71EE81EF91EF7FE06C081E066
:102DD000C81AD108E10880E8F80AC882D982EA82D4
:102DE000FB82C701B6019F77DF91CF91FF90EF90F3
:102DF000DF90CF90BF90AF909F908F9008958F926B
:102E00009F92AF92BF92CF92DF92EF92FF9260912A
:102E100000027091010280910202909103026115FB
:102E200071058105910521F464E279ED8BE597E068
:102E30002DE133EF41E050E00E94571749015A015C
:102E40009B01AC01A7EAB1E40E9476176B017C01FB
:102E5000ACEEB4EFA50194010E948417C60ED71EF4
:102E6000E81EF91EF7FE06C081E0C81AD108E10885
:102E700080E8F80AC0920002D0920102E0920202B9
:102E8000F0920302C701B6019F77FF90EF90DF90A9
:102E9000CF90BF90AF909F908F9008956093000265
:102EA0007093010280930202909303020895052E0D
:102EB00097FB1EF400940E946E1757FD07D00E94E6
:102EC000891707FC03D04EF40C946E17509540956B
:102ED000309521953F4F4F4F5F4F089590958095C6
:102EE000709561957F4F8F4F9F4F08950E94AB174C
:102EF000A59F900DB49F900DA49F800D911D11244E
:102F00000895B7FF0C9476170E947617821B930BD7
:102F10000895A1E21A2EAA1BBB1BFD010DC0AA1F1A
:102F2000BB1FEE1FFF1FA217B307E407F50720F032
:102F3000A21BB30BE40BF50B661F771F881F991FAD
:102F40001A9469F760957095809590959B01AC01F6
:102F5000BD01CF010895A29FB001B39FC001A39FFF
:102F6000700D811D1124911DB29F700D811D1124C2
:102F7000911D0895EE0FFF1F881F8BBF0790F691DC
:102F8000E02D19940F931F93CF93DF938230910517
:102F900010F482E090E0E0919F0CF091A00C30E002
:102FA00020E0B0E0A0E0309799F42115310509F454
:102FB0004AC0281B390B24303105D8F58A819B8102
:102FC0006115710589F1FB0193838283FE0111C0B4
:102FD000408151810281138148175907E0F0481759
:102FE000590799F4109761F012960C931297139663
:102FF0001C933296CF01DF91CF911F910F910895CD
:1030000000939F0C1093A00CF4CF2115310551F0C3
:103010004217530738F0A901DB019A01BD01DF0116
:10302000F801C1CFEF01F9CF9093A00C80939F0CD2
:10303000CDCFFE01E20FF31F81939193225031090E
:1030400039832883D7CF20919D0C30919E0C232B60
:1030500041F4209106023091070230939E0C209398
:103060009D0C20910402309105022115310541F497
:103070002DB73EB74091080250910902241B350B31
:10308000E0919D0CF0919E0CE217F307A0F42E1B2B
:103090003F0B2817390778F0AC014E5F5F4F2417BC
:1030A000350748F04E0F5F1F50939E0C40939D0CC8
:1030B000819391939FCFF0E0E0E09CCFCF93DF939B
:1030C0000097E9F0FC01329713821282A0919F0CC5
:1030D000B091A00CED0130E020E01097A1F4208128
:1030E0003181820F931F20919D0C30919E0C2817E7
:1030F000390709F061C0F0939E0CE0939D0CDF91BD
:10310000CF910895EA01CE17DF07E8F54A815B8188
:103110009E0141155105B1F7E901FB83EA8349910D
:103120005991C40FD51FEC17FD0761F4808191817F
:103130000296840F951FE901998388838281938188
:103140009B838A83F0E0E0E012968D919C91139727
:103150000097B9F52D913C911197CD010296820F00
:10316000931F20919D0C30919E0C2817390739F63A
:10317000309751F51092A00C10929F0CB0939E0CBA
:10318000A0939D0CBCCFD383C28340815181840F17
:10319000951FC817D90761F44E5F5F4F88819981E9
:1031A000480F591F518340838A819B819383828377
:1031B0002115310509F0B0CFF093A00CE0939F0CDE
:1031C0009ECFFD01DC01C0CF13821282D7CF4F9278
:1031D0005F926F927F928F929F92AF92BF92CF92A7
:1031E000DF92EF92FF920F931F93CF93DF938C01A7
:1031F000009799F4CB01DF91CF911F910F91FF9030
:10320000EF90DF90CF90BF90AF909F908F907F9086
:103210006F905F904F900C94C217FC01E60FF71F60
:103220009C0122503109E217F30708F4AEC0D9011E
:10323000CD91DC911197C617D70720F1C530D10584
:1032400078F0CE0104978617970750F0C61BD70B6E
:103250002297C193D1936D937C93CF010E945E1806
:10326000C801DF91CF911F910F91FF90EF90DF90F8
:10327000CF90BF90AF909F908F907F906F905F9016
:103280004F9008955B01AC1ABD0A4C018C0E9D1E37
:10329000A0919F0CB091A00C512C412CF12CE12C51
:1032A000109731F580919D0C90919E0C8815990591
:1032B00009F05CC04616570608F058C08091040219
:1032C00090910502009741F48DB79EB74091080296
:1032D00050910902841B950BE817F90708F055C0B7
:1032E000F0939E0CE0939D0CF90171836083B8CF3D
:1032F0008D919C91119712966C90129713967C90D9
:103300001397A815B90559F56C0142E0C40ED11CFC
:10331000CA14DB0420F1AC014A195B09DA011296E8
:10332000159780F06282738251834083D9016D9337
:103330007C93E114F10471F0D7011396FC93EE93A2
:1033400012978ECF22968C0F9D1FF9019183808357
:10335000F301EFCFF093A00CE0939F0C81CF4816C0
:10336000590608F42C017D01D3019ACFCB010E94AC
:10337000C2177C01009749F0AE01B8010E94C8193C
:10338000C8010E945E1887016BCF10E000E068CF93
:10339000FB01DC0102C001900D9241505040D8F772
:1033A0000895DC0101C06D9341505040E0F708954D
:1033B000FB01DC0101900D920020E1F7089511E07E
:1033C000CCE3D1E000E006C0802FFE010E94BA17D6
:1033D0002196011DCD33D10780E00807A9F7F894A5
:0233E000FFCF1D
:1033E200010000000000A10C8000000000000000AD
:1033F20000000000000000000100010001000000C8
:1034020000000100000000000000010000000100B7
:1034120000000000000001000000010001000100A6
:103422000100010000000100000000000000010096
:103432000000010000000000000001000000010087
:103442000000000000000100000000000000000079
:10345200000000000000000000000000000000006A
:103462000000000000000000000000000000010059
:103472000100010001000000000001000000000046
:103482000000010000000100000000000000010037
:103492000000010001000100010000000000010025
:1034A2000000000000000100000001000000000018
:1034B2000000010000000100010001000100000005
:1034C20000000000000000000000000000000000FA
:1034D20000000000000000000000000000000000EA
:1034E20000000000000001000100010001000000D6
:1034F20000000100000000000000010000000100C7
:1035020000000000000001000000010000000000B7
:1035120000000100000001000000000000000100A6
:103522000000010000000000000001000000010096
:103532000100010001000000000000000000000086
:103542000000000000000000000000000000000079
:103552000000000000000000000000000000010068
:103562000100010001000100000001000000000054
:103572000000000000000100000000000000000048
:103582000000010001000100010000000000010034
:103592000000000000000000000001000000000028
:1035A2000000000000000100010001000100010014
:1035B2000000000000000000000000000000000009
:1035C20000000000000000000000000000000000F9
:1035D20000000000000000000100010001000000E6
:1035E20000000100000000000000010000000100D6
:1035F20000000000000000000000010000000000C8
:1036020000000000000001000000010001000100B4
:1036120000000100000000000000010000000000A6
:103622000100010001000000000000000000000095
:103632000000000000000000000000000000000088
:103642000000000000000000000000000000010077
:103652000000000000000100000001000000000066
:103662000000010000000100000000000000010055
:103672000000010001000100010001000000010042
:103682000000000000000100000001000000000036
:103692000000010000000100000000000000010025
:1036A2000000000000000000000000000000000018
:1036B2000000000000000000000000000000000008
:1036C20000000000000001000100010001000100F3
:1036D20000000000000001000000000000000000E7
:1036E20000000100000000000000000000000100D6
:1036F20000000000000000000000010000000000C7
:1037020000000000000001000000000000000100B5
:1037120001000100010001000000000000000000A3
:103722000000000000000000000000000000000097
:103732000000000000000000000000000000010086
:103742000000000000000100000001000100000074
:103752000100010000000100000001000000010062
:103762000000010000000000000001000000010054
:103772000000000000000100000001000000000045
:103782000000010000000100000000000000010034
:103792000000000000000000000000000000000027
:1037A2000000000000000000000000000000000017
:1037B2000000000000000100000000000000010005
:1037C20000000100010000000000010000000100F3
:1037D20000000100000001000000010000000000E4
:1037E20001000100000001000000000001000100D2
:1037F20000000100000000000000010000000100C4
:1038020000000000000001000000000000000000B5
:1038120000000000000000000000000000000000A6
:103822000000000000000000000000000000000096
:103832000100010001000000000001000000000082
:103842000000010000000100000000000000010073
:103852000000010000000000000001000000010063
:103862000000000000000100000001000000000054
:103872000000010000000000010001000100000042
:103882000000000000000000000000000000000036
:103892000000000000000000000000000000000026
:1038A2000000000000000100010001000100000012
:1038B2000000010000000000000001000000010003
:1038C20000000000000001000000010001000100F2
:1038D20001000000000001000000000000000000E4
:1038E20000000100000000000000000000000100D4
:1038F20000000000000000000000000000000000C6
:1039020000000000000000000000000000000000B5
:1039120000000000000000000000000000000000A5
:103922000100010001000000000001000000000091
:103932000000010000000100000000000000010082
:103942000000010000000000000001000000010072
:103952000000000000000100000001000000000063
:103962000000010000000000010001000100000051
:103972000000000000000000000001000000000044
:103982000000000000000000000000000000000035
:103992000000000000000100010001000100000021
:1039A2000000010000000000000001000000010012
:1039B2000000000000000100000001000100010001
:1039C20001000000000001000000010000000000F2
:1039D20000000100000000000100000000000100E2
:1039E20000000000000001000000000000000000D4
:1039F20000000000000000000000000000000000C5
:103A020000000000000000000000000000000000B4
:103A1200010001000100010000000100000000009F
:103A22000000000000000100000000000000000093
:103A32000000000001000100010000000000000081
:103A42000000000000000100000000000000000073
:103A5200000001000000010001000100010000005F
:103A62000000000000000000000000000000000054
:103A72000000000000000000000000000000000044
:103A82000000000000000100000000000000010032
:103A92000000010000000000000001000000010021
:103AA2000000000000000100000001000000000012
:103AB2000000010000000100000000000000010001
:103AC20000000100000000000000010000000000F2
:103AD20001000100010000000000000000000000E1
:103AE20000000000000000000000000000000000D4
:103AF20000000000000000000000000000000100C3
:103B020000000000000001000000010000000000B1
:103B120000000100000001000000000000000100A0
:103B22000000010000000000000001000000010090
:103B3200000001000000010000000100000001007F
:103B42000000010000000000010000000100000070
:103B52000000000000000000000000000000000063
:103B62000000000000000000000000000000000053
:103B7200000000000000010001000100010001003E
:103B82000000000000000000000001000000000032
:103B92000000000001000000000000000000010021
:103BA2000000000000000000010000000000000012
:103BB2000000010000000000000000000000010001
:103BC20001000100010001000000000000000000EF
:103BD20000000000000000000000000000000000E3
:103BE20000000000000000000000000000000000D3
:103BF20000000000000000000000000001000000C2
:103C020000000100000001000100010001000100AC
:103C1200010000000100000000000100000000009F
:103C2200010000000000010000000100010001008D
:103C3200010001000100000001000000000001007D
:103C42000000000000000000000000000000000072
:103C52000000000000000000000000000000180248
:103C62008201AF016502E001BE01D2010D0A0054DA
:103C72006F204C6F776572005365747570205465C0
:103C8200726D696E61646F004461746F2072656366
:063C9200696269646F0025
:00000001FF
